:10076400C100016C00016B00013700013400016A13
:1007740000112341542B43495053454E443D302CE2
:0A07840030390D0A012100012200A6
:10062B0012000312068DD2AC3001FDC2AF747725D8
:10063B006AF8760D7478256AF8760A7479256AF863
:10064B00E4F61200267B007A00792312079B7F03C6
:10065B007E001207F47B007A00797712079B7E00ED
:10066B007F327D007B007A0079771202AE7E007FAD
:10067B00327D007B007A0079381202AEC201D2AF14
:02068B0080A647
:030023000203A82D
:1003A800C0E0C0F0C083C082C0D075D000C000C01B
:0D03B80001C002C003C004C005C006C0079C
:1003C5002098030204AAC298AF21052174382FF89A
:1003D500A69974372521F8E6B40A127521007E0026
:1003E5007F327D007B007A0079381202AEE54164E8
:1003F50055705674412522F8E6FF74772522F8A634
:10040500070522D3E521940D74809480403BE54394
:100415002406F56A14FFE522D39F402D752200D2EC
:1004250001D3E56A9409748094804014E56A75F0F7
:100435000A842430F530E56A75F00A84E5F0800514
:10044500753030E56A2430F531E5426455705674EF
:10045500422522F8E6FF74772522F8A6070522D360
:10046500E521940D74809480403BE5442406F56AAB
:1004750014FFE522D39F402D752200D201D3E56AF2
:100485009409748094804014E56A75F00A842430D8
:10049500F530E56A75F00A84E5F08005753030E5DC
:0504A5006A2430F5316E
:1004AA00D007D006D005D004D003D002D001D000A6
:0B04BA00D0D0D082D083D0F0D0E03250
:10002600E4F508FB7A007979E56A24FAFD1205C140
:100036008E358F367473256AF8E53666700A7474E1
:10004600256AF8E5356660077FE87E031207D278F1
:100056007AE624DF603214604914700302017C24BE
:0D0066009370030201F2247060030201FF99
:10007300787BE6F509F4F590787776550876AA0843
:0B0083007603087620E408F60201FF77
:10008E007879E6640460030201FF78777655087686
:0A009E00AA0876040876210201FF8B
:1000A800787BE6FE08E67C002400F50EEC3EF50DB4
:1000B800AF0EAB07FAE4F9F87FA07E867D01120641
:1000C800DD8E0B8F0C7879E664067055787DE6FE38
:1000D80008E67C002400FFEC3EFE7D64120247AC7B
:1000E8000BAD0C1202598E098F0AE47818F608F63F
:1000F800C37819E6950A18E695095018B2B6E50BC3
:10010800C313FEE50C13FF120820781906E61870D1
:10011800010680DC787776550876AA087606087690
:10012800227879E6640460030201FFAC0BAD0C7E13
:10013800C37F501202598E098F0AE47818F608F620
:10014800C37819E6950A18E695095018B2B6E50B72
:10015800C313FEE50C13FF120820781906E6187081
:10016800010680DC787776550876AA087604087642
:04017800220201FF5F
:10017C00787BE624FC601A14602714603424037026
:10018C003EC2B57F0A7E001207F4D2B57509018014
:10019C002EC2B47F0A7E001207F4D2B47509028015
:1001AC001EC2B37F0A7E001207F4D2B37509038016
:1001BC000EC2B27F0A7E001207F4D2B27509047F18
:1001CC00017E001207F4E5096401700BF590F50946
:1001DC007FF47E011207D2787776550876AA0876D6
:0601EC0003087623800DDC
:1001F200787776550876AA0876030876207B007A07
:10020200007979E56A24FAFD1205C18E358F3674BC
:1002120073256AF8A6367474256AF8A635747525AE
:0B0222006AF876AA7476256AF8765513
:01022D0022AE
:0C078E000A6DC0F9A4B0999282F8809026
:10072100EF24FE601014601714601E24037022C2AF
:10073100A0D2A18004D2A0C2A1D2A2D2A38012D2FF
:10074100A0D2A1C2A2D2A38008D2A0D2A1D2A2C219
:10075100A3746D2DF8E6F5807F017E001207F47514
:0307610080FF22F4
:04082B007FF7DFFE76
:01082F0022A6
:0407D200AD07AC06BD
:1007D600E4FBFAED25E0FFEC33FEC3EB9FEA9E5007
:0D07E6000CB2B612082B0BBB00010A80E616
:0107F30022E3
:0B082000EF1FAC0670011E4C70F622AA
:1007F400D3EF9400EE940040147D727C00ED1D70E4
:0D080400011CED4C70F7EF1F70E61E80E345
:0108110022C4
:10000300C2AF53877F75985053890F438920758BEF
:0F001300FD758DFDC2ABD28EC2ACD28ED2AF22A4
:0E081200C2ACC2998F993099FDC299D2AC2226
:0805C1008B0F8A1089118D12C5
:1005C900E4F513F514751510751621F517AF121505
:1005D90012EF6049AB0F0511E511AA107002051061
:1005E90014F912022EF517FEEE6213E4FCECC39423
:1005F900087480948050D6E51330E713E51425E09C
:10060900FFE513336515F513E5166FF514800BE552
:100619001425E0F514E51333F5130C80D0AE13AFB0
:0106290014BC
:01062A0022AD
:1005510041542B43574D4F44453D320D0A00415400
:100561002B43575341503D224553503832363622A2
:100571002C223132333435363738222C31312C3379
:100581000D0A0041542B43495041503D223139322B
:100591002E3136382E342E31220D0A0041542B4390
:1005A10049504D55583D310D0A0041542B43495096
:1005B1005345525645523D312C383038300D0A00E2
:10079B008B088A09890AAB08AA09A90A12022EFF3B
:1007AB00640A60171208127F057E0012082074017C
:1007BB00250AF50AE43509F50980DB7F057E001271
:0707CB0008207F0A0208125A
:10068D007BFF7A05795112079B7FE87E031207F4F1
:10069D007BFF7A05795F12079B7FE87E031207F4D3
:1006AD007BFF7A05798412079B7FE87E031207F49E
:1006BD007BFF7A05799D12079B7FE87E031207F475
:1006CD007BFF7A0579AB12079B7FE87E030207F467
:030000000204C532
:0C04C500787FE4F6D8FD7581A802050CD4
:10022E00BB010689828A83E0225002E722BBFE02CE
:09023E00E32289828A83E4932201
:10024700EF8DF0A4A8F0CF8CF0A428CE8DF0A42ECB
:02025700FE2285
:10025900BC000BBE0029EF8DF084FFADF022E4CC89
:10026900F875F008EF2FFFEE33FEEC33FCEE9DEC52
:10027900984005FCEE9DFE0FD5F0E9E4CEFD22ED98
:10028900F8F5F0EE8420D21CFEADF075F008EF2FE2
:10029900FFED33FD4007985006D5F0F222C398FDD3
:0502A9000FD5F0EA2270
:1006DD00C2D5E830E70FB2D5E4C39BFBE49AFAE448
:1006ED0099F9E498F8EC30E717B2D5120713120315
:1006FD0016E4C39BFBE49AFAE499F9E498F88003B5
:10070D0012031630D50DE4C39FFFE49EFEE49DFD5C
:04071D00E49CFC223A
:1002AE00EF4E6012EF60010EEDBB010B89828A8367
:1002BE00F0A3DFFCDEFA2289F05007F709DFFCA974
:0C02CE00F022BBFEFCF309DFFCA9F022CB
:1004D10002062BE493A3F8E493A34003F68001F210
:1004E10008DFF48029E493A3F85407240CC8C3332C
:1004F100C4540F4420C8834004F456800146F6DFFB
:10050100E4800B0102040810204080900764E47E1F
:10051100019360BCA3FF543F30E509541FFEE493EF
:10052100A360010ECF54C025E060A840B8E493A3B6
:10053100FAE493A3F8E493A3C8C582C8CAC583CAE1
:10054100F0A3C8C582C8CAC583CADFE9DEE780BE99
:01079A00005E
:1002DA0075F008758200EF2FFFEE33FECD33CDCCDB
:1002EA0033CCC58233C5829BED9AEC99E58298405E
:1002FA000CF582EE9BFEED9AFDEC99FC0FD5F0D63B
:10030A00E4CEFBE4CDFAE4CCF9A88222B800C1B964
:10031A000059BA002DEC8BF084CFCECDFCE5F0CBA2
:10032A00F97818EF2FFFEE33FEED33FDEC33FCEBDB
:10033A0033FB10D703994004EB99FB0FD8E5E4F996
:10034A00FA227818EF2FFFEE33FEED33FDEC33FC83
:10035A00C933C910D7059BE99A4007EC9BFCE99A77
:10036A00F90FD8E0E4C9FAE4CCFB2275F010EF2FBC
:10037A00FFEE33FEED33FDCC33CCC833C810D707BC
:10038A009BEC9AE899400AED9BFDEC9AFCE899F8F7
:0E039A000FD5F0DAE4CDFBE4CCFAE4C8F9228A
:00000001FF
