:0300000002008675
:0C008600787FE4F6D8FD75810B020003C2
:10006B00E4FDFCC3ED9FEC9E50100079027BC7DBD7
:0A007B00FED9FC0DBD00010C80E968
:010085002258
:0B009200EF1FAC0670011E4C70F62240
:10000300750A00750B0175A0FEE4F508F509E50B0B
:10001300450A60137E007401A809088005C333CE26
:1000230033CED8F9FF80127E007480A809088006B9
:10003300CEA2E713CE13D8F8FFEFF4F5A07FE87E46
:100043000312006B0509E50970020508C39408E56E
:1000530008940040B9E50B450A70047F0180027FD4
:0800630000750A008F0B80A15B
:00000001FF
