:100213007FB47E491EEE600AE52160F8E4F5217F94
:060223000122DFF07F0064
:0102290022B2
:10009A0012023F12024C1201C6EF24F260251460CC
:1000AA002714603C14604624047047759055120268
:1000BA0013EF70E2AF907801EF08800123D8FDF5C5
:1000CA009080EBE4F59080CE75901F120213EF70CA
:1000DA00C5AF907801EF08800123D8FDF59080EB39
:1000EA007590FE120213EF70ADB29080F67590FE15
:0700FA0080A47590FF809FB8
:0D023F00D2AF438902E4F58CD2A9D28C2203
:10022A0045464744404307150916190D0C185E0840
:05023A001C5A42524A6B
:1001930001220020212900000000000000000000CF
:1001A300000000000000000000000000000000004C
:1001B30000000000000000012300012800012100CD
:0201C300C10079
:07024C00D2AFD288D2A82234
:03000B00020006EA
:030006000522329E
:03000300020101F6
:10010100C0E0C0D075D000C000C006C007300034C8
:10011100AF22D3EF942D74809480400CEF943C7403
:10012100809480500375230074292523F8A62205A5
:1001310023752200E5236421700FF52375280175CD
:1001410021018005752200D200D007D006D000D051
:04015100D0D0E032F8
:10015500E4FE7C01EEC3940474809480502FE4FD8A
:10016500EDC3940874809480501AEFC313FF74296B
:100175002CF8E6D3940674809480400474802FFF95
:0D0185000C0D80DC74242EF8A6070E80C738
:01019200224A
:1001F500E4FEEEC3941574809480500FEE90022AAD
:0D02050093B50704EE04FF220E80E77F0092
:0102120022C9
:1001C600E5286026120155E5242525FFE433FEEFD8
:1001D600F44E7018E5262527FFE433FEEFF44E7043
:0E01E6000BAF261201F5AB078002E4FBAF035E
:0101F40022E8
:0300000002000EED
:0C000E00787FE4F6D8FD758149020055AA
:10001A0002009AE493A3F8E493A34003F68001F262
:10002A0008DFF48029E493A3F85407240CC8C333E7
:10003A00C4540F4420C8834004F456800146F6DFB6
:10004A00E4800B0102040810204080900193E47EB2
:10005A00019360BCA3FF543F30E509541FFEE493AB
:10006A00A360010ECF54C025E060A840B8E493A372
:10007A00FAE493A3F8E493A3C8C582C8CAC583CA9D
:10008A00F0A3C8C582C8CAC583CADFE9DEE780BE55
:0101C5000039
:00000001FF
