:030000000213DA0E
:10000B000214DD020356E86480F8E933E83360112B
:10001B000460F0ED33EC337009E8FCE9FDEAFEEB2C
:10002B00FF220460DED3EB9FEA9EE99DE8C2E78CDA
:10003B00F0C2F795F0400CE8CCF8E9CDF9EACEFA2E
:10004B00EBCFFB12032185D0F05804700320D5B3FE
:10005B00E80470075002B2D502036092D5EC04603D
:10006B00F7E4CCC0E0C398F8603B94186008400DEF
:10007B00D0E0FB020338E4FBFAC9FC8028E830E44B
:10008B0006E4C9FBE4CAFCE830E305E4C9CACBFCCF
:10009B00E854076010F8C3E913F9EA13FAEB13FB02
:1000AB00EC13FCD8F130F52FC3E49CFCEF9BFFEE77
:1000BB009AFEED99FDD0E0FBEF4E4D4C701222DB1A
:1000CB000302035DEC2CFCEF33FFEE33FEED33FD4F
:1000DB00ED30E7EB020338EF2BFFEE3AFEED39FD87
:1000EB00D0E0FB50130BBB0003020360ED13FDEEDE
:1000FB0013FEEF13FFEC13FC020338EC4D6011E819
:10010B00497017ED33EC3304600DE4FCFFFEFD2268
:10011B00E933E8330470F8020356120321580460E4
:10012B0009E4CC24815006285009020360284003BF
:10013B0002035DC0E0EB4A7044B98006D0E0FB02DD
:10014B00034CEF4E701CBD8008EBFFEAFEE9FD800F
:10015B00EBE98DF0A4FEE5F00201EFE9CDF9EAFE43
:10016B00EBFFEF89F0A4FCE5F0CE89F0A42EFFE4C1
:10017B0035F0CD89F0A42DFEE435F08067EF4E709D
:10018B0005BD80D780C3EF8BF0A4ACF0EE8BF0A451
:10019B002CFCE435F0F8EF8AF0A42CE5F038FCE405
:1001AB0033CB8DF0A42CFCE5F03BF8EE8AF0A42CBD
:1001BB00FCE5F038F8E433CF89F0A42CFCE5F038FB
:1001CB00CF3400CE89F0A42FFFE5F03EFEE433C917
:1001DB008DF0A42EFEE5F039CD8AF0A42FFFE5F0CB
:1001EB003EFEE43DFD33D0E0FB50070BBB000F029E
:1001FB000360EC2CFCEF33FFEE33FEED33FD02031B
:10020B0038020360EC5D046005E8590470030203D7
:10021B0056120321580460F6EC4860F2EC7004FDB2
:10022B00FEFF22C860DB2481C85009C398600250CE
:10023B000602035D9850CAF582E9294B4A7005AB5B
:10024B008202034C75F0007C1A7880C3EF9BEE9A08
:10025B00ED99400DC3EF9BFFEE9AFEED99FDE84241
:10026B00F0DC23ACF0D0E0FFD0E0FED0E0FDAB82C1
:10027B0020E7101BEB60BAEC2CFCEF33FFEE33FEE8
:10028B00ED33FD020338E803F830E705C0F075F0F5
:10029B0000EF2FFFEE33FEED33FD40B830E7C280A9
:1002AB00AA75F020800E75F010800575F0087D00A2
:1002BB007E007F003392D530D503120610EC33400D
:1002CB0010EF33FFEE33FEED33FDEC33FCD5F0EDE9
:1002DB0022E5F0247EA2D513CC92E7CDCEFF22ED02
:1002EB00D2E7CD33EC3392D524814006E4FFFEFDFB
:1002FB00FC22FCE4CFCECDCC24E0501174FF80ED7A
:10030B00C3CC13CCCD13CDCE13CECF13CF0470F003
:10031B0030D5DE020610E9D2E7C933E833F892D5BF
:10032B00EDD2E7CD33EC33FC5002B2D522EC30E703
:10033B00100FBF000C0EBE00080DBD00040BEB60D0
:10034B0014A2D5EB13FCED92E7FD2274FFFCFDFE2E
:10035B00FF22E480F8A2D574FF13FC7D80E480EFCC
:10036B00F920E72824F950037907E4F42402FB1859
:10037B00DBFDE624FB5014E9600DE4F618E604F609
:10038B00B40A08E4F6D9F57401F60A22C2D522EDB7
:10039B0033EC3392D5FA602AB4FF33EDC2E77BFF1F
:1003AB0060067A0379BFE4227A0379C820D5047AF0
:1003BB000379C3224E614E002B494E46002D494E08
:1003CB004600E47A08F608DAFC7B00740722E8C0E2
:1003DB00E0ECC0E0EDC0E0EEC0E0EFC0E0EA75F0AD
:1003EB0010A4CAABF075F04DA42BFBE435F0FCEA7E
:1003FB002410FAEB34C5FBEC34D9FCEDC2E7FF75E6
:10040B00F056A4F42411C5F0F434C58FF0A42AE5FA
:10041B00F03BE43CF620E7141204CDD0E0FFD0E033
:10042B00FED0E0FDD0E0FC12020F8014F4041204A5
:10043B00CDD0E0FFD0E0FED0E0FDD0E0FC12010615
:10044B00D0E0F8E6FAEDD2E7CD33EC332482FBE4CF
:10045B00C3CF33CFCE33CECD33CD33DBF37B077569
:10046B00F00A846004F6081B0AE5F0F6088FF074B6
:10047B000AA4FFACF08EF0740AA42CFEACF0500171
:10048B000C8DF0740AA42CFDE435F0F608DBDE7459
:10049B0007223F8000004120000042C80000447A40
:1004AB000000461C400047C35000497424004B1801
:1004BB0096804CBEBC205A0E1BCA6753C21C749D3F
:1004CB00C5AEFB60065407601C23231204FBEB54E0
:1004DB003860091204E71204F6120106ECF8EDF984
:1004EB00EEFAEFCB22EB1204F680F1543803241C06
:1004FB0090049DFE93FC0EEE93FD0EEE930ECE93A9
:10050B00FF22BB010689828A83E0225002E722BBCD
:10051B00FE02E32289828A83E49322BB010CE582EB
:10052B0029F582E5833AF583E0225006E92582F826
:10053B00E622BBFE06E92582F8E222E58229F58256
:10054B00E5833AF583E49322BB010989828A83F818
:10055B00E028F022500327F722BBFE05F8E328F32F
:10056B00228A838982F8E4932822BB010689828A36
:10057B0083F0225002F722BBFE01F322F8BB010DE0
:10058B00E58229F582E5833AF583E8F0225006E906
:10059B002582C8F622BBFE05E92582C8F222EF8D23
:1005AB00F0A4A8F0CF8CF0A428CE8DF0A42EFE22C0
:1005BB00BC000BBE0029EF8DF084FFADF022E4CC24
:1005CB00F875F008EF2FFFEE33FEEC33FCEE9DECED
:1005DB00984005FCEE9DFE0FD5F0E9E4CEFD22ED33
:1005EB00F8F5F0EE8420D21CFEADF075F008EF2F7D
:1005FB00FFED33FD4007985006D5F0F222C398FD6E
:10060B000FD5F0EA22C3E49FFFE49EFEE49DFDE4D8
:10061B009CFC22BB010DE58229F582E5833AF5832B
:10062B000207085007E92582F80206FCBBFE07E922
:10063B002582F8020714E58229F582E5833AF583D2
:10064B00020720BB010DE58229F582E5833AF5838C
:10065B000207725007E92582F8020766BBFE07E91D
:10066B002582F802077E22BB010DE58229F582E582
:10067B00833AF58302073D5007E92582F8020730DC
:10068B00BBFE07E92582F8020749E58229F582E5D9
:10069B00833AF583020756BB010DE58229F582E506
:1006AB00833AF5830207A35007E92582F802078AEC
:1006BB00BBFE07E92582F80207D422FAE6FB0808FD
:1006CB00E6F925F0F618E6CA3AF622D083D082F87E
:1006DB00E4937012740193700DA3A393F8740193B8
:1006EB00F5828883E4737402936860EFA3A3A380FD
:1006FB00DFE6FC08E6FD08E6FE08E6FF22E0FCA3C9
:10070B00E0FDA3E0FEA3E0FF22E2FC08E2FD08E22D
:10071B00FE08E2FF22E493FC740193FD740293FE46
:10072B00740393FF22E6FB08E6F908E6FA08E6CB2A
:10073B00F822E0F8A3E0F9A3E0FAA3E0FB22E2FB46
:10074B0008E2F908E2FA08E2CBF822E493F8740124
:10075B0093F9740293FA740393FB22ECF608EDF60B
:10076B0008EEF608EFF622ECF0A3EDF0A3EEF0A303
:10077B00EFF022ECF208EDF208EEF208EFF222D0E5
:10078B0083D082E493F608740193F608740293F60F
:10079B0008740393F6740473A8828583F0D083D016
:1007AB00821207BA1207BA1207BA1207BAE473E435
:1007BB0093A3C583C5F0C583C8C582C8F0A3C58301
:1007CB00C5F0C583C8C582C822D083D082E493F21A
:1007DB0008740193F208740293F208740393F27491
:1007EB000473E553243FF8E6055322783C300902A5
:1007FB00783FE475F0011206C602050D2002EB7F6F
:10080B002ED2028018EF540F2490D43440D4FF30F2
:10081B00060BEF24BFB41A0050032461FFE55460AC
:10082B000215540557E5577002055630090D783CF3
:10083B00E475F0011206C6EF02057502161074037B
:10084B00D2098003E4C209F5538B3C8A3D893EE40F
:10085B00F554F556F557E55460077F2012082880AC
:10086B00F57555FFC203C202C204C205C207C20816
:10087B00C20A1207F6FF700D3009057F0012083906
:10088B00AF57AE5622B4255FC2D5C2061207F6FF8C
:10089B0024D0B40A00501A75F00A785430D50508E4
:1008AB00B6FF0106C6A426F620D5047002D2058039
:1008BB00D924CFB41A00EF5004C2E5D206020B269E
:1008CB00D20380C6D20280C0D20480BCD2D580BAFB
:1008DB00D20780B47F201208282004077401B55476
:1008EB000040F11207EDFF120828020861D20AD26C
:1008FB000880951207EDFB1207EDFA1207EDF94A86
:10090B004B7006791D7A0C7BFF20042EE554602A70
:10091B007E008E8275830012052660060EEE6555ED
:10092B0070F0C2D5EBC0E0EAC0E0E9C0E0EE120B1C
:10093B0086D0E0F9D0E0FAD0E0FB12050DFF60AAFB
:10094B00EBC0E0EAC0E0E9C0E0120828D0E02401E7
:10095B00F9D0E03400FAD0E0FBE5550460DCD55566
:10096B00D98087D20480A2120B6960F7E55570011C
:10097B000412036BA955600DE555600914F555126A
:10098B000C10EF60F3EA30E702F404C3995077EAF6
:10099B00F425550430E701E404F555800D120B697D
:1009AB0060C1EA0555255512036BEA7852F630E71C
:1009BB0001E4255504D5550420070114120B86E4D8
:1009CB00C0E0120C107852E6601320E70714F61201
:1009DB000810802204F6D0E014C0E07F001208104B
:1009EB00E55560071208071555800B3007031208F1
:1009FB0007D0E0020861D0E00480C5120B6960A04B
:100A0B00E5550412036B7852EAF6E55520070260B0
:100A1B0001042404120B8674FF04C0E0120C1012A4
:100A2B000810E5552007026003120807D0E0B55502
:100A3B00E87F4512081A7852E67F2B30E7047F2DAA
:100A4B00F404C0E0120828D0E075F00A84C0F0125C
:100A5B000811D0E0120811020861791080027908A0
:100A6B00C208C20A8008D2D5790A8004790AC2D595
:100A7B00E555047002F555E4FAFDFEFF1207EDFC97
:100A8B007B082003131207EDFD7B1030020A1207BF
:100A9B00EDFE1207EDFF7B20EC3382D592D5501380
:100AAB00C3E43002069FFFE49EFEE42003039DFD9A
:100ABB00E49CFCE4CBF8C203EC700CCFCECDCCE8BD
:100ACB0024F8F870F38017C3EF33FFEE33FEED33EA
:100ADB00FDEC33FCEB33FB994002FB0FD8E9EB3019
:100AEB000305F8D0E0C448B203C0E00AEC4D4E4F0A
:100AFB0078207B0070C2EAB5550040BCC0E0120BF9
:100B0B0088D0F0D0E0200304C4C0E0C4B203C0F02E
:100B1B00120811D0F0D5F0EB0208611206D608FED0
:100B2B00530A655808CF4C08CB420A694F0A7144E7
:100B3B000A714908E4430A775509A8460A0645098C
:100B4B0072470C3D5008D32D08D72E08FA2B08DB23
:100B5B002308F8200C262A089348000008F2E555D4
:100B6B00B4FF037555061207EDFC1207EDFD1207D6
:100B7B00EDFE1207EDFF784B02039A790AA2D520FE
:100B8B000514300709B910020404B9080104A2D5F1
:100B9B002008025001042004689204B5540050341C
:100BAB00C0E07F203005197F30A204720872075015
:100BBB000F120BDFC204C208C207C20A7F30800FBC
:100BCB00300703E9C0E0120828300703D0E0F9D062
:100BDB00E0B554CC3007177F30B9100C1208287FC2
:100BEB00583006077F788003B908031208283004B1
:100BFB00057F2D0208287F20200AF87F2B2008F381
:100C0B0022920480CF7F00B407005005244BF8E6F6
:100C1B00FF22286E756C6C2900D2031207ED30038E
:100C2B00F8C203785430D50108F60208932D5043CF
:100C3B0049581207ED2403B405004001E4900C3829
:100C4B0093120819743A120819D205755404020A42
:100C5B00657DF47C017F707E0312153B1217277B99
:100C6B00FF7A1779687D017F011215907BFF7A1748
:100C7B0079737D017F021215907FE87E031216FDBA
:100C8B007F021216377BFF7A1779847D017F011261
:100C9B0015907BFF7A17798F7D017F021215907F5C
:100CAB00E87E031216FD7BFF7A17799A7D017F018F
:100CBB001215907BFF7A1779A57D017F0212159093
:100CCB007FE87E031216FD7F011217541216D1D244
:100CDB00021216B97B007A00796A1215BD8F26C2F3
:100CEB00011212518F25E52560EA208C177E00D367
:100CFB00940A74809480500CE4F56AF526EF640A2C
:100D0B007002D201D28CD3E525940E74809480406E
:100D1B0003020E15C3E526941074809480400302E1
:100D2B000DD1C3E525940B748094805003020E0201
:100D3B00745A2525F8E6FF642B600AEF642A6005D8
:100D4B00EF642F7058AF26EF60356401700974693A
:100D5B002FF8E6642D6028D3E526940174809480E7
:100D6B00401F74692526F8E6B42D1674682526F8FD
:100D7B00E6FF642B6009EF642A6004EFB42F028056
:100D8B004574692526F8E6FF642B6062EF642D60DD
:100D9B005DEF642A6058EF642F705C8051745A25A4
:100DAB0025F8E6642D7050E52664017027746925DB
:100DBB0026F8E6FF642B600EEF642D6009EF642AC2
:100DCB006004EFB42F0E7DE87C037FB87E01121513
:100DDB003B020CDFD3E52694017480948040187499
:100DEB00692526F8E6FF642B6004EFB42D097B0020
:100DFB007A00796A1215E72001107B007A00796A74
:100E0B00745A2525F8E6FD12165AE525640F70086D
:100E1B00FB7A00796A1215E7E52564107077E56AAD
:100E2B007003020CDF7B007A00796A1215BD7469BE
:100E3B002FF8E6FF3395E0FEC3EF9430EE64809419
:100E4B0080500B7B007A00796A1215E780D77B0004
:100E5B007A00796A1217128F2A8E298D288C2775A2
:100E6B003FFF7540177541B08F458E448D438C42C3
:100E7B007B007A00792B1208497B007A00792B7D55
:100E8B00107C001214667B007A00792B7D017F02A7
:100E9B00121590C28C7F011216377B007A00796A8B
:100EAB007D017F01121590E525640A7056D3E52666
:100EBB00940074809480404B74692526F8E6642F67
:100ECB007041C28C7BFF7A1779B37D017F021215BB
:100EDB00907DE87C037FB87E0112153B7B007A0086
:100EEB00796A1215E77F011216377B007A00796A4F
:100EFB007D017F011215907F02121637D28CD20220
:100F0B001216B9D2021216B97DFA7C007F707E03DD
:100F1B0012153B020CDF8B3C8A3D893EE4F543F511
:100F2B0047F546F545F544754802F542C3E542944D
:100F3B00147480948040030210BBAB3CAA3DA93EC5
:100F4B00854282758300120526FF3395E0FEC3EFC1
:100F5B009430EE648094804054D3EF9439EE6480E7
:100F6B0094805049854282758300120526FF339584
:100F7B00E0FEEF24D0FDEE34FFFC1202B1C004C042
:100F8B0005C006C007E4FFFE7D207C41AB47AA46A7
:100F9B00A945A844120106D003D002D001D00012FB
:100FAB0000158F478E468D458C440210B6AB3FAA79
:100FBB0040A94175F005E543A4F58285F083E5482A
:100FCB00120587AF47AE46AD45AC44C006C007E53A
:100FDB004375F005A4AB3F2541F9E54035F0FA9098
:100FEB000001D007D00612064E0543AB3CAA3DA923
:100FFB003E854282758300120526702FAB3FAA40B7
:10100B00A94175F005E543A4F58285F083740112BF
:10101B000587E54375F005A429F9EA35F0FA900048
:10102B00011206A2000000000210BBAB3CAA3DA9B6
:10103B003E854282758300120526FFB42B047F0286
:10104B00805EEFB42D047F038056AB3CAA3DA93ED6
:10105B00854282758300120526B42A138542827558
:10106B008300A3120526B42D0605427F058031AB04
:10107B003CAA3DA93E854282758300120526FFB42A
:10108B002F14E542F582758300A3120526B42D06B5
:10109B0005427F07800AEFB42A047F0480027F0693
:1010AB008F48E4F547F546F545F5440542020F3701
:1010BB00AB3FAA40A941228B3C8A3D893EE4F542D5
:1010CB00F541F540F53FF543C3E543941474809423
:1010DB008040030211CFAB3CAA3DA93E75F005E55C
:1010EB0043A4F58285F083120526FF640170030289
:1010FB0011CFEF70030211CA8544478545488546D9
:10110B0049E54375F005A429F9EA35F0FA8B44F566
:10111B0045894612050DFF7E00C3940474809480AC
:10112B0050030211CAEF64056005EF64077022AB30
:10113B0047AA48A94912050D24FE7F0070027F01C2
:10114B00EF2402120575AB44AA45A94674FF12059C
:10115B0053AB44AA45A94612050D640470179000C1
:10116B000112061EAB47AA48A9499000011206724C
:10117B00120106802BAB44AA45A94690000112062A
:10118B0072C000C001C002C003AB47AA48A9499076
:10119B00000112061ED003D002D001D00012020FA4
:1011AB00AB47AA48A94990000112064EAB44AA4589
:1011BB00A946E4120575854744854845854946058A
:1011CB00430210D3E4F543C3E54394147480948035
:1011DB00506BAB3CAA3DA93E75F005E543A4F582E7
:1011EB0085F083120526FF64016052EF604BE543E7
:1011FB0075F005A429F9EA35F0FA8B44F5458946D3
:10120B0012050D6402AB44701390000112061EAB65
:10121B0042AA41A940A83F1200158015AA45A9462C
:10122B00900001120672AF42AE41AD40AC3F1200CE
:10123B00118F428E418D408C3F0543808AAF42AE69
:10124B0041AD40AC3F22E4F53C7590FFC293209733
:10125B00137F14FE1216FD3097FD7F147E001216BD
:10126B00FD753C012096147F147E001216FD3096FE
:10127B00FD7F147E001216FD753C042095147F141F
:10128B007E001216FD3095FD7F147E001216FD7543
:10129B003C072094147F147E001216FD3094FD7FC2
:1012AB00147E001216FD753C0F7590FFC2922097AD
:1012BB00147F147E001216FD3097FD7F147E0012F2
:1012CB0016FD753C022096147F147E001216FD301D
:1012DB0096FD7F147E001216FD753C052095147F3C
:1012EB00147E001216FD3095FD7F147E001216FD44
:1012FB00753C082094147F147E001216FD3094FD6B
:10130B007F147E001216FD753C0A7590FFC291206A
:10131B0097147F147E001216FD3097FD7F147E000C
:10132B001216FD753C032096147F147E001216FDD9
:10133B003096FD7F147E001216FD753C0620951429
:10134B007F147E001216FD3095FD7F147E00121661
:10135B00FD753C092094147F147E001216FD309409
:10136B00FD7F147E001216FD753C107590FFC29028
:10137B002097147F147E001216FD3097FD7F147E8C
:10138B00001216FD753C0B2096147F147E0012166E
:10139B00FD3096FD7F147E001216FD753C0C2095DA
:1013AB00147F147E001216FD3095FD7F147E001203
:1013BB0016FD753C0D2094147F147E001216FD3023
:1013CB0094FD7F147E001216FD753C0EAF3C227807
:1013DB007FE4F6D8FD75817A021421020C5CE4934C
:1013EB00A3F8E493A34003F68001F208DFF480290D
:1013FB00E493A3F85407240CC8C333C4540F4420FC
:10140B00C8834004F456800146F6DFE4800B0102EA
:10141B000408102040809016E8E47E019360BCA382
:10142B00FF543F30E509541FFEE493A360010ECF38
:10143B0054C025E060A840B8E493A3FAE493A3F862
:10144B00E493A3C8C582C8CAC583CAF0A3C8C58222
:10145B00C8CAC583CADFE9DEE780BE8B3C8A3D89FB
:10146B003E1215BD8E3F8F40AB3CAA3DA93E8D82EF
:10147B008C83E4120587ED24FFFFEC34FFFEE5407F
:10148B0024FFF542E53F34FFF541C3EE64809480C1
:10149B004039E541648094804012AB3CAA3DA93EA3
:1014AB00854282854183120526FD80027D20AB3C5F
:1014BB00AA3DA93E8F828E83ED120587EF1F700127
:1014CB001EE542154270C3154180BFAB3CAA3DA936
:1014DB003E22C0E0C0F0C083C082C0D075D000C037
:1014EB0000C001C002C003C004C005C006C0077520
:1014FB008A18758CFC0559E55970020558C394F48C
:10150B00E5589401400F755800755900B20BA20BAA
:10151B0092021216B9D007D006D005D004D003D052
:10152B0002D001D000D0D0D082D083D0F0D0E03226
:10153B008C3C8D3DAD07AC06E41202B1A804A905A5
:10154B00AA06AB077F007E507DC37C4712020F12A9
:10155B0002EAAB07AA06AE3CAF3DAD03AC021205E7
:10156B00BB7C007D641205A9AD07AC06900000C3DF
:10157B00E5829DE5839C500CB2B6AF03AE02121709
:10158B004AA380EB228B3C8A3D893EA28C9202C2FD
:10159B008C12169BE4FDAB3CAA3DA93E8D82758354
:1015AB0000120526FF60061216910D80E9A2029229
:1015BB008C228B438A448945E4FFFEAB43AA44A9A2
:1015CB00458F828E831205267001220FBF00010EFC
:1015DB00E4B507E7EEB401E3E4FEFF228B3C8A3D62
:1015EB00893E1215BDEF4E7007AB3CAA3DA93E22BA
:1015FB00AB3CAA3DA93E74FF2FF58274FF3EF583E9
:10160B00E412058722EFB40A07740D12161B740A35
:10161B00309811A899B8130CC2983098FDA899C2AC
:10162B0098B811F63099FDC299F59922EFFD7C001F
:10163B00C39401748094804015D3ED94027480940C
:10164B0080500B7BFF7A1779BA7D01121590228B94
:10165B003C8A3D893E8D3F1215BDAB3CAA3DA93E50
:10166B008F828E83E53F1205878F828E83A3E402E0
:10167B000587CFCDCFCECCCE1205BB7C007D0A1219
:10168B0005BBED2430FFD28712173BC285021741F1
:10169B00AE07EEFB7A0064017004ED148009EB6475
:1016AB00024A7009ED243F4480FF121754227B003D
:1016BB007A00796A1215BDEF04FD7B203002027BA4
:1016CB005F7F0102175E5389F0438901758A187594
:1016DB008CFCC28DD28CD2A9D2AFC2B922105A20A7
:1016EB00313233343536373839302B2D2A2F00C170
:1016FB008B00EF1FAC0670011E4C600A7D027CC78D
:10170B00DCFEDDFC80EC22753F017540007541006D
:10171B00120F217B017A0079000210C27F38121759
:10172B00547F0C1217547F061217547F0102175463
:10173B00C2868FA0D2857F027EEFDEFEDFFC22EF1A
:10174B001F70011E144E70F722C28712173BC28501
:10175B00021741AC0312169BAF0402169143616C46
:10176B0063756C61746F72002020202B202D202A52
:10177B00202F203D202020200031393030313030D7
:10178B003332340057616E674368656E59690031B7
:10179B003930303130303332370058756548616E2F
:1017AB0020202020002567004572726F72200020D8
:1017BB00202020202020202020202020202020003E
:00000001FF
