:0F04B800435342206F6620434D205465737400F8
:1003C4001204101204C7E4F508E5089004B893FF7A
:1003D40060097D01120433050880EE1204A812029C
:0603E400AF1204E980F5F0
:10041000E4FD7F38120433E4FD7F01120433E4FD70
:100420007F06120433E4FD7F0C120433E4FD7F8069
:0304300002043390
:040391007F017E006A
:10039500D3EF9400EE940040257DC7EDD39400740F
:1003A50080948040127C01ECD3940074809480404A
:0E03B500031C80F31D80E4EF1F70D51E80D264
:0103C3002217
:10049300D287C2A6D2A5D2A7308709C2A7120391D9
:0504A300D2A780F42245
:10043300AB05AA07120493EB6004D2A68002C2A6FE
:10044300C2A58A80120391D2A77F057E001203956D
:03045300C2A7221B
:10047800AB077580FF120493EB6004D2A68002C21A
:0B048800A6D2A5120391D2A7AF8022DC
:0704F200E4FD7F80020433EA
:0704F900E4FD7FC0020433A3
:0904E000EF2480FFE4FD02043367
:10045600204F766572666C6F772053686F77202021
:100466000020434D20202020202020202020202056
:02047600200064
:05050000007F07DFFE93
:0105050022D3
:0804E9007FC37E8ADEFEDFFC0A
:0104F10022E8
:0802AF008F0C8E0B8D0A8C09E7
:1002B7001204F9E4FFFE7D2F7C44AB0CAA0BA90ABC
:1002C700A8091201145006E5126401701AE4F51228
:1002D700F50DE50D90045693FF70030203907D0121
:1002E700120433050D80EBAF0CAE0BAD0AAC09124F
:1002F70001CBAB07AA067C007D6412024C8F0E7CF3
:10030700007D0AAF03AE0212024C7C007D0A120286
:100317004C8D0FAF0CAE0BAD0AAC091201CB7C00B4
:100327007D0A12024C8D10E4FFFE7D207C41AB0C50
:10033700AA0BA90AA80912000E1201CB7C007D0A9C
:1003470012024C8D11E50E2430FF7D01120433E5B6
:100357000F2430FF7D01120433E5102430FF7D01A7
:100367001204337D017F2E120433E5112430FF7D03
:1003770001120433E4F50DE50D90046793FF60095E
:090387007D01120433050D80EE26
:01039000224A
:1003EA00AF8CEFFEAD8A7C00E42DFFEC3EFEAD073C
:1003FA00FCE41201927B967A43798B783C12000EC8
:05040A00E4F58CF58A09
:01040F0022CA
:03000B00020506E5
:040506007512013237
:08000300D291120500C2912206
:0D04C700758901E4F58CF58AD2AFD2A92227
:1004A8001200033090FDD28C2090FDC28C0203EA2A
:10000E00EC4D6011E8497017ED33EC3304600DE4EC
:10001E00FCFFFEFD22E933E8330470F802023712CA
:10002E00020258046009E4CC2481500628500902CB
:10003E00024128400302023EC0E0EB4A7044B98000
:10004E0006D0E0FB02022DEF4E701CBD8008EBFFC8
:10005E00EAFEE9FD80EBE98DF0A4FEE5F00200F783
:10006E00E9CDF9EAFEEBFFEF89F0A4FCE5F0CE89CD
:10007E00F0A42EFFE435F0CD89F0A42DFEE435F08A
:10008E008067EF4E7005BD80D780C3EF8BF0A4ACB8
:10009E00F0EE8BF0A42CFCE435F0F8EF8AF0A42CF3
:1000AE00E5F038FCE433CB8DF0A42CFCE5F03BF806
:1000BE00EE8AF0A42CFCE5F038F8E433CF89F0A4F6
:1000CE002CFCE5F038CF3400CE89F0A42FFFE5F0FC
:1000DE003EFEE433C98DF0A42EFEE5F039CD8AF054
:1000EE00A42FFFE5F03EFEE43DFD33D0E0FB5007CC
:1000FE000BBB000F020241EC2CFCEF33FFEE33FE84
:06010E00ED33FD020219B1
:1001140074F8CC6480CCC86480C8F58204604FC392
:10012400EB9FF5F0EA9E42F0E99D42F0E89C45F031
:10013400603C501DE5825FFFE582D313CB5BCBF4BB
:100144002B5582FB50280ABA002409B900200880E4
:100154001DE5825BFBE582D313CF5FCFF4C3132F7E
:100164005582FF50090EBE00050DBD00010CC3EB06
:100174009FF5F0EA9E42F0E99D42F0E89C45F0606C
:0901840007CC4820E701B3EC228E
:10018D0075F020800E75F010800575F0087D007EED
:10019D00007F003392D530D5031202A1EC3340100D
:1001AD00EF33FFEE33FEED33FDEC33FCD5F0ED22F6
:0E01BD00E5F0247EA2D513CC92E7CDCEFF2232
:1001CB00EDD2E7CD33EC3392D524814006E4FFFE2C
:1001DB00FDFC22FCE4CFCECDCC24E0501174FF808B
:1001EB00EDC3CC13CCCD13CDCE13CECF13CF047028
:0701FB00F030D5DE0202A185
:10020200E9D2E7C933E833F892D5EDD2E7CD33EC42
:0702120033FC5002B2D522BB
:10021900EC30E7100FBF000C0EBE00080DBD000446
:100229000BEB6014A2D5EB13FCED92E7FD2274FFF2
:10023900FCFDFEFF22E480F8A2D574FF13FC7D804B
:03024900E480EF5F
:030000000204D423
:0C04D400787FE4F6D8FD7581120203C4A5
:10024C00BC000BBE0029EF8DF084FFADF022E4CC96
:10025C00F875F008EF2FFFEE33FEEC33FCEE9DEC5F
:10026C00984005FCEE9DFE0FD5F0E9E4CEFD22EDA5
:10027C00F8F5F0EE8420D21CFEADF075F008EF2FEF
:10028C00FFED33FD4007985006D5F0F222C398FDE0
:05029C000FD5F0EA227D
:0E02A100C3E49FFFE49EFEE49DFDE49CFC226E
:00000001FF
