:100BF20076616C7565203D2025640A0D00566F6C88
:0F0C0200745F56616C75652025660A0D0A0D003A
:100C4400758920758DFDD28ED29EC29FD29CD29979
:010C5400227D
:100B6200120C44D2AF120C61E4FD7F8B7E03120A99
:100B7200B87FE87E03120C11E4FD7F051209E98EAD
:100B8200228F237BFF7A0B79F28522318523321261
:100B920005DCAC22AD23E41201AE7BA67A9B79C4BC
:100BA2007840120003E4FBFAF9784712010C8F0B2C
:100BB2008E0A8D098C087BFF7A0B79FF8F348E3376
:090BC2008D328C311205DC80A893
:100C2F0074656D702025640A0D0074656D70202544
:050C3F0023580A0D001E
:100C1100D3EF9400EE940040147D6E7C00ED1D70C6
:0D0C2100011CED4C70F7EF1F70E61E80E324
:010C2E0022A3
:070C6100D290D291C2922251
:100AB800ED640170034306808E288F298E268F27C8
:100AC800C291C2907F017E00120C11E4FBEBC3942B
:100AD80020748094805058E52654806004D2928017
:100AE80002C292AF29AE28AD27AC26780112053193
:100AF8008F298E288D278C2600D29100C29100AFB5
:100B08002DAE2CAD2BAC2A78011205318F2D8E2CF1
:100B18008D2B8C2AE59030E312E52D4401F52DE567
:100B28002CF52CE52BF52BE52AF52A000B809ED217
:100B380090C291C292C2937BFF7A0C792F852A3199
:100B4800852B321205DC7BFF7A0C7939852C3185AF
:090B58002D321205DCAE2AAF2B90
:010B61002271
:0209E900AC0759
:1009EB00E4F524F5257F8BFEECB40800505E900AED
:1009FB0000F8282873020A18020A1A020A23020AAC
:100A0B002C020A35020A3E020A47020A50803DE4D4
:100A1B002FFF74103EFE8034E42FFF74203EFE80C7
:100A2B002BE42FFF74303EFE8022E42FFF74403EF8
:100A3B00FE8019E42FFF74503EFE8010E42FFF74EC
:100A4B00603EFE8007E42FFF74703EFEEDB408009D
:100A5B00504C900A64F8282873020A7C020A7E0222
:100A6B000A87020A90020A99020AA2020AA2020A41
:100A7B00A2802BE42FFF74023EFE8022E42FFF7432
:100A8B00043EFE8019E42FFF74063EFE8010E42F17
:100A9B00FF74083EFE8007E42FFF740A3EFEC290EF
:0C0AAB007D01120AB88E248F2500D29025
:010AB700221C
:10000300EC4D6011E8497017ED33EC3304600DE4F7
:10001300FCFFFEFD22E933E8330470F802021C12F0
:1000230001E758046009E4CC2481500628500902F2
:100033000226284003020223C0E0EB4A7044B98041
:1000430006D0E0FB020212EF4E701CBD8008EBFFEE
:10005300EAFEE9FD80EBE98DF0A4FEE5F00200EC99
:10006300E9CDF9EAFEEBFFEF89F0A4FCE5F0CE89D8
:10007300F0A42EFFE435F0CD89F0A42DFEE435F095
:100083008067EF4E7005BD80D780C3EF8BF0A4ACC3
:10009300F0EE8BF0A42CFCE435F0F8EF8AF0A42CFE
:1000A300E5F038FCE433CB8DF0A42CFCE5F03BF811
:1000B300EE8AF0A42CFCE5F038F8E433CF89F0A401
:1000C3002CFCE5F038CF3400CE89F0A42FFFE5F007
:1000D3003EFEE433C98DF0A42EFEE5F039CD8AF05F
:1000E300A42FFFE5F03EFEE43DFD33D0E0FB5007D7
:1000F3000BBB000F020226EC2CFCEF33FFEE33FEAA
:06010300ED33FD0201FED8
:10010900020226EC5D046005E85904700302021C32
:100119001201E7580460F6EC4860F2EC7004FDFE49
:10012900FF22C860DB2481C85009C39860025006C9
:100139000202239850CAF582E9294B4A7005AB821D
:1001490002021275F0007C1A7880C3EF9BEE9AEDDB
:1001590099400DC3EF9BFFEE9AFEED99FDE842F041
:10016900DC23ACF0D0E0FFD0E0FED0E0FDAB822094
:10017900E7101BEB60BAEC2CFCEF33FFEE33FEED1E
:1001890033FD0201FEE803F830E705C0F075F00021
:10019900EF2FFFEE33FEED33FD40B830E7C280AA02
:1001A90075F020800E75F010800575F0087D007ED1
:1001B900007F003392D530D503120523EC3340106C
:1001C900EF33FFEE33FEED33FDEC33FCD5F0ED22DA
:0E01D900E5F0247EA2D513CC92E7CDCEFF2216
:10057A00E5452431F8E6054522782E300702783120
:10058A00E475F0011205440204CB2000EB7F2ED261
:10059A00008018EF540F2490D43440D4FF30040B59
:1005AA00EF24BFB41A0050032461FFE54660021528
:1005BA00460549E5497002054830070D782EE4756D
:1005CA00F001120544EF020511020BCB7403D207A6
:1005DA008003E4C207F5458B2E8A2F8930E4F5465D
:1005EA00F548F549E54660077F201205B580F5759F
:1005FA0047FFC201C200C202C203C205C206C20844
:10060A00120583FF700D3007057F001205C6AF493A
:10061A00AE4822B4255FC2D5C204120583FF24D096
:10062A00B40A00501A75F00A784630D50508B6FFA4
:10063A000106C6A426F620D5047002D20380D92466
:10064A00CFB41A00EF5004C2E5D2040208B3D201B3
:10065A0080C6D20080C0D20280BCD2D580BAD20570
:10066A0080B47F201205B52002077401B546004008
:10067A00F112057AFF1205B50205EED208D20680FC
:10068A009512057AFB12057AFA12057AF94A4B7025
:10069A000679AA7A097BFF20022EE546602A7E00A7
:1006AA008E827583001204E460060EEE654770F0D0
:1006BA00C2D5EBC0E0EAC0E0E9C0E0EE120913D00F
:1006CA00E0F9D0E0FAD0E0FB1204CBFF60AAEBC05D
:1006DA00E0EAC0E0E9C0E01205B5D0E02401F9D0B3
:1006EA00E03400FAD0E0FBE5470460DCD547D98066
:1006FA0087D20280A21208F660F7E5477001041259
:10070A000231A947600DE547600914F54712099DB2
:10071A00EF60F3EA30E702F404C3995077EAF4256C
:10072A00470430E701E404F547800D1208F660C17A
:10073A00EA05472547120231EA7844F630E701E430
:10074A00254704D5470420050114120913E4C0E023
:10075A0012099D7844E6601320E70714F612059DF6
:10076A00802204F6D0E014C0E07F0012059DE54720
:10077A0060071205941547800B300503120594D0C3
:10078A00E00205EED0E00480C51208F660A0E54755
:10079A00041202317844EAF6E547200502600104B2
:0507AA002404120913F4
:1007AF0074FF04C0E012099D12059DE54720050264
:1007BF006003120594D0E0B547E87F451205A7788E
:1007CF0044E67F2B30E7047F2DF404C0E01205B51B
:1007DF00D0E075F00A84C0F012059ED0E012059E9D
:1007EF000205EE791080027908C206C2088008D28D
:1007FF00D5790A8004790AC2D5E547047002F54716
:10080F00E4FAFDFEFF12057AFC7B082001131205A6
:10081F007AFD7B1030000A12057AFE12057AFF7BF3
:10082F0020EC3382D592D55013C3E43000069FFFDE
:10083F00E49EFEE42001039DFDE49CFCE4CBF8C2A2
:10084F0001EC700CCFCECDCCE824F8F870F3801704
:10085F00C3EF33FFEE33FEED33FDEC33FCEB33FB35
:10086F00994002FB0FD8E9EB300105F8D0E0C448FE
:10087F00B201C0E00AEC4D4E4F78207B0070C2EA07
:10088F00B5470040BCC0E0120915D0F0D0E0200100
:10089F0004C4C0E0C4B201C0F012059ED0F0D5F080
:1008AF00EB0205EE120554068B5307F258065C4C0B
:1008BF0006584207F64F07FE4407FE4906714308E4
:1008CF00045507354607934506FF4709CA5006608A
:1008DF002D06642E06872B06682306852009B32A6A
:1008EF000620480000067FE547B4FF037547061250
:1008FF00057AFC12057AFD12057AFE12057AFF7849
:10090F003D020260790AA2D5200314300509B910FF
:10091F00020404B9080104A2D520060250010420E4
:10092F0002689202B546005034C0E07F20300319B0
:10093F007F30A20272067205500F12096CC202C2FA
:10094F0006C205C2087F30800F300503E9C0E012F0
:10095F0005B5300503D0E0F9D0E0B546CC3005172A
:10096F007F30B9100C1205B57F583004077F78809F
:10097F0003B908031205B53002057F2D0205B57FB7
:10098F00202008F87F2B2006F322920280CF7F00D1
:10099F00B407005005243DF8E6FF22286E756C6CF5
:1009AF002900D20112057A3001F8C201784630D5FC
:1009BF000108F60206202D5043495812057A2403E8
:1009CF00B405004001E49009C5931205A6743A12CC
:0A09DF0005A6D2037546040207F2D4
:1001E700E9D2E7C933E833F892D5EDD2E7CD33EC5E
:0701F70033FC5002B2D522D7
:1001FE00EC30E7100FBF000C0EBE00080DBD000462
:10020E000BEB6014A2D5EB13FCED92E7FD2274FF0D
:10021E00FCFDFEFF22E480F8A2D574FF13FC7D8066
:03022E00E480EF7A
:10023100F920E72824F950037907E4F42402FB1894
:10024100DBFDE624FB5014E9600DE4F618E604F644
:0F025100B40A08E4F6D9F57401F60A22C2D522E0
:10026000ED33EC3392D5FA602AB4FF33EDC2E77B6D
:10027000FF60067A027985E4227A02798E20D5041D
:100280007A027989224E614E002B494E46002D4953
:100290004E4600E47A08F608DAFC7B00740722E890
:1002A000C0E0ECC0E0EDC0E0EEC0E0EFC0E0EA7519
:1002B000F010A4CAABF075F04DA42BFBE435F0FCB4
:1002C000EA2410FAEB34C5FBEC34D9FCEDC2E7FFAD
:1002D00075F056A4F42411C5F0F434C58FF0A42AA7
:1002E000E5F03BE43CF620E71412048BD0E0FFD0AD
:1002F000E0FED0E0FDD0E0FC12010C8014F404120A
:10030000048BD0E0FFD0E0FED0E0FDD0E0FC120096
:1003100003D0E0F8E6FAEDD2E7CD33EC332482FBEC
:10032000E4C3CF33CFCE33CECD33CD33DBF37B0736
:1003300075F00A846004F6081B0AE5F0F6088FF0F1
:10034000740AA4FFACF08EF0740AA42CFEACF0503A
:10035000010C8DF0740AA42CFDE435F0F608DBDE08
:03036000740722FD
:1003630002021CE86480F8E933E83360110460F0AA
:10037300ED33EC337009E8FCE9FDEAFEEBFF220400
:1003830060DED3EB9FEA9EE99DE8C2E78CF0C2F7FB
:1003930095F0400CE8CCF8E9CDF9EACEFAEBCFFBC7
:1003A3001201E785D0F05804700320D5B3E8047038
:1003B300075002B2D502022692D5EC0460F7E4CCD2
:1003C300C0E0C398F8603B94186008400DD0E0FB90
:1003D3000201FEE4FBFAC9FC8028E830E406E4C924
:1003E300FBE4CAFCE830E305E4C9CACBFCE85407E4
:1003F3006010F8C3E913F9EA13FAEB13FBEC13FCEF
:10040300D8F130F52FC3E49CFCEF9BFFEE9AFEED91
:1004130099FDD0E0FBEF4E4D4C701222DB0302023C
:1004230023EC2CFCEF33FFEE33FEED33FDED30E731
:10043300EB0201FEEF2BFFEE3AFEED39FDD0E0FBC0
:1004430050130BBB0003020226ED13FDEE13FEEF68
:0804530013FFEC13FC0201FE93
:10045B003F8000004120000042C80000447A0000A9
:10046B00461C400047C35000497424004B1896802B
:10047B004CBEBC205A0E1BCA6753C21C749DC5AE22
:10048B00FB60065407601C23231204B9EB5438603D
:10049B00091204A51204B4120003ECF8EDF9EEFAFC
:1004AB00EFCB22EB1204B480F1543803241C9004DC
:1004BB005BFE93FC0EEE93FD0EEE930ECE93FF229E
:03000000020C559A
:0C0C5500787FE4F6D8FD758149020B623F
:1004CB00BB010689828A83E0225002E722BBFE022F
:0904DB00E32289828A83E4932262
:1004E400BB010CE58229F582E5833AF583E02250CD
:1004F40006E92582F8E622BBFE06E92582F8E22217
:0D050400E58229F582E5833AF583E4932230
:10051100BB010689828A83F0225002F722BBFE01C9
:02052100F322C3
:0E052300C3E49FFFE49EFEE49DFDE49CFC22E9
:10053100E8600FEFC333FFEE33FEED33FDEC33FC28
:03054100D8F122CC
:10054400FAE6FB0808E6F925F0F618E6CA3AF622B8
:10055400D083D082F8E4937012740193700DA3A336
:1005640093F8740193F5828883E47374029368604A
:06057400EFA3A3A380DF4A
:100BCB00EFB40A07740D120BD6740A309811A8995A
:100BDB00B8130CC2983098FDA899C298B811F6308A
:070BEB0099FDC299F5992262
:00000001FF
