:0A0000000210B1758A18758CFC22FD
:10000B00021314EC4D6011E8497017ED33EC330417
:10001B00600DE4FCFFFEFD22E933E8330470F802C7
:10002B00025E12022958046009E4CC248150062890
:10003B005009020268284003020265C0E0EB4A70D7
:10004B0044B98006D0E0FB020254EF4E701CBD8019
:10005B0008EBFFEAFEE9FD80EBE98DF0A4FEE5F08D
:10006B000200F7E9CDF9EAFEEBFFEF89F0A4FCE51E
:10007B00F0CE89F0A42EFFE435F0CD89F0A42DFE4F
:10008B00E435F08067EF4E7005BD80D780C3EF8BF2
:10009B00F0A4ACF0EE8BF0A42CFCE435F0F8EF8A76
:1000AB00F0A42CE5F038FCE433CB8DF0A42CFCE56C
:1000BB00F03BF8EE8AF0A42CFCE5F038F8E433CFF3
:1000CB0089F0A42CFCE5F038CF3400CE89F0A42FB6
:1000DB00FFE5F03EFEE433C98DF0A42EFEE5F039CA
:1000EB00CD8AF0A42FFFE5F03EFEE43DFD33D0E0DA
:1000FB00FB50070BBB000F020268EC2CFCEF33FF2D
:10010B00EE33FEED33FD020240020268EC5D04604B
:10011B0005E85904700302025E120229580460F6C6
:10012B00EC4860F2EC7004FDFEFF22C860DB24811A
:10013B00C85009C398600250060202659850CAF570
:10014B0082E9294B4A7005AB8202025475F0007CA0
:10015B001A7880C3EF9BEE9AED99400DC3EF9BFF8E
:10016B00EE9AFEED99FDE842F0DC23ACF0D0E0FF17
:10017B00D0E0FED0E0FDAB8220E7101BEB60BAECC9
:10018B002CFCEF33FFEE33FEED33FD020240E803B0
:10019B00F830E705C0F075F000EF2FFFEE33FEED02
:1001AB0033FD40B830E7C280AA75F020800E75F0A1
:1001BB0010800575F0087D007E007F003392D530EE
:1001CB00D50312071CEC334010EF33FFEE33FEED7B
:1001DB0033FDEC33FCD5F0ED22E5F0247EA2D513F4
:1001EB00CC92E7CDCEFF22EDD2E7CD33EC3392D5D7
:1001FB0024814006E4FFFEFDFC22FCE4CFCECDCCF7
:10020B0024E0501174FF80EDC3CC13CCCD13CDCEB5
:10021B0013CECF13CF0470F030D5DE02071CE9D21A
:10022B00E7C933E833F892D5EDD2E7CD33EC33FCA5
:10023B005002B2D522EC30E7100FBF000C0EBE00FF
:10024B00080DBD00040BEB6014A2D5EB13FCED9273
:10025B00E7FD2274FFFCFDFEFF22E480F8A2D574BB
:10026B00FF13FC7D80E480EFED33EC336010047002
:10027B000FED547F7005740292E022740422042265
:10028B00E42202025EE86480F8E933E8336011048B
:10029B0060F0ED33EC337009E8FCE9FDEAFEEBFFAF
:1002AB00220460DED3EB9FEA9EE99DE8C2E78CF067
:1002BB00C2F795F0400CE8CCF8E9CDF9EACEFAEBB1
:1002CB00CFFB12022985D0F05804700320D5B3E878
:1002DB000470075002B2D502026892D5EC0460F7A5
:1002EB00E4CCC0E0C398F8603B94186008400DD094
:1002FB00E0FB020240E4FBFAC9FC8028E830E4068C
:10030B00E4C9FBE4CAFCE830E305E4C9CACBFCE86A
:10031B0054076010F8C3E913F9EA13FAEB13FBEC7B
:10032B0013FCD8F130F52FC3E49CFCEF9BFFEE9A46
:10033B00FEED99FDD0E0FBEF4E4D4C701222DB032E
:10034B00020265EC2CFCEF33FFEE33FEED33FDEDDB
:10035B0030E7EB020240EF2BFFEE3AFEED39FDD01A
:10036B00E0FB50130BBB0003020268ED13FDEE1311
:10037B00FEEF13FFEC13FC02024074F8CC6480CC4C
:10038B00C86480C8F58204604FC3EB9FF5F0EA9E0A
:10039B0042F0E99D42F0E89C45F0603C501DE5823F
:1003AB005FFFE582D313CB5BCBF42B5582FB50283D
:1003BB000ABA002409B9002008801DE5825BFBE521
:1003CB0082D313CF5FCFF4C3132F5582FF50090E87
:1003DB00BE00050DBD00010CC3EB9FF5F0EA9E427C
:1003EB00F0E99D42F0E89C45F06007CC4820E7011E
:1003FB00B3EC22ED33EC33600A047003BD8004ECE4
:10040B00B2E7FC22C0E0EFFBEEFAEDF9ECF81200DC
:10041B000ED0E0F5F0EFFBEEFAEDF9ECF812076B0E
:10042B00A3A3A3A3E8C0E0E9C0E0EAC0E0EBC0E00F
:10043B00C0F012000E12077BA3A3A3A3120294D049
:10044B00F0D0E0FBD0E0FAD0E0F9D0E0F8D5F0D472
:10045B0022E709F608DFFA8046E709F208DFFA809F
:10046B003E88828C83E709F0A3DFFA8032E309F63A
:10047B0008DFFA8078E309F208DFFA807088828C53
:10048B0083E309F0A3DFFA806489828A83E0A3F611
:10049B0008DFFA805889828A83E0A3F208DFFA80AA
:1004AB004C80D280FA80C680D4806980F280338001
:1004BB001080A680EA809A80A880DA80E280CA80C9
:1004CB003389828A83ECFAE493A3C8C582C8CCC56E
:1004DB0083CCF0A3C8C582C8CCC583CCDFE9DEE7EB
:1004EB00800D89828A83E493A3F608DFF9ECFAA9DD
:1004FB00F0EDFB2289828A83ECFAE0A3C8C582C89F
:10050B00CCC583CCF0A3C8C582C8CCC583CCDFEAED
:10051B00DEE880DB89828A83E493A3F208DFF9802B
:10052B00CC88F0EF60010E4E60C388F0ED2402B46E
:10053B00040050B9F582EB2402B4040050AF23231E
:10054B004582239004AC73BB010689828A83E02227
:10055B005002E722BBFE02E32289828A83E49322C4
:10056B00BB010CE58229F582E5833AF583E0225045
:10057B0006E92582F8E622BBFE06E92582F8E2228F
:10058B00E58229F582E5833AF583E49322EF8DF03A
:10059B00A4A8F0CF8CF0A428CE8DF0A42EFE22BC04
:1005AB00000BBE0029EF8DF084FFADF022E4CCF8F8
:1005BB0075F008EF2FFFEE33FEEC33FCEE9DEC985D
:1005CB004005FCEE9DFE0FD5F0E9E4CEFD22EDF8E3
:1005DB00F5F0EE8420D21CFEADF075F008EF2FFF86
:1005EB00ED33FD4007985006D5F0F222C398FD0F6E
:1005FB00D5F0EA22E88FF0A4CC8BF0A42CFCE98E8A
:10060B00F0A42CFC8AF0EDA42CFCEA8EF0A4CDA86F
:10061B00F08BF0A42DCC3825F0FDE98FF0A42CCD78
:10062B0035F0FCEB8EF0A4FEA9F0EB8FF0A4CFC558
:10063B00F02ECD39FEE43CFCEAA42DCE35F0FDE4E2
:10064B003CFC2275F008758200EF2FFFEE33FECDD8
:10065B0033CDCC33CCC58233C5829BED9AEC99E577
:10066B008298400CF582EE9BFEED9AFDEC99FC0F07
:10067B00D5F0D6E4CEFBE4CDFAE4CCF9A88222B8CF
:10068B0000C1B90059BA002DEC8BF084CFCECDFC54
:10069B00E5F0CBF97818EF2FFFEE33FEED33FDECE1
:1006AB0033FCEB33FB10D703994004EB99FB0FD8CA
:1006BB00E5E4F9FA227818EF2FFFEE33FEED33FD68
:1006CB00EC33FCC933C910D7059BE99A4007EC9B67
:1006DB00FCE99AF90FD8E0E4C9FAE4CCFB2275F0F7
:1006EB0010EF2FFFEE33FEED33FDCC33CCC833C808
:1006FB0010D7079BEC9AE899400AED9BFDEC9AFC0E
:10070B00E899F80FD5F0DAE4CDFBE4CCFAE4C8F9BC
:10071B0022C3E49FFFE49EFEE49DFDE49CFC22EBE0
:10072B009FF5F0EA9E42F0E99D42F0E89C45F022ED
:10073B00BB010DE58229F582E5833AF58302079724
:10074B005007E92582F802078BBBFE07E92582F8E3
:10075B000207A3E58229F582E5833AF58302076B4D
:10076B00E493FC740193FD740293FE740393FF22D4
:10077B00E493F8740193F9740293FA740393FB22D4
:10078B00E6FC08E6FD08E6FE08E6FF22E0FCA3E037
:10079B00FDA3E0FEA3E0FF22E2FC08E2FD08E2FE7F
:1007AB0008E2FF227DFA7C007F707E03120F961207
:1007BB0014007BFF7A1E79CD7D017F0112133A7BEA
:1007CB00FF7A1E79D57D017F0212133A7FE87E03F3
:1007DB001213D67554E875533A75524175517175AC
:1007EB00550A7D017F011212817BFF7A1E79E27D12
:1007FB00017F0212133A7FE87E031213D67554D28F
:10080B0075533A75524175517175550A7D017F01CA
:10081B001212817BFF7A1E79EF7D017F0212133A50
:10082B007FE87E031213D67F011214237BFF7A1EFF
:10083B0079FC7D017F0112133A7BFF7A1F79077DCB
:10084B00017F0212133A120B278F65E565700302C5
:10085B0009927BFF7A1F79127D0E7F0112133AAF3B
:10086B00657E00C3EF940174809480406BD3EF944A
:10087B000A748094805061C3E522940AE5219400A8
:10088B005040AF26AE25AD24AC23E47B0AFAF9F831
:10089B001205FF8F268E258D248C23E56575F00AB6
:1008AB0084E4FCFDFEE52625F0F526EE3525F52541
:1008BB00ED3524F524EC3523F5230522E5227002D2
:1008CB000521852654852553852452852351852260
:1008DB00557D017F02121281E565641460030209E4
:1008EB00737FE87E3A7D417C71AB26AA25A924A8AB
:1008FB0023C312072A60107FD27E3A7D417C71A8F8
:10090B0023C312072A7046E522640A4521703E7BF9
:10091B00FF7A1F79167D0E7F0112133A7DFA7C0048
:10092B007F707E03120F96E4F526F525F524F5234B
:10093B00F521F5227F0212135D7FE87E031213D699
:10094B0075640B7F011214231213BF801B7BFF7A7C
:10095B001F791A7D0E7F0112133A7DF47C017FB84B
:10096B007E01120F96756515E56564157019F526F0
:10097B00F525F524F523F521F5227BFF7A1F790761
:10098B007D017F0212133AE564640B7058C28C7BB5
:10099B00FF7A1F791E7D017F0112133A7BFF7A1FAD
:1009AB00792E7D017F0212133A12113D8F65E56599
:1009BB0060F77E00C394017480948040ECD3EF9475
:1009CB00027480948050E2E565147F0070027F0111
:1009DB00EF04FF12135D7F707E0312138085656435
:1009EB007F01121423E56464017067C28C7BFF7A6C
:1009FB001F793B7D017F0112133A12113D8F65E583
:100A0B006560F7E48F54F553F552F5517555027D3A
:100A1B000D7F02121281D3E565940A748094805085
:100A2B001DE56575F00A84740025F0F582E4340049
:100A3B00F583E0FF3395E0FE12123E121380E5655D
:100A4B00641270B6120B27EF60FA75640B7F0112FC
:100A5B001423E56464026003020851D28C7BFF7A95
:100A6B001F794B7D017F0112133A120B278F65E51E
:100A7B00657003020B1F78277C007D007BFF7A1FBC
:100A8B0079817E007F2712052CE4856554F553F59B
:100A9B0052F5517555027D0E7F01121281AF657EA5
:100AAB0000C3EF9401748094804025D3EF940374BA
:100ABB00809480501BE56514F54E75F00DA424272A
:100ACB00F9E4FAFB7D017F0212133AAF4E121025A7
:100ADB00E5656412700B75640B7F01121423020819
:100AEB0051E5656411702DB28C7BFF308C067A1F3B
:100AFB00796580047A1F79737D017F0112133A7D2A
:100B0B00FA7C007F707E03120F967FF47E01121326
:100B1B00D6020A687F0212135D020A68E4F560755B
:100B2B0090FFC2932097137F14FE1213D63097FDBC
:100B3B007F147E001213D67560012096147F147EED
:100B4B00001213D63096FD7F147E001213D67560FB
:100B5B00042095147F147E001213D63095FD7F145C
:100B6B007E001213D67560072094147F147E00123A
:100B7B0013D63094FD7F147E001213D67560117559
:100B8B0090FFC2922097147F147E001213D63097D9
:100B9B00FD7F147E001213D67560022096147F140D
:100BAB007E001213D63096FD7F147E001213D6757D
:100BBB0060052095147F147E001213D63095FD7FAF
:100BCB00147E001213D67560082094147F147E00D7
:100BDB001213D63094FD7F147E001213D675600A63
:100BEB007590FFC2912097147F147E001213D6309C
:100BFB0097FD7F147E001213D67560032096147F29
:100C0B00147E001213D63096FD7F147E001213D67D
:100C1B007560062095147F147E001213D63095FD57
:100C2B007F147E001213D67560092094147F147EF6
:100C3B00001213D63094FD7F147E001213D675600C
:100C4B00127590FFC2902097147F147E001213D65A
:100C5B003097FD7F147E001213D675601420961406
:100C6B007F147E001213D63096FD7F147E00121374
:100C7B00D67560152095147F147E001213D630950F
:100C8B00FD7F147E001213D67560162094147F140A
:100C9B007E001213D63094FD7F147E001213D6758E
:100CAB006017AF60223E9248DA3ECCCCCD3F2AAAE9
:100CBB00AB400000003F8000003F9837F03FB50489
:100CCB00F33FD744FC3E3172173EB172173F051507
:100CDB00913EDE5BD9D2008002C200EDD2E7F8CDA7
:100CEB0033EC3304700BBD800592D502026802020F
:100CFB005E40FBD31460F2F5F07C3FEE7A00C394B8
:100D0B0096C8948B40230AC89469C8941A401A0A4F
:100D1B00C89468C8941F40110AC8945AC8942540B7
:100D2B000805F07A00CDC2E7CDC0F08C608D618EE6
:100D3B00628F63EA2323C0E024C0F582E4340CF510
:100D4B008312077B120294ECC0E0EDC0E0EEC0E032
:100D5B00EFC0E012076BA860A961AA62AB63120235
:100D6B0090D0E0FBD0E0FAD0E0F9D0E0B2E7F81297
:100D7B0001178C608D618E628F63900CB0740312BF
:100D8B00040FA860A961AA62AB6312000ED0E060E9
:100D9B000F24CCF582E4340CF58312077B120294FA
:100DAB008C608D618E628F63D0E0C3947FFDE49481
:100DBB0000FC1201B97B187A727931783F12000E60
:100DCB00A860A961AA62AB6312029430000B7BD9B5
:100DDB007A5B79DE783E12000E228F598E588D5732
:100DEB008C56E4FFFE7D807C3FAB59AA58A957A8CF
:100DFB00561203857009AF59AE58AD57AC5622AF9A
:100E0B0059AE58AD57AC56120273FBAF5DAE5CAD2D
:100E1B005BAC5A120273FFBF0108E4FFFE7D807CBE
:100E2B003F22EF64046022EB6404601DBB0127E4E6
:100E3B00FFFEFDFCAB5DAA5CA95BA85A12038560A3
:100E4B00084006E4FFFEFDFC2274FFF55DF55CF542
:100E5B005BF55A020EF3E4F55EF55FFFFEFDFCABAE
:100E6B0059AA58A957A856120385504BAF5DAE5CD3
:100E7B00AD5BAC5A1201F28E5E8F5FAC5EAD5FEC78
:100E8B001201B9C8ECC8C9EDC9CAEECACBEFCBAFDA
:100E9B005DAE5CAD5BAC5A120290E4FBFAF9F81252
:100EAB00038570A5AF59AE58AD57AC561203FE8FE4
:100EBB00598E588D578C56AF59AE58AD57AC5612FC
:100ECB000CE4AB5DAA5CA95BA85A12000E120F349E
:100EDB008F5D8E5C8D5B8C5AE55F30E00B1203FEF1
:100EEB008F5D8E5C8D5B8C5AAF5DAE5CAD5BAC5A2F
:100EFB002233DA929E35B16011377FE5FE392184BA
:100F0B00893AAEC3FF3C1D955B3D6358473E75FD6B
:100F1B00F03F3172183F800000C2D5020268020216
:100F2B005EBD80FA50F3020265ED33EC330460F1E1
:100F3B007B3B7AAA79B8783F12000EED33EC3392F3
:100F4B00D5247B5011A2D570DB500BED44802404CB
:100F5B005004A2D580CEEFFBEEFAEDF9ECF81201BE
:100F6B00F2EFF582F404FC1201BE120294C08290DF
:100F7B000EFC740912041EED33CC33D0F092D52540
:100F8B00F0A2D57001C313CC13FD228E568F578C54
:100F9B00588D59208C511212EE8E5C8F5DAC5CAD6E
:100FAB005DAE58AF591205AA7C007D641205988E70
:100FBB005E8F5FE55745567002FF22E4F55AF55BED
:100FCB00C3E55B955FE55A955E504CB2B6AF5DAE2F
:100FDB005C12142D120B27EF60037F0022055BE5DB
:100FEB005B70DD055A80D9AF57AE561212EE8E5A92
:100FFB008F5BE55745567002FF22AF59AE5812145E
:10100B0037B2B6AF5BAE5A12142D120B27EF60033B
:10101B007F0022E51860EA7F0122E4F54FEF75F0BF
:10102B0003A4240BF8860308E6FA08E68B508A51D2
:10103B00F552AE08AF097C007D05120598AB50E563
:10104B00522FF9E5513EFA8B53F55489551205523F
:10105B00FF3395E0FEEF64C67002EEF46004E54FDB
:10106B006006E4F508F5092212123EC006C007AB74
:10107B0053AA54A95590000112073BE4FBFA797A65
:10108B00784412000E1201F2AD07AC06D007D00661
:10109B00120F96EF7F0070027F018F4F0509E50954
:1010AB0070900508808C787FE4F6D8FD7581650219
:1010BB0010F80207AFE493A3F8E493A34003F68080
:1010CB0001F208DFF48029E493A3F85407240CC839
:1010DB00C333C4540F4420C8834004F456800146E4
:1010EB00F6DFE4800B01020408102040809012BC54
:1010FB00E47E019360BCA3FF543F30E509541FFE0F
:10110B00E493A360010ECF54C025E060A840B8E47F
:10111B0093A3FAE493A3F8E493A3C8C582C8CAC502
:10112B0083CAF0A3C8C582C8CAC583CADFE9DEE794
:10113B0080BEE4FF7590FFC2932097010F209602AB
:10114B007F042095027F072094027F117590FFC2C8
:10115B00922097027F022096027F052095027F083E
:10116B002094027F0A7590FFC2912097027F032083
:10117B0096027F062095027F092094027F127590BC
:10118B00FFC2902097027F142096027F15209502B4
:10119B007F162094027F1722EF24FFFDEE34FFFC15
:1011AB007F0A8E578F588D828C83E4755D01F55CB9
:1011BB00F55BF55AF559C3E5599582E5836480F8DB
:1011CB007480985021AB5DAA5CA95BA85AAE57AF4F
:1011DB0058EE3395E0FDFC1205FF8F5D8E5C8D5B49
:1011EB008C5A055980D0AF5DAE5CAD5BAC5A22C258
:1011FB00D5E830E70FB2D5E4C39BFBE49AFAE49948
:10120B00F9E498F8EC30E717B2D512123012068ACF
:10121B00E4C39BFBE49AFAE499F9E498F88003128F
:10122B00068A30D50DE4C39FFFE49EFEE49DFDE4EA
:10123B009CFC22AD07AC06EC1201B9E4FBFA794039
:10124B0078411201178F5D8E5C8D5B8C5A7F007E0F
:10125B00007D007C40120DE5C004C005C006C00730
:10126B00AC1BAD1CE41201B9D003D002D001D000ED
:10127B0012000E0201F21213A1855556AF567E00D5
:10128B00D3EF94007480948040261211A3AB07AA6D
:10129B0006A905A804AF54AE53AD52AC5112068A41
:1012AB00E47B0AFAF9F812068A1213F2155680CC6F
:1012BB00220164004A0000F6F7F9FBFCFE00020372
:1012CB0005021D0000021B0370010A00020800004A
:1012DB0002140000090BFF1441FF1978FF1D970141
:1012EB00180100EF4E7003FEFF22AD07AC06E412AF
:1012FB0001B9A804A905AA06AB077F007E507DC3E0
:10130B007C471201171201F222C0E0C0D012000379
:10131B000517E51770020516C3951AE516951940C2
:10132B0009751600751700751801D0D0D0E0328BF7
:10133B004F8A5089511213A1E4FDAB4FAA50A9510A
:10134B008D8275830012056BFF60061213F60D80FC
:10135B00E922EFFD7C00C39401748094804015D387
:10136B00ED940274809480500B7BFF7A1F79A87DDB
:10137B000112133A228E4F8F501212EE8E518F5252
:10138B00E550454F600FB2B6AF52AE5112142D124D
:10139B00113DEF70EB22AE07EEFB7A006401700497
:1013AB00ED148009EB64024A7009ED243F4480FF81
:1013BB00121423225389F0438901758A18758CFC0A
:1013CB00C28DC28CD2A9D2AFC2B922EF1FAC0670AC
:1013DB00011E4C600A7D027CC7DCFEDDFC80EC222A
:1013EB00E4FAF9F81211FAEB2430FFD28712141435
:1013FB00C28502141A7F381214237F0C1214237F18
:10140B00061214237F01021423C2868FA0D2857F7C
:10141B00027EEFDEFEDFFC22C287121414C28502AD
:10142B00141AEF1F70011E144E70F7228E198F1AAB
:10143B00E4F518D28C22EF3EE1CAC1F23EE1CAC1FB
:10144B00F93EE1CAC1F23EE1CAC1EB3EE1CAC1EDD0
:10145B003E624DD3EF3E624DD3F93EE1CAC1F23E3F
:10146B00E1CAC1E63EE1CAC1ED3EE1CAC1F93EE1C6
:10147B00CAC1F23EE1CAC1E63EE1CAC1F93EE1CAC8
:10148B00C1ED3EE1CAC1F93EE1CAC1EF3EE1CAC1BD
:10149B00F23EE1CAC1F93EE1CAC1EF3EE1CAC1EB7E
:1014AB003EE1CAC1ED3E624DD3EF3E624DD3F93EF4
:1014BB00E1CAC1F23EE1CAC1E63EE1CAC1ED3EE17D
:1014CB00CAC1F93EE1CAC1F23EE1CAC1E63EE1CA78
:1014DB00C1F93F2978D5F23E624DD3F93F61CAC1BC
:1014EB00F93EE1CAC1F93EE1CAC1F23EE1CAC1F21D
:1014FB003F61CAC1F43EE1CAC1F63F61CAC1F93EC0
:10150B00E1CAC1F93EE1CAC1F23EE1CAC1F23EE114
:10151B00CAC1F43E624DD3F63E624DD3F43E624DEA
:10152B00D3F23E624DD3ED3F61CAC1F93EE1CAC170
:10153B00F93EE1CAC1F23EE1CAC1F23F61CAC1F450
:10154B003EE1CAC1F63F61CAC1F63F61CAC1ED3E79
:10155B00624DD3F73EE1CAC1F63E624DD3F43E6213
:10156B004DD3F73E624DD3F63E624DD3F43E624D02
:10157B00D3F23EE1CAC1EF3EE1CAC1F23EE1CAC1BC
:10158B00F23EE1CAC1F63EE1CAC1F73EE1CAC1F67D
:10159B003EE1CAC1F43EE1CAC1F23E624DD3F43E14
:1015AB00624DD3F63EE1CAC1F63EE1CAC1F63EE159
:1015BB00CAC1F63EE1CAC1F43E624DD3F63E624D5E
:1015CB00D3F43E624DD3F23E624DD3F23F61CAC1BA
:1015DB00ED3EE1CAC1F13EE1CAC1F23EE1CAC1F63C
:1015EB003EE1CAC1F73EE1CAC1F63EE1CAC1F43ED3
:1015FB00E1CAC1F23E624DD3F43E624DD3F63EE1F9
:10160B00CAC1F63EE1CAC1F63EE1CAC1F63EE1CA25
:10161B00C1F43E624DD3F63E624DD3F43E624DD3E0
:10162B00F23E624DD3F23F2978D5F13E624DD3F2B3
:10163B003E624DD3F23E624DD3F23E624DD3F23E4B
:10164B00624DD3F13E624DD3F23EE1CAC1F23EE1AF
:10165B00CAC1F23E624DD3F23E624DD3F23E624DB1
:10166B00D3F13E624DD3F23EE1CAC1F23EE1CAC1B3
:10167B00F23E624DD3F23E624DD3F23E624DD3F158
:10168B003E624DD3F23EE1CAC1F23F2978D5F23E1C
:10169B00624DD3F23E624DD3F93E624DD3F93EE13A
:1016AB00CAC1F93EE1CAC1F93E624DD3F93E624D62
:1016BB00D3F93E624DD3F93E624DD3F93EE1CAC137
:1016CB00F93EE1CAC1F93E624DD3F93E624DD3F901
:1016DB003E624DD3F93E624DD3F73E624DD3F73E9A
:1016EB00624DD3F640378D50F23E624DD3F23E62DF
:1016FB004DD3F13E624DD3F23E624DD3EF3EE1CA84
:10170B00C1F13EE1CAC1F23EE1CAC1F93EE1CAC133
:10171B00F73EE1CAC1F63EE1CAC1F23EE1CAC1F2EF
:10172B00400D2F1BF23E624DD3F23E624DD3F23E83
:10173B00624DD3F23E624DD3F63EE1CAC1F23EE1B9
:10174B00CAC1EF3EE1CAC1F13EE1CAC1F23EE1CAF4
:10175B00C1F93EE1CAC1F73EE1CAC1F63EE1CAC1D9
:10176B00F23EE1CAC1F4407E24DDF63EE1CAC1F48B
:10177B003EE1CAC1F73EE1CAC1F63F61CAC1F23EC2
:10178B00E1CAC1F93EE1CAC1FD3EE1CAC1FE3EE17B
:10179B00CAC1FD3EE1CAC1F93EE1CAC1F23F61CA0D
:1017AB00C1F23EE1CAC1FB3EE1CAC1FB3F61CAC106
:1017BB00FB3EE1CAC1F93EE1CAC1F93F61CAC1F9B9
:1017CB003EE1CAC1F73EE1CAC1F63EE1CAC1F43EF1
:1017DB00E1CAC1F63EE1CAC1F73EE1CAC1F6400D0E
:1017EB002F1BF63EE1CAC1F83EE1CAC1FA3EE1CA7F
:1017FB00C1F63F61CAC1F83EE1CAC1FA3EE1CAC1B6
:10180B00FD3EE1CAC1003EE1CAC1FD3EE1CAC1FED7
:10181B003EE1CAC1FE3FE1EB85FE3EE1CAC1FE3EA1
:10182B00E1CAC1F93EE1CAC1F93EE1CAC1FB3EE1E1
:10183B00CAC1F93EE1CAC1F73EE1CAC1F43EE1CAF1
:10184B00C1F63EE1CAC1F73EE1CAC1F93EE1CAC1E8
:10185B00FB3EE1CAC1F23EE1CAC1FB3F2978D5FD8F
:10186B003E624DD3FD3F61CAC1F63EE1CAC1F43EB3
:10187B00E1CAC1F73EE1CAC1F63F61CAC1F23EE11E
:10188B00CAC1F93EE1CAC1FD3EE1CAC1FE3EE1CA91
:10189B00C1FD3EE1CAC1F93EE1CAC1F23F61CAC115
:1018AB00F23EE1CAC1FB3EE1CAC1FB3F61CAC1FBCB
:1018BB003EE1CAC1F93EE1CAC1F93F61CAC1F93E75
:1018CB00E1CAC1F73EE1CAC1F63EE1CAC1F43EE14D
:1018DB00CAC1F63EE1CAC1F73EE1CAC1F6400D2FBF
:1018EB001BF63EE1CAC1F83EE1CAC1FA3EE1CAC1EC
:1018FB00F63F61CAC1F83EE1CAC1FA3EE1CAC1FD79
:10190B003EE1CAC1003EE1CAC1FD3EE1CAC1FE3E95
:10191B00E1CAC1FE3FE1EB85FE3EE1CAC1FE3EE1FD
:10192B00CAC1F93EE1CAC1F93EE1CAC1FB3EE1CAF7
:10193B00C1F93EE1CAC1F73EE1CAC1EF3EE1CAC1FE
:10194B00F13EE1CAC1F23EE1CAC1F43EE1CAC1F6C1
:10195B003EE1CAC1F43F8D2F1BED3E624DD3F63EE7
:10196B00E1CAC1F23FA978D5C600000000073E8E40
:10197B005604073E8E5604043E8E5604023E8E5687
:10198B0004043E8E5604023E8E5604003E8E5604D0
:10199B00FD3F8E353F023E8E5604043E8E560402AA
:1019AB003E8E5604003E8E5604FB3F8E353F023E64
:1019BB008E5604043E8E5604023E8E5604003E8E16
:1019CB005604FD3F0E5604003E8E5604023F0E5643
:1019DB0004FD3E8E5604043F8E353F003E8E56046A
:1019EB00023E8E5604043E8E5604073E8E56040766
:1019FB003E8E5604043E8E5604043F0E5604023FA0
:101A0B000E5604003F0E5604023E8E5604003E8EC8
:101A1B005604FD3F0E5604003E8E5604023E8E5673
:101A2B0004043F0E56040740671AA0023E8E56046C
:101A3B00003E8E5604FD3E8E5604003F0E560400AB
:101A4B003E8E5604FD3E8E5604003F0E5604003E5D
:101A5B008E5604FD3E8E5604003E8E5604FD3E8E81
:101A6B005604FB3F553F7D023E8E5604003E8E567C
:101A7B0004FD3E8E5604003F0E5604003E8E560467
:101A8B00FD3E8E5604003F0E5604003E8E56040457
:101A9B003E8E5604023E8E5604003E8E5604003F88
:101AAB00553F7DFB3E8E5604FD3E8E5604043E8E06
:101ABB005604043F0E5604043E8E5604023E8E56C8
:101ACB0004043F0E5604043E8E5604023E8E56040A
:101ADB00043E8E5604073F0E5604043F0E56040474
:101AEB003E8E5604043E8E5604043E8E5604023E31
:101AFB008E5604023E8E5604023E8E5604023E8ED5
:101B0B005604023E8E5604003E8E5604003E8E5600
:101B1B0004043F0E5604023F8E353F023E8E5604A0
:101B2B00003E8E5604FD3E8E5604003F0E560400BA
:101B3B003E8E5604FD3E8E5604003F0E5604003E6C
:101B4B008E5604FD3E8E5604003E8E5604FD3E8E90
:101B5B005604FB3F553F7DFB3E8E5604FD3E8E5695
:101B6B0004043E8E5604073F0E5604073E8E560461
:101B7B00043E8E5604073F0E5604073E8E56040451
:101B8B003E8E5604023E8E5604003E8E5604003F97
:101B9B00553F7D023E8E5604003E8E5604023E8E0D
:101BAB005604043E8E5604023E8E5604023E8E565A
:101BBB0004003E8E5604023F0E5604003E8E560421
:101BCB00FD3E8E5604023E8E5604003E8E56040099
:101BDB003E8E5604FD3E8E5604003F0E5604003ECC
:101BEB008E5604004078E560073E8E5604073E8E05
:101BFB005604043E8E5604023E8E5604043E8E5608
:101C0B0004FD3F0E5604023E8E5604043E8E5604CF
:101C1B00073E8E5604043E8E5604023FB1CAC107DE
:101C2B003E8E5604073E8E5604043E8E5604023EEC
:101C3B008E5604043E8E5604FB3F0E5604023E8E17
:101C4B005604043E8E5604073E8E5604023E8E56B4
:101C5B0004003FB1CAC1003E8E5604023E8E5604AC
:101C6B00043E8E5604073E8E5604093E8E560407DC
:101C7B003E8E5604043E8E5604073E8E5604043E9A
:101C8B008E5604043E8E5604023E8E5604023FB11D
:101C9B00CAC1003E8E5604023E8E5604003E8E563E
:101CAB0004023F0E5604003E8E5604023F0E5604AD
:101CBB00043F0E5604073E8E5604043E8E56040413
:101CCB003F8E353F073E8E5604073E8E5604043E2C
:101CDB008E5604023E8E5604043E8E5604FD3F0E75
:101CEB005604023E8E5604043E8E5604073E8E5614
:101CFB0004043E8E5604023FB1CAC1073E8E560401
:101D0B00073E8E5604043E8E5604023E8E56040445
:101D1B003E8E5604FB3F0E5604023E8E5604043E86
:101D2B008E5604073E8E5604023E8E5604003FB17B
:101D3B00CAC1003E8E5604023E8E5604043E8E5699
:101D4B0004073E8E5604093E8E5604073E8E5604FB
:101D5B00043E8E5604073E8E5604043E8E560404F3
:101D6B003E8E5604023E8E5604023F553F7DFB3E8F
:101D7B008E5604043F0E5604023E8E5604023F0E4E
:101D8B005604003FF8D4FEC600000000FC3E302095
:101D9B00C5FE3E3020C5FF3EB0A3D7FF3E3020C569
:101DAB00FF3EB0A3D7FF3F045A1DFE3EB0A3D7039F
:101DBB003E3020C5033F5CAC08083EB0A3D7083EBD
:101DCB003020C5083EB0A3D7063EB0A3D7043E30A3
:101DDB0020C5063EB0A3D7FF3E3020C5FF3F5CAC0D
:101DEB0008043EB0A3D7043E3020C5043EB0A3D7B1
:101DFB00043EB0A3D7043E3020C5033EB0A3D7FEAC
:101E0B003EB0A3D7033EB0A3D7013EB0A3D7013E4C
:101E1B00B0A3D7FF3E3020C5FE3EB0A3D7FF3F0493
:101E2B005A1DFF3F30A3D7FE3EB0A3D7FC3E302058
:101E3B00C5FE3E3020C5FF3EB0A3D7FF3E3020C5C8
:101E4B00FF3EB0A3D7FF3F045A1DFE3EB0A3D703FE
:101E5B003E3020C5033F5CAC08083EB0A3D7083E1C
:101E6B003020C5083EB0A3D7063EB0A3D7043E3002
:101E7B0020C5063EB0A3D7FF3E3020C5FF3F5CAC6C
:101E8B0008043EB0A3D7043E3020C5043EB0A3D710
:101E9B00043EB0A3D7043E3020C5033EB0A3D70108
:101EAB003EB0A3D7FF3EB0A3D7FE3EB0A3D7FE3EB6
:101EBB00B0A3D7FF3E3020C5FC3FF2D0E5C60000F3
:101ECB0000005069616E6F2026004D7573696320A9
:101EDB00506C61796572005A686F75526F6E67430B
:101EEB0068756E0054616E6758756554616F20207C
:101EFB000053747564656E7449443A005F5F5F5FAD
:101F0B005F5F5F5F5F5F00202020004F4B2000452D
:101F1B00525200312D4B6579626F617264204D6FA7
:101F2B00646500322D4D75736963204D6F646500D8
:101F3B003C4B6579626F617264204D6F64653E0046
:101F4B003C4D75736963204D6F64653E20202020E6
:101F5B0020202020202020202000496E74657272E2
:101F6B00757074204F6E2000496E746572727570B7
:101F7B0074204F66660051696E675469616E20204C
:101F8B0020200051696E674875614369202020004D
:101F9B005965517520202020202020200020202052
:0E1FAB00202020202020202020202020200088
:00000001FF
