:100D670059696E204A69616E20003139303031305F
:100D77003033313900544C433536313500576176BD
:100D870065666F726D2067656E65726174696F6EF7
:100D970000353025D5BCBFD5B1C8B5C450574DB205
:100DA700A8D2D1BEADCAE4B3F62E2E2E0D0A00335B
:100DB7003025D5BCBFD5B1C8B5C450574DB2A8D2A0
:100DC700D1BEADCAE4B3F62E2E2E0D0A00D5CFD272
:100DD700B2A8D2D1BEADCAE4B3F62E2E2E0D0A00AC
:100DE700404346494C4F5255585B5E606366686A9C
:100DF7006D6F7173757678797B7C7D7E7E7F7F7F63
:100E07007F7F7F7F7E7E7D7C7B7978767573716F40
:100E17006D6A686663605E5B5855524F4C4946433E
:100E2700403C393633302D2A2724211F1C1917152A
:100E370012100E0C0A090706040302010100000044
:100E47000000000001010203040607090A0C0E1046
:100E5700121517191C1F2124272A2D303336393C28
:0411FB0002220000CC
:10113700E4FDFCC3ED9FEC9E5015E4FBFA0BBB00EE
:0F114700010AEB646E4A70F50DBD00010C80E4E7
:011156002276
:0E11DD00EF1FAC0670011E4C60030080F32271
:10106C00EF7802C333CE33CED8F9FFC290C291E4ED
:10107C00FDEE339292C290EF25E0FFEE33FED2905C
:0F108C000DBD10EDD291C2907F0A7E000211DDE2
:10109B00120FD67F057E001210ABD2857F057E0026
:1010AB00D3EF9400EE940040147D0A7C00ED1D708C
:0D10BB00011CED4C70F7EF1F70E61E80E386
:0110C8002205
:100FD600EF30E004D2A08002C2A0EF30E104D2A13B
:100FE6008002C2A1EF30E204D2A28002C2A2EF3098
:100FF600E304D2A38002C2A3EF30E404D2A48002A9
:10100600C2A4EF30E504D2A58002C2A5EF30E60403
:10101600D2A68002C2A6EF30E703D2A722C2A72239
:0811EB00C28712109BC285228D
:101157007C00AF03AE02120E807C007D0A120E8067
:04116700ED2430FF44
:08116B00D28712109BC28522FD
:1011CD00EF7005ED24808003ED24C0FF1211EB229A
:1011A1001211CD120E67FF600C12116B740129F937
:0611B100E43AFA80EE2290
:101026001211CDE55AC3940540077C277D10121195
:1010360059E55AC3940440077C037DE8121159E52B
:101046005AC3940340057D64121157E55AC39402AE
:1010560040057D0A121157E55AC394014007AE02B6
:06106600AF03121160222D
:10117300E4F5097F381211EB7F0C1211EB7F061295
:0711830011EB7F010211EBEB
:1011B700758920758780759850758DF3758BF3D277
:0611C7008ED2ACD2AF2273
:0811F3008F993099FDC2992289
:1011150030981EC298AF9974242523F8A607052395
:10112500E52370020522EF6003BF0A05E4F522F509
:011135002396
:011136002296
:1010F000120E67FF60131211F37F647E001211DD80
:10110000740129F9E43AFA80E7E4FF7E327824E4B6
:04111000F608DEFC03
:0111140022B8
:100B5C00C2861211731211B7D2B67FF47E01121134
:100B6C0037C2B67BFF7A0D7967E4FDFF1211A17ACB
:100B7C000D7971E4FD7F011211A17FE87E03121142
:100B8C00377FF47E011211371211737BFF7A0D79C6
:100B9C007CE4FDFF1211A17A0D7984E4FD7F011232
:100BAC0011A1E526646F6003020C39E527647570AA
:100BBC007CE52864747076E52964707070E52A64AD
:100BCC0075706AE52B64747064E52C6420705EE5C6
:100BDC002D64707058E52E64777052E52F646D703B
:100BEC004CE53064207046E53164357040E5326484
:100BFC0030703AE533640D7034E534640A702E7548
:100C0C0008FF7FFA7E0012106C1508E508D39400DB
:100C1C0050F0E4F508E4FFFE12106C0508E508C37B
:100C2C0094FF40F17BFF7A0D7998120862E52664F7
:100C3C006F6003020CC3E5276475707BE528647450
:100C4C007075E5296470706FE52A64757069E52B21
:100C5C0064747063E52C6420705DE52D64707057CE
:100C6C00E52E64777051E52F646D704BE530642090
:100C7C007045E5316433703FE53264307039E533EB
:100C8C00640D7033E534640A702DF508E4FFFE1230
:100C9C00106C0508E508C394FF40F17508FF7FFA56
:100CAC007E0012106C1508E508D3940050F07BFF01
:100CBC007A0D79B6120862E526646F6003020D5551
:100CCC00E52764756003020D55E5286474707AE5B8
:100CDC002964707074E52A6475706EE52B64747009
:100CEC0068E52C64207062E52D6473705CE52E64FD
:100CFC00697056E52F646E7050E5306420704AE5DB
:100D0C003164777044E5326461703EE5336476702B
:100D1C0038E53464657032E5356420702CE5366452
:100D2C000D7026E537B40A21E4F508E508900DE7C7
:100D3C0093FF7E0012106C0508E508C3948040EB0D
:100D4C007BFF7A0D79D4120862209803020BAE7BDC
:0B0D5C00007A0079241210F0020BAEA8
:0300230002118A3D
:10118A00C0E0C0D075D000C000C007121115D0074A
:07119A00D000D0D0D0E032FC
:03000000020F4AA2
:0C0F4A00787FE4F6D8FD75815A020F9103
:100E6700BB010689828A83E0225002E722BBFE0289
:090E7700E32289828A83E49322BC
:100E8000BC000BBE0029EF8DF084FFADF022E4CC56
:100E9000F875F008EF2FFFEE33FEEC33FCEE9DEC1F
:100EA000984005FCEE9DFE0FD5F0E9E4CEFD22ED65
:100EB000F8F5F0EE8420D21CFEADF075F008EF2FAF
:100EC000FFED33FD4007985006D5F0F222C398FDA0
:050ED0000FD5F0EA223D
:10080000E518240CF8E60518227809300702780C60
:10081000E475F001120F14020E672000EB7F2ED258
:10082000008018EF540F2490D43440D4FF30040BD0
:10083000EF24BFB41A0050032461FFE519600215CC
:1008400019051CE51C7002051B30070D7809E475BD
:10085000F001120F14EF020F020210C97403D20745
:100860008003E4C207F5188B098A0A890BE4F5199D
:10087000F51BF51CE51960077F2012083B80F57514
:100880001AFFC201C200C202C203C205C206C208E8
:10089000120809FF700D3007057F0012084CAF1CCD
:1008A000AE1B22B4255FC2D5C204120809FF24D0B2
:1008B000B40A00501A75F00A781930D50508B6FF49
:1008C0000106C6A426F620D5047002D20380D924DE
:1008D000CFB41A00EF5004C2E5D204020A4CD20190
:1008E00080C6D20080C0D20280BCD2D580BAD205E8
:1008F00080B47F2012083B2002077401B519004024
:10090000F1120800FF12083B020874D208D20680D8
:1009100095120800FB120800FA120800F94A4B7001
:1009200006791D7A0B7BFF20022EE519602A7E00D6
:100930008E82758300120ED560060EEE651A70F079
:10094000C2D5EBC0E0EAC0E0E9C0E0EE120A93D005
:10095000E0F9D0E0FAD0E0FB120E67FF60AAEBC02E
:10096000E0EAC0E0E9C0E012083BD0E02401F9D0A1
:10097000E03400FAD0E0FBE51A0460DCD51AD98037
:10098000877BFF7A0A798FD202809C791080027966
:1009900008C206C2088008D2D5790A8004790AC242
:1009A000D5E51A047002F51AE4FAFDFEFF120800FC
:1009B000FC7B08200113120800FD7B1030000A1296
:1009C0000800FE120800FF7B20EC3382D592D55040
:1009D00013C3E43000069FFFE49EFEE42001039D64
:1009E000FDE49CFCE4CBF8C201EC700CCFCECDCC86
:1009F000E824F8F870F38017C3EF33FFEE33FEED11
:100A000033FDEC33FCEB33FB994002FB0FD8E9EBF1
:100A1000300105F8D0E0C448B201C0E00AEC4D4E08
:100A20004F78207B0070C2EAB51A0040BCC0E012CB
:100A30000A95D0F0D0E0200104C4C0E0C4B201C0E7
:100A4000F0120824D0F0D5F0EB020874120F24093C
:100A50001153098B5808E24C08DE42098F4F099761
:0F0A60004409974908F743099D550981460981C3
:100A6F00450981470B3D5008E62D08EA2E090D2B4D
:100A7F0008EE23090B200B262A08A64800000905BB
:100A8F003F3F3F00790AA2D5200314300509B91062
:100A9F00020404B9080104A2D52006025001042063
:100AAF0002689202B519005034C0E07F203003195C
:100ABF007F30A20272067205500F120AECC202C2F8
:100ACF0006C205C2087F30800F300503E9C0E0126F
:100ADF00083B300503D0E0F9D0E0B519CC3005174D
:100AEF007F30B9100C12083B7F583004077F788095
:100AFF0003B9080312083B3002057F2D02083B7F24
:100B0F00202008F87F2B2006F322920280CF286E38
:100B1F00756C6C2900D2011208003001F8C20178FF
:100B2F001930D50108F60208A62D5043495812086E
:100B3F00002403B405004001E4900B389312082CF5
:0D0B4F00743A12082CD20375190402098BA8
:100F5600020B5CE493A3F8E493A34003F68001F24A
:100F660008DFF48029E493A3F85407240CC8C3339C
:100F7600C4540F4420C8834004F456800146F6DF6B
:100F8600E4800B01020408102040809011FBE47EEF
:100F9600019360BCA3FF543F30E509541FFEE49360
:100FA600A360010ECF54C025E060A840B8E493A327
:100FB600FAE493A3F8E493A3C8C582C8CAC583CA52
:100FC600F0A3C8C582C8CAC583CADFE9DEE780BE0A
:0111FF0000EF
:100ED500BB010CE58229F582E5833AF583E02250D2
:100EE50006E92582F8E622BBFE06E92582F8E2221C
:0D0EF500E58229F582E5833AF583E4932236
:100F0200BB010689828A83F0225002F722BBFE01CE
:020F1200F322C8
:100F1400FAE6FB0808E6F925F0F618E6CA3AF622DE
:100F2400D083D082F8E4937012740193700DA3A35C
:100F340093F8740193F5828883E473740293686070
:060F4400EFA3A3A380DF70
:1010C900EFB40A07740D1210D4740A309811A89954
:1010D900B8130CC2983098FDA899C298B811F63087
:0710E90099FDC299F599225F
:00000001FF
