:10000000020E18AD07AC06ED7802C333CE33CED85E
:10001000F9FDAC06C297AF041210A6FF1210A6D2CB
:02002000972225
:100023000210E902017AEC5D046005E859047003EB
:1000330002017012013B580460F6EC4860F2EC7068
:1000430004FDFEFF22C860DB2481C85009C3986009
:100053000250060201779850CAF582E9294B4A708B
:1000630005AB8202016675F0007C1A7880C3EF9BB2
:10007300EE9AED99400DC3EF9BFFEE9AFEED99FDCD
:10008300E842F0DC23ACF0D0E0FFD0E0FED0E0FDAE
:10009300AB8220E7101BEB60BAEC2CFCEF33FFEED6
:1000A30033FEED33FD020152E803F830E705C0F0FB
:1000B30075F000EF2FFFEE33FEED33FD40B830E770
:1000C300C280AA75F020800E75F010800575F008C7
:1000D3007D007E007F003392D530D503120701ECFB
:1000E300334010EF33FFEE33FEED33FDEC33FCD53D
:1000F300F0ED22E5F0247EA2D513CC92E7CDCEFF1E
:1001030022EDD2E7CD33EC3392D524814006E4FFD0
:10011300FEFDFC22FCE4CFCECDCC24E0501174FFD5
:1001230080EDC3CC13CCCD13CDCE13CECF13CF04E0
:1001330070F030D5DE020701E9D2E7C933E833F8BE
:1001430092D5EDD2E7CD33EC33FC5002B2D522EC9D
:1001530030E7100FBF000C0EBE00080DBD00040BEE
:10016300EB6014A2D5EB13FCED92E7FD2274FFFCC8
:10017300FDFEFF22E480F8A2D574FF13FC7D80E42A
:1001830080EFF920E72824F950037907E4F42402E7
:10019300FB18DBFDE624FB5014E9600DE4F618E6DA
:1001A30004F6B40A08E4F6D9F57401F60A22C2D5B6
:1001B30022ED33EC3392D5FA602AB4FF33EDC2E774
:1001C3007BFF60067A0179D9E4227A0179E220D5AE
:1001D300047A0179DD224E614E002B494E46002DF3
:1001E300494E4600E47A08F608DAFC7B00740722DD
:1001F300E8C0E0ECC0E0EDC0E0EEC0E0EFC0E0EA54
:1002030075F010A4CAABF075F04DA42BFBE435F0E8
:10021300FCEA2410FAEB34C5FBEC34D9FCEDC2E75D
:10022300FF75F056A4F42411C5F0F434C58FF0A47F
:100233002AE5F03BE43CF620E7141204E5D0E0FFA6
:10024300D0E0FED0E0FDD0E0FC1200298014F404DD
:100253001204E5D0E0FFD0E0FED0E0FDD0E0FC12D8
:1002630003AFD0E0F8E6FAEDD2E7CD33EC332482E6
:10027300FBE4C3CF33CFCE33CECD33CD33DBF37BF0
:100283000775F00A846004F6081B0AE5F0F6088F88
:10029300F0740AA4FFACF08EF0740AA42CFEACF048
:1002A30050010C8DF0740AA42CFDE435F0F608DB44
:1002B300DE740722020170E86480F8E933E83360F2
:1002C300110460F0ED33EC337009E8FCE9FDEAFE5C
:1002D300EBFF220460DED3EB9FEA9EE99DE8C2E7D1
:1002E3008CF0C2F795F0400CE8CCF8E9CDF9EACEF2
:1002F300FAEBCFFB12013B85D0F05804700320D5F5
:10030300B3E80470075002B2D502017A92D5EC0427
:1003130060F7E4CCC0E0C398F8603B9418600840F1
:100323000DD0E0FB020152E4FBFAC9FC8028E8305F
:10033300E406E4C9FBE4CAFCE830E305E4C9CACB3C
:10034300FCE854076010F8C3E913F9EA13FAEB1356
:10035300FBEC13FCD8F130F52FC3E49CFCEF9BFFBF
:10036300EE9AFEED99FDD0E0FBEF4E4D4C7012225C
:10037300DB03020177EC2CFCEF33FFEE33FEED33AE
:10038300FDED30E7EB020152EF2BFFEE3AFEED39C4
:10039300FDD0E0FB50130BBB000302017AED13FD0C
:1003A300EE13FEEF13FFEC13FC020152EC4D601150
:1003B300E8497017ED33EC3304600DE4FCFFFEFDF8
:1003C30022E933E8330470F802017012013B580448
:1003D3006009E4CC2481500628500902017A2840A0
:1003E30003020177C0E0EB4A7044B98006D0E0FB1A
:1003F300020166EF4E701CBD8008EBFFEAFEE9FDCB
:1004030080EBE98DF0A4FEE5F0020498E9CDF9EA6A
:10041300FEEBFFEF89F0A4FCE5F0CE89F0A42EFFFC
:10042300E435F0CD89F0A42DFEE435F08067EF4E7E
:100433007005BD80D780C3EF8BF0A4ACF0EE8BF0DA
:10044300A42CFCE435F0F8EF8AF0A42CE5F038FC9A
:10045300E433CB8DF0A42CFCE5F03BF8EE8AF0A45A
:100463002CFCE5F038F8E433CF89F0A42CFCE5F05C
:1004730038CF3400CE89F0A42FFFE5F03EFEE433FD
:10048300C98DF0A42EFEE5F039CD8AF0A42FFFE547
:10049300F03EFEE43DFD33D0E0FB50070BBB000F05
:1004A30002017AEC2CFCEF33FFEE33FEED33FD0259
:1004B30001523F8000004120000042C80000447AFE
:1004C3000000461C400047C35000497424004B18E9
:1004D30096804CBEBC205A0E1BCA6753C21C749D27
:1004E300C5AEFB60065407601C2323120513EB54AF
:1004F3003860091204FF12050E1203AFECF8EDF990
:10050300EEFAEFCB22EB12050E80F1543803241CD4
:100513009004B5FE93FC0EEE93FD0EEE930ECE9378
:10052300FF22BB010689828A83E0225002E722BBB5
:10053300FE02E32289828A83E49322BB010CE582D3
:1005430029F582E5833AF583E0225006E92582F80E
:10055300E622BBFE06E92582F8E222E58229F5823E
:10056300E5833AF583E49322BB010689828A83F00B
:10057300225002F722BBFE01F322EF8DF0A4A8F074
:10058300CF8CF0A428CE8DF0A42EFE22BC000BBE8F
:100593000029EF8DF084FFADF022E4CCF875F0086C
:1005A300EF2FFFEE33FEEC33FCEE9DEC984005FCA1
:1005B300EE9DFE0FD5F0E9E4CEFD22EDF8F5F0EE69
:1005C3008420D21CFEADF075F008EF2FFFED33FD54
:1005D3004007985006D5F0F222C398FD0FD5F0EAF4
:1005E30022E88FF0A4CC8BF0A42CFCE98EF0A42C91
:1005F300FC8AF0EDA42CFCEA8EF0A4CDA8F08BF0DD
:10060300A42DCC3825F0FDE98FF0A42CCD35F0FCDA
:10061300EB8EF0A4FEA9F0EB8FF0A4CFC5F02ECDA6
:1006230039FEE43CFCEAA42DCE35F0FDE43CFC228B
:1006330075F008758200EF2FFFEE33FECD33CDCC7E
:1006430033CCC58233C5829BED9AEC99E582984001
:100653000CF582EE9BFEED9AFDEC99FC0FD5F0D6DE
:10066300E4CEFBE4CDFAE4CCF9A88222B800C1B908
:100673000059BA002DEC8BF084CFCECDFCE5F0CB46
:10068300F97818EF2FFFEE33FEED33FDEC33FCEB7F
:1006930033FB10D703994004EB99FB0FD8E5E4F93A
:1006A300FA227818EF2FFFEE33FEED33FDEC33FC27
:1006B300C933C910D7059BE99A4007EC9BFCE99A1B
:1006C300F90FD8E0E4C9FAE4CCFB2275F010EF2F60
:1006D300FFEE33FEED33FDCC33CCC833C810D70760
:1006E3009BEC9AE899400AED9BFDEC9AFCE899F89B
:1006F3000FD5F0DAE4CDFBE4CCFAE4C8F922C3E485
:100703009FFFE49EFEE49DFDE49CFC22EB9FF5F03D
:10071300EA9E42F0E99D42F0EC6480C8648098450B
:10072300F022EB9FF5F0EA9E42F0E99D42F0E89C4F
:1007330045F022FAE6FB0808E6F925F0F618E6CAC2
:100743003AF622D083D082F8E49370127401937046
:100753000DA3A393F8740193F5828883E473740261
:10076300936860EFA3A3A380DFE5642450F8E60554
:100773006422784D3018027850E475F00112073680
:100783000205252011EB7F2ED2118018EF540F2480
:1007930090D43440D4FF30150BEF24BFB41A00506B
:1007A300032461FFE565600215650568E56870026D
:1007B300056730180D784DE475F001120736EF0226
:1007C300056B0211DD7403D2188003E4C218F564CB
:1007D3008B4D8A4E894FE4F565F567F568E56560ED
:1007E300077F201207A780F57566FFC212C211C2E8
:1007F30013C214C216C217C219120775FF700D3047
:1008030018057F001207B8AF68AE6722B4255FC230
:10081300D5C215120775FF24D0B40A00501A75F01B
:100823000A786530D50508B6FF0106C6A426F6206A
:10083300D5047002D21480D924CFB41A00EF500427
:10084300C2E5D215020AA5D21280C6D21180C0D247
:100853001380BCD2D580BAD21680B47F201207A7EA
:100863002013077401B5650040F112076CFF1207EE
:10087300A70207E0D219D217809512076CFB120763
:100883006CFA12076CF94A4B7006799C7A0B7BFF62
:1008930020132EE565602A7E008E82758300120583
:1008A3003E60060EEE656670F0C2D5EBC0E0EAC0AE
:1008B300E0E9C0E0EE120B05D0E0F9D0E0FAD0E0B9
:1008C300FB120525FF60AAEBC0E0EAC0E0E9C0E047
:1008D3001207A7D0E02401F9D0E03400FAD0E0FBFE
:1008E300E5660460DCD566D98087D21380A2120A3C
:1008F300E860F7E566700104120185A966600DE5FD
:1009030066600914F566120B8FEF60F3EA30E702B5
:10091300F404C3995077EAF425660430E701E4044C
:10092300F566800D120AE860C1EA056625661201C4
:1009330085EA7863F630E701E4256604D56604208A
:10094300160114120B05E4C0E0120B8F7863E66006
:100953001320E70714F612078F802204F6D0E01461
:10096300C0E07F0012078FE56660071207861566F1
:10097300800B301603120786D0E00207E0D0E004B4
:1009830080C5120AE860A0E566041201857863EA6F
:10099300F6E5662016026001042404120B0574FFB9
:1009A30004C0E0120B8F12078FE566201602600366
:1009B300120786D0E0B566E87F451207997863E6AB
:1009C3007F2B30E7047F2DF404C0E01207A7D0E0AB
:1009D30075F00A84C0F0120790D0E0120790020766
:1009E300E0791080027908C217C2198008D2D5793C
:1009F3000A8004790AC2D5E566047002F566E4FA52
:100A0300FDFEFF12076CFC7B0820121312076CFD1E
:100A13007B1030110A12076CFE12076CFF7B20EC6F
:100A23003382D592D55013C3E43011069FFFE49E61
:100A3300FEE42012039DFDE49CFCE4CBF8C212EC1F
:100A4300700CCFCECDCCE824F8F870F38017C3EF49
:100A530033FFEE33FEED33FDEC33FCEB33FB994018
:100A630002FB0FD8E9EB301205F8D0E0C448B2120C
:100A7300C0E00AEC4D4E4F78207B0070C2EAB566A9
:100A83000040BCC0E0120B07D0F0D0E0201204C439
:100A9300C0E0C4B212C0F0120790D0F0D5F0EB0260
:100AA30007E0120746087D5309E458084E4C084AEC
:100AB3004209E84F09F04409F04908634309F65530
:100AC30009274609854508F1470BBC5008522D08F4
:100AD300562E08792B085A230877200BA52A0812CB
:100AE3004800000871E566B4FF0375660612076CDB
:100AF300FC12076CFD12076CFE12076CFF785C0298
:100B030001B4790AA2D5201414301609B9100204CD
:100B130004B9080104A2D520170250010420136868
:100B23009213B565005034C0E07F203014197F3034
:100B3300A21372177216500F120B5EC213C217C2A2
:100B430016C2197F30800F301603E9C0E01207A7E1
:100B5300301603D0E0F9D0E0B565CC3016177F30FE
:100B6300B9100C1207A77F583015077F788003B997
:100B730008031207A73013057F2D0207A77F202044
:100B830019F87F2B2017F322921380CF7F00B4072D
:100B9300005005245CF8E6FF22286E756C6C290072
:100BA300D21212076C3012F8C212786530D50108E0
:100BB300F60208122D5043495812076C2403B4055A
:100BC300004001E4900BB793120798743A12079808
:100BD300D2147565040209E4AB05EBD39464748005
:100BE300948040027B32EF24FE603714605D147002
:100BF30003020C7A24036003020CC57401256AF511
:100C03008274133569F583E493FF7E0012000305B4
:100C13006AE56A700205697F107E001212D8756951
:100C23000022AF6CAE6B1200037402256CF56CE40A
:100C3300356BF56B7F377E001212D8AE6BAF6C7CD1
:100C4300007DFA12058F8C6B8D6C227FC87E00129B
:100C53000003EB75F014A4FFAEF01212D87F0A7EE6
:100C630000120003C374649BFFE49400FE7C007DC8
:100C73001412057D0212D8E4F56DF56E7F017E0036
:100C83001212D8AF6EAE6D120003056EE56E7002E0
:100C9300056DD39416E56D940140E1756D01756E94
:100CA30016AF6EAE6D1200037F017E001212D8E5FF
:100CB3006E156E7002156DD3E56E9400E56D9400AC
:100CC30050DF221212A61212457DF47C017F707E42
:100CD30003120FC97BFF7A14791F7D017F01121262
:100CE300047BFF7A1479347D017F021212047BFFA7
:100CF3007A14791F1212627BFF7A14792B12126213
:100D03007FE87E031212917BFF7A1479407D017F85
:100D1300011212047BFF7A1479557D017F021212AE
:100D2300047BFF7A1479401212627BFF7A14794CA8
:100D33001212627FE87E031212917BFF7A1479C349
:100D43007D017F011212047BFF7A1479CE7D017F2E
:100D5300021212047BFF7A147901121262120F112C
:100D63008F46E5466003120F721212F780EFC20836
:100D7300E4F528F527F526F52575240BD3E524940A
:100D83000D74809480506874082524F8E6F5296072
:100D93005EFF3395E0FEC3EF9430EE6480948040B1
:100DA3004AD3EF9439EE64809480503FD208E47FB5
:100DB3000AFEFDFCAB28AA27A926A8251205E4A84C
:100DC30004A905AA06AB07AF29EF3395E0FEEF248C
:100DD300D0FFEE34FFFE3395E0FDFCEB2FF528EA60
:100DE3003EF527E93DF526E83CF5250524808DE40D
:100DF3007F64FEFDFCAB28AA27A926A825D31207EA
:100E030025400AE4752832F527F526F5257F32308B
:100E13000802AF2822787FE4F6D8FD758170020EB0
:100E23005F020CC6E493A3F8E493A34003F68001A6
:100E3300F208DFF48029E493A3F85407240CC8C311
:100E430033C4540F4420C8834004F456800146F64B
:100E5300DFE4800B01020408102040809012BAE402
:100E63007E019360BCA3FF543F30E509541FFEE4A9
:100E730093A360010ECF54C025E060A840B8E4936B
:100E8300A3FAE493A3F8E493A3C8C582C8CAC583AD
:100E9300CAF0A3C8C582C8CAC583CADFE9DEE78032
:100EA300BE1211A57BFF7A1479A312112B400122E4
:100EB3007A1479AB12116B50047F0180487A14794C
:100EC300AF12116B50047F02803B7BFF7A1479B31E
:100ED30012116D50047F04802C7BFF7A1479B712B2
:100EE300116D401A7BFF7A1479BB7F071211714091
:100EF3000D7BFF7A1479BF7F07121171500C120D0D
:100F0300718F707F03120F728002C322D322E4F524
:100F13004720B5137F14FE12129130B5FD7F147E66
:100F23000012129175470120B4147F147E0012122F
:100F33009130B4FD7F147E0012129175470220B3E5
:100F4300147F147E0012129130B3FD7F147E0012C1
:100F5300129175470320B2147F147E001212913050
:100F6300B2FD7F147E00121291754704AF47228FA2
:100F73006FEF6051640370277550FF7551127552FE
:100F8300FEF553857054FB7A0079471207C87B003E
:100F93007A0079471212627BFF7A14798E8023AF2D
:100FA3006F7E00EF640170087BFF7A147961801211
:100FB300EF64024E7BFF70067A14797F80047A1403
:100FC3007970121262228C478D48AD07AC06E41289
:100FD30000CBA804A905AA06AB077F007E507DC3FA
:100FE3007C47120029120104AB07AA06AE47AF489B
:100FF300AD03AC0212058F7C007D6412057DAD0745
:10100300AC06900000C3E5829DE5839C500CB2B60C
:10101300AF03AE021212E3A380EB227B007A0079C6
:1010230008E4FFC208E59912056BE4FEC2980F04B9
:1010330029F9E43AFA20980D0EEED3948274809441
:101043008040F2D208EFFD3395E0FCC3ED9413EC3E
:101053006480948050033008CAE412056BD322C223
:10106300D5E830E70FB2D5E4C39BFBE49AFAE499E1
:10107300F9E498F8EC30E717B2D512109812066F1E
:10108300E4C39BFBE49AFAE499F9E498F880031229
:10109300066F30D50DE4C39FFFE49EFEE49DFDE49F
:1010A3009CFC228F20A2079295C296D296A206920A
:1010B30095C296D296A2059295C296D296A2049212
:1010C30095C296D296A2039295C296D296A2029206
:1010D30095C296D296A2019295C296D296A20092FA
:1010E30095C296D29622C0E0C0F0C083C082C0D021
:1010F30075D000C000C001C002C003C004C005C059
:1011030006C00712101E5003120EA4C298D007D0B7
:1011130006D005D004D003D002D001D000D0D0D067
:1011230082D083D0F0D0E0328B248A2589267F01B8
:10113300AB24AA25A9268F8275830012053E60037E
:101143000F80EDE4FEEEC39F501CAB24AA25A92615
:101153008E8275830012053EFD74082EF8E66D60DD
:1011630002C3220E80DFD3227BFF7D037F078F2400
:101173008B258A268927E4FFEFC39D5023AB25AA3D
:1011830026A9278F8275830012053EFEE5242F24AE
:1011930008F8E6B50603D38001C34001220F80D8C7
:1011A300D322E4FFEFC3941474809480502B74080B
:1011B3002FF8E6FD3395E0FCC3ED9441EC64809495
:1011C300804013D3ED945AEC6480948050087408E3
:1011D3002FF8742026F60F80CB22EFB40A07740D84
:1011E3001211E8740A309811A899B8130CC29830F8
:1011F30098FDA899C298B811F63099FDC299F5994E
:10120300228B478A488949121227E4FDAB47AA4833
:10121300A9498D8275830012053EFF60061212876D
:101223000D80E922AE07EEFB7A0064017004ED1431
:101233008009EB64024A7009ED243F4480FF1212D7
:10124300ED22D2AF7598504389205389EF758DFAFB
:10125300758BFA438780D28EC299C298D2AC22C2D0
:10126300AC1205256010F5993099FDC299740129D6
:10127300F9E43AFA80EBD2AC22E4FAF9F8121062FC
:10128300EB2430FFD2871212C9C2850212CFEF1F9F
:10129300AC0670011E4C600A7D027CC7DCFEDDFCDF
:1012A30080EC227F381212ED7F0C1212ED7F0612B2
:1012B30012ED7F010212ED016F000170320269002D
:1012C30000026B000000C2868FA0D2857F027EEFF2
:1012D300DEFEDFFC22EF1FAC0670011E4C70F6220F
:1012E300EF1F70011E144E70F722C2871212C9C27B
:1012F300850212CFAD70AF6F020BDB2564008083D4
:1013030086898D909396999C9FA2A5A8ABAEB1B404
:10131300B7BABCBFC2C5C7CACCCFD1D4D6D8DADD21
:10132300DFE1E3E5E7E9EAECEEEFF1F2F4F5F6F7F6
:10133300F8F9FAFBFCFDFDFEFFFFFFFFFFFFFFFFD8
:10134300FFFFFFFFFEFDFDFCFBFAF9F8F7F6F5F4EE
:10135300F2F1EFEEECEAE9E7E5E3E1DEDDDAD8D638
:10136300D4D1CFCCCAC7C5C2BFBCBAB7B4B1AEAB78
:10137300A8A5A29F9C999693908D89868380807C53
:101383007976726F6C696663605D5A5755514E4C3E
:10139300484543403D3A383533302E2B2927252203
:1013A300201E1C1A1816151311100E0D0B0A09080E
:1013B300070605040302020100000000000000000C
:1013C30000000000010202030405060708090A0BD6
:1013D3000D0E1011131516181A1C1E20222527296D
:1013E3002B2E303335383A3D404345484C4E51550A
:1013F300575A5D606366696C6F7276797C80BBF95E
:10140300D3DA544C4335363135B5C4B6E0D6D6B20B
:10141300A8D0CEB7A2C9FAC6F70D0A0031393030C9
:101423003130303330322000B3C2D3A6BBD40D0ADF
:10143300004368656E59696E6748756900313930D4
:10144300303130303333332000D4F8CEC4BEFD0DF9
:101453000A005A656E6757656E4A756E2000D5FDA2
:10146300CFD2B2A8D2D1CAE4B3F60D0A00C8FDBDEB
:10147300C7B2A8D2D1CAE4B3F60D0A00BEE2B3DD07
:10148300B2A8D2D1CAE4B3F60D0A0025D5BCBFD5A4
:10149300B1C850574DB2A8D2D1CAE4B3F60D0A0071
:1014A3006F7574707574200073696E0073617700D3
:1014B3007472690070776D007371720073717500D7
:1014C30057617665666F726D20200047656E6572A1
:0514D30061746F72005E
:00000001FF
