:10000000021018D2A5D2B2E4F50A220212DB0201D4
:1000100062EC5D046005E8590470030201581201A6
:1000200023580460F6EC4860F2EC7004FDFEFF22F9
:10003000C860DB2481C85009C398600250060201E1
:100040005F9850CAF582E9294B4A7005AB820201DC
:100050004E75F0007C1A7880C3EF9BEE9AED9940C4
:100060000DC3EF9BFFEE9AFEED99FDE842F0DC2315
:10007000ACF0D0E0FFD0E0FED0E0FDAB8220E71096
:100080001BEB60BAEC2CFCEF33FFEE33FEED33FDDF
:1000900002013AE803F830E705C0F075F000EF2FF1
:1000A000FFEE33FEED33FD40B830E7C280AA75F0B5
:1000B00020800E75F010800575F0087D007E007FB1
:1000C000003392D530D5031206E9EC334010EF33FC
:1000D000FFEE33FEED33FDEC33FCD5F0ED22E5F021
:1000E000247EA2D513CC92E7CDCEFF22EDD2E7CD70
:1000F00033EC3392D524814006E4FFFEFDFC22FC64
:10010000E4CFCECDCC24E0501174FF80EDC3CC13EE
:10011000CCCD13CDCE13CECF13CF0470F030D5DEBF
:100120000206E9E9D2E7C933E833F892D5EDD2E720
:10013000CD33EC33FC5002B2D522EC30E7100FBFC8
:10014000000C0EBE00080DBD00040BEB6014A2D520
:10015000EB13FCED92E7FD2274FFFCFDFEFF22E4B1
:1001600080F8A2D574FF13FC7D80E480EFF920E7CE
:100170002824F950037907E4F42402FB18DBFDE698
:1001800024FB5014E9600DE4F618E604F6B40A08FE
:10019000E4F6D9F57401F60A22C2D522ED33EC3328
:1001A00092D5FA602AB4FF33EDC2E77BFF60067A8E
:1001B0000179C1E4227A0179CA20D5047A0179C58E
:1001C000224E614E002B494E46002D494E4600E41A
:1001D0007A08F608DAFC7B00740722E8C0E0ECC07D
:1001E000E0EDC0E0EEC0E0EFC0E0EA75F010A4CAB8
:1001F000ABF075F04DA42BFBE435F0FCEA2410FACB
:10020000EB34C5FBEC34D9FCEDC2E7FF75F056A426
:10021000F42411C5F0F434C58FF0A42AE5F03BE4D2
:100220003CF620E7141204CDD0E0FFD0E0FED0E091
:10023000FDD0E0FC1200118014F4041204CDD0E0D3
:10024000FFD0E0FED0E0FDD0E0FC120397D0E0F854
:10025000E6FAEDD2E7CD33EC332482FBE4C3CF33AF
:10026000CFCE33CECD33CD33DBF37B0775F00A84AD
:100270006004F6081B0AE5F0F6088FF0740AA4FF84
:10028000ACF08EF0740AA42CFEACF050010C8DF092
:10029000740AA42CFDE435F0F608DBDE74072202B4
:1002A0000158E86480F8E933E83360110460F0ED48
:1002B00033EC337009E8FCE9FDEAFEEBFF22046051
:1002C000DED3EB9FEA9EE99DE8C2E78CF0C2F7958A
:1002D000F0400CE8CCF8E9CDF9EACEFAEBCFFB120E
:1002E000012385D0F05804700320D5B3E8047007CB
:1002F0005002B2D502016292D5EC0460F7E4CCC0A2
:10030000E0C398F8603B94186008400DD0E0FB0211
:10031000013AE4FBFAC9FC8028E830E406E4C9FBB2
:10032000E4CAFCE830E305E4C9CACBFCE854076042
:1003300010F8C3E913F9EA13FAEB13FBEC13FCD83A
:10034000F130F52FC3E49CFCEF9BFFEE9AFEED9994
:10035000FDD0E0FBEF4E4D4C701222DB0302015F3B
:10036000EC2CFCEF33FFEE33FEED33FDED30E7EB2D
:1003700002013AEF2BFFEE3AFEED39FDD0E0FB50E3
:10038000130BBB0003020162ED13FDEE13FEEF132E
:10039000FFEC13FC02013AEC4D6011E8497017EDD7
:1003A00033EC3304600DE4FCFFFEFD22E933E83357
:1003B0000470F802015812012358046009E4CC24A7
:1003C00081500628500902016228400302015FC0E3
:1003D000E0EB4A7044B98006D0E0FB02014EEF4EDC
:1003E000701CBD8008EBFFEAFEE9FD80EBE98DF0B3
:1003F000A4FEE5F0020480E9CDF9EAFEEBFFEF8907
:10040000F0A4FCE5F0CE89F0A42EFFE435F0CD8910
:10041000F0A42DFEE435F08067EF4E7005BD80D767
:1004200080C3EF8BF0A4ACF0EE8BF0A42CFCE43591
:10043000F0F8EF8AF0A42CE5F038FCE433CB8DF033
:10044000A42CFCE5F03BF8EE8AF0A42CFCE5F03897
:10045000F8E433CF89F0A42CFCE5F038CF3400CE9B
:1004600089F0A42FFFE5F03EFEE433C98DF0A42E01
:10047000FEE5F039CD8AF0A42FFFE5F03EFEE43D25
:10048000FD33D0E0FB50070BBB000F020162EC2CE8
:10049000FCEF33FFEE33FEED33FD02013A3F800007
:1004A000004120000042C80000447A0000461C4081
:1004B0000047C35000497424004B1896804CBEBCC2
:1004C000205A0E1BCA6753C21C749DC5AEFB600642
:1004D0005407601C23231204FBEB543860091204F8
:1004E000E71204F6120397ECF8EDF9EEFAEFCB22DF
:1004F000EB1204F680F1543803241C90049DFE9303
:10050000FC0EEE93FD0EEE930ECE93FF22BB010682
:1005100089828A83E0225002E722BBFE02E322891D
:10052000828A83E49322BB010CE58229F582E5836C
:100530003AF583E0225006E92582F8E622BBFE0662
:10054000E92582F8E222E58229F582E5833AF583FE
:10055000E49322BB010689828A83F0225002F722AB
:10056000BBFE01F322EF8DF0A4A8F0CF8CF0A428FD
:10057000CE8DF0A42EFE22BC000BBE0029EF8DF024
:1005800084FFADF022E4CCF875F008EF2FFFEE33D6
:10059000FEEC33FCEE9DEC984005FCEE9DFE0FD585
:1005A000F0E9E4CEFD22EDF8F5F0EE8420D21CFE59
:1005B000ADF075F008EF2FFFED33FD4007985006C2
:1005C000D5F0F222C398FD0FD5F0EA22E88FF0A40F
:1005D000CC8BF0A42CFCE98EF0A42CFC8AF0EDA4CA
:1005E0002CFCEA8EF0A4CDA8F08BF0A42DCC3825FD
:1005F000F0FDE98FF0A42CCD35F0FCEB8EF0A4FEDD
:10060000A9F0EB8FF0A4CFC5F02ECD39FEE43CFC71
:10061000EAA42DCE35F0FDE43CFC2275F00875828D
:1006200000EF2FFFEE33FECD33CDCC33CCC582337C
:10063000C5829BED9AEC99E58298400CF582EE9B81
:10064000FEED9AFDEC99FC0FD5F0D6E4CEFBE4CD9F
:10065000FAE4CCF9A88222B800C1B90059BA002D39
:10066000EC8BF084CFCECDFCE5F0CBF97818EF2FF2
:10067000FFEE33FEED33FDEC33FCEB33FB10D70321
:10068000994004EB99FB0FD8E5E4F9FA227818EFCA
:100690002FFFEE33FEED33FDEC33FCC933C910D729
:1006A000059BE99A4007EC9BFCE99AF90FD8E0E436
:1006B000C9FAE4CCFB2275F010EF2FFFEE33FEED0C
:1006C00033FDCC33CCC833C810D7079BEC9AE899DC
:1006D000400AED9BFDEC9AFCE899F80FD5F0DAE4BE
:1006E000CDFBE4CCFAE4C8F922C3E49FFFE49EFE0C
:1006F000E49DFDE49CFC22EB9FF5F0EA9E42F0E9CC
:100700009D42F0EC6480C864809845F022EB9FF530
:10071000F0EA9E42F0E99D42F0E89C45F022FAE6BC
:10072000FB0808E6F925F0F618E6CA3AF622D08367
:10073000D082F8E4937012740193700DA3A393F820
:10074000740193F5828883E4737402936860EFA365
:10075000A3A380DFE551243DF8E6055122783A3025
:100760000702783DE475F00112071E02050D200016
:10077000EB7F2ED2008018EF540F2490D43440D455
:10078000FF30040BEF24BFB41A0050032461FFE5CF
:1007900052600215520555E5557002055430070D9B
:1007A000783AE475F00112071EEF02055302124D6C
:1007B0007403D2078003E4C207F5518B3A8A3B8960
:1007C0003CE4F552F554F555E55260077F201207D9
:1007D0008F80F57553FFC201C200C202C203C20579
:1007E000C206C20812075DFF700D3007057F0012B8
:1007F00007A0AF55AE5422B4255FC2D5C20412077C
:100800005DFF24D0B40A00501A75F00A785230D532
:100810000508B6FF0106C6A426F620D5047002D24C
:100820000380D924CFB41A00EF5004C2E5D20402E9
:100830000A8DD20180C6D20080C0D20280BCD2D53F
:1008400080BAD20580B47F2012078F20020774017E
:10085000B5520040F1120754FF12078F0207C8D2A9
:1008600008D2068095120754FB120754FA12075457
:10087000F94A4B700679847A0B7BFF20022EE552F1
:10088000602A7E008E8275830012052660060EEEB9
:10089000655370F0C2D5EBC0E0EAC0E0E9C0E0EE1D
:1008A000120AEDD0E0F9D0E0FAD0E0FB12050DFF1E
:1008B00060AAEBC0E0EAC0E0E9C0E012078FD0E038
:1008C0002401F9D0E03400FAD0E0FBE5530460DC09
:1008D000D553D98087D20280A2120AD060F7E5539F
:1008E00070010412016DA953600DE553600914F500
:1008F00053120B77EF60F3EA30E702F404C3995028
:1009000077EAF425530430E701E404F553800D122F
:100910000AD060C1EA0553255312016DEA7850F6FA
:1009200030E701E4255304D5530420050114120ACD
:10093000EDE4C0E0120B777850E6601320E707146F
:10094000F6120777802204F6D0E014C0E07F001290
:100950000777E553600712076E1553800B300503C8
:1009600012076ED0E00207C8D0E00480C5120AD09A
:1009700060A0E5530412016D7850EAF6E5532005B6
:10098000026001042404120AED74FF04C0E0120B9B
:1009900077120777E553200502600312076ED0E057
:1009A000B553E87F451207817850E67F2B30E70486
:1009B0007F2DF404C0E012078FD0E075F00A84C0E8
:1009C000F0120778D0E01207780207C87910800289
:1009D0007908C206C2088008D2D5790A8004790A4B
:1009E000C2D5E553047002F553E4FAFDFEFF120789
:1009F00054FC7B08200113120754FD7B1030000AC1
:100A0000120754FE120754FF7B20EC3382D592D597
:100A10005013C3E43000069FFFE49EFEE420010370
:100A20009DFDE49CFCE4CBF8C201EC700CCFCECD74
:100A3000CCE824F8F870F38017C3EF33FFEE33FEF1
:100A4000ED33FDEC33FCEB33FB994002FB0FD8E9AF
:100A5000EB300105F8D0E0C448B201C0E00AEC4D2B
:100A60004E4F78207B0070C2EAB5530040BCC0E016
:100A7000120AEFD0F0D0E0200104C4C0E0C4B201FB
:100A8000C0F0120778D0F0D5F0EB0207C812072E9D
:100A900008655309CC5808364C08324209D04F0932
:100AA000D84409D849084B4309DE55090F46096D5A
:100AB0004508D9470BA450083A2D083E2E08612B53
:100AC000084223085F200B8D2A07FA4800000859C6
:100AD000E553B4FF03755306120754FC120754FD87
:100AE000120754FE120754FF784902019C790AA2AA
:100AF000D5200314300509B910020404B908010413
:100B0000A2D52006025001042002689202B55200CC
:100B10005034C0E07F203003197F30A20272067289
:100B200005500F120B46C202C206C205C2087F3032
:100B3000800F300503E9C0E012078F300503D0E0D5
:100B4000F9D0E0B552CC3005177F30B9100C120740
:100B50008F7F583004077F788003B9080312078F0E
:100B60003002057F2D02078F7F202008F87F2B2081
:100B700006F322920280CF7F00B40700500524497B
:100B8000F8E6FF22286E756C6C2900D2011207541A
:100B90003001F8C201785230D50108F60207FA2D6B
:100BA000504349581207542403B405004001E4900F
:100BB0000B9F93120780743A120780D20375520478
:100BC0000209CC7DF47C017F707E0312117912132F
:100BD0005712136B7BFF7A1379BC7D017F011212D0
:100BE000997BFF7A1379C77D017F021212997FE802
:100BF0007E031213187F011213A6753FE1753E3A6A
:100C0000753D41753C7175400A7D017F01121212DC
:100C10007BFF7A1379D47D017F021212997FE87EDF
:100C2000031213187F011213A67BFF7A1379DC7D60
:100C3000017F011212997BFF7A1379E77D017F0210
:100C4000121299120E8F8F09E5097003020DA87B0D
:100C5000FF7A1379F27D0E7F01121299AF097E009F
:100C6000C3EF940174809480406BD3EF940A748036
:100C700094805061C3E523940AE52294005040AF6C
:100C800027AE26AD25AC24E47B0AFAF9F81205CC90
:100C90008F278E268D258C24E50975F00A84E4FCC7
:100CA000FDFEE52725F0F527EE3526F526ED352561
:100CB000F525EC3524F5240523E52370020522856E
:100CC000273F85263E85253D85243C8523407D01A3
:100CD0007F02121212E50964146003020D897FE19C
:100CE0007E3A7D417C71AB27AA26A925A824C31290
:100CF000070D705AE523640A452270527BFF7A146F
:100D0000795F1212747BFF7A1379F67D0E7F0112E0
:100D100012997DF47C017F707E03121179E4F5272E
:100D2000F526F525F524F522F5237BFF7A1379FACC
:100D30007D017F021212997FE87E03121318750855
:100D400001E508640170427F011213A6803B7BFF1E
:100D50007A1479801212747BFF7A14790A7D0E7FDF
:100D6000011212997DF47C017FB87E01121179E4A1
:100D7000F527F526F525F524F522F5237BFF7A13D3
:100D800079E77D017F02121299E50964157019F562
:100D900027F526F525F524F522F5237BFF7A13792F
:100DA000E77D017F02121299E50864016003020CDD
:100DB0004312138E120003C28C7BFF7A14790E7DCE
:100DC000017F011212997BFF7A14791D7D017F0248
:100DD000121299120E8F8F09E50960F7641270F3F1
:100DE0007BFF7A14792D7D017F011212997BFF7AA6
:100DF00014793D7D017F0212129912134230B2FD27
:100E000012110F8F2B8E2A8D298C28E41200AEE44C
:100E1000FBFA79C878421200118F2F8E2E8D2D8CFF
:100E20002C7FF47E011213187F011213A67BFF7A28
:100E300014794D7D017F01121299753DFF753E14A5
:100E4000753F57852F43852E42852D41852C407B4C
:100E5000007A0079301207B07B007A0079307D018A
:100E60007F021212991200037D2C7C017F707E0399
:100E70001211797FF47E011213187D2C7C017F7092
:100E80007E031211797F587E021212BC020DD3E448
:100E9000F53A7590FFC2932097137F14FE12131832
:100EA0003097FD7F147E00121318753A01209614B6
:100EB0007F147E001213183096FD7F147E001213EB
:100EC00018753A042095147F147E0012131830957B
:100ED000FD7F147E00121318753A072094147F14B6
:100EE0007E001213183094FD7F147E0012131875C3
:100EF0003A117590FFC2922097147F147E0012134E
:100F0000183097FD7F147E00121318753A02209650
:100F1000147F147E001213183096FD7F147E001289
:100F20001318753A052095147F147E00121318309B
:100F300095FD7F147E00121318753A082094147FD3
:100F4000147E001213183094FD7F147E00121318C3
:100F5000753A0A7590FFC2912097147F147E001293
:100F600013183097FD7F147E00121318753A032072
:100F700096147F147E001213183096FD7F147E00A5
:100F8000121318753A062095147F147E0012131858
:100F90003095FD7F147E00121318753A09209414C1
:100FA0007F147E001213183094FD7F147E001213FC
:100FB00018753A127590FFC2902097147F147E0026
:100FC0001213183097FD7F147E00121318753A140F
:100FD0002096147F147E001213183096FD7F147E25
:100FE00000121318753A152095147F147E00121301
:100FF000183095FD7F147E00121318753A16209450
:10100000147F147E001213183094FD7F147E00129A
:101010001318753A17AF3A22787FE4F6D8FD758138
:101020005502105F020BC3E493A3F8E493A34003BB
:10103000F68001F208DFF48029E493A3F854072432
:101040000CC8C333C4540F4420C8834004F45680F2
:101050000146F6DFE4800B01020408102040809076
:1010600013B8E47E019360BCA3FF543F30E50954FC
:101070001FFEE493A360010ECF54C025E060A8409A
:10108000B8E493A3FAE493A3F8E493A3C8C582C891
:10109000CAC583CAF0A3C8C582C8CAC583CADFE966
:1010A000DEE780BEEF24FFFFEE34FFFE3395E08FD6
:1010B000498E48F547F5467F0A7E007D007C008F0B
:1010C000458E448D438C42E4754E01F54DF54CF54B
:1010D0004BF54AAF4AE4FCFDFEAB49AA48A947A834
:1010E00046D31206F7401FAF4EAE4DAD4CAC4BABE6
:1010F00045AA44A943A8421205CC8F4E8E4D8D4C73
:101100008C4B054A80CDAF4EAE4DAD4CAC4B22D290
:101110008C20B2FDC28CAD8AAF8CEFFE7C00E42D3A
:10112000FFEC3EAB07FA749A2BFB74033AFAAF0A52
:101130007E007C037DE8120565EF2BFFEE3AFEE4AE
:101140008F3D8E3CF53BF53A758A66758CFC7F1EAB
:10115000FE1212BCE47FD07E84FDFCAB3DAA3CA90C
:101160003BA83A1205CCE47B207A4EF9F8120657D8
:101170008F3D8E3C8D3B8C3A228C3A8D3BAD07AC3B
:1011800006E41200B3A804A905AA06AB077F007EF7
:10119000507DC37C471200111200ECAB07AA06AECB
:1011A0003AAF3BAD03AC021205777C007D641205BB
:1011B00065AD07AC06900000C3E5829DE5839C50B9
:1011C0000CB2B6AF03AE0212139CA380EB22C2D5C1
:1011D000E830E70FB2D5E4C39BFBE49AFAE499F94F
:1011E000E498F8EC30E717B2D5121204120657E46F
:1011F000C39BFBE49AFAE499F9E498F88003120699
:101200005730D50DE4C39FFFE49EFEE49DFDE49CB2
:10121000FC221212FA854041AF417E00D3EF9400C8
:101220007480948040261210A4AB07AA06A905A8D2
:1012300004AF3FAE3EAD3DAC3C120657E47B0AFA2C
:10124000F9F8120657121334154180CC22EFB40A74
:1012500007740D121258740A309811A899B8130C1B
:10126000C2983098FDA899C298B811F63099FDC27D
:1012700099F599228B3A8A3B893CAB3AAA3BA93C27
:1012800012050D6013053CE53C7002053B14F91294
:10129000050DFF1213B080E2228B3A8A3B893C1283
:1012A00012FAE4FDAB3AAA3BA93C8D827583001289
:1012B0000526FF60061213380D80E922EF1FAA06EB
:1012C00070011ED39400EA9400400FE4FDEDC39436
:1012D0007D7480948050E50D80F322C0E0C28D754E
:1012E0008A66758CFC050AE50A6412700AC28C7560
:1012F0008A66758CFCF50AD0E032AE07EEFB7A0008
:1013000064017004ED148009EB64024A7009ED2455
:101310003F4480FF1213A622EF1FAC0670011E4C43
:10132000600A7D027CC7DCFEDDFC80EC22E4FAF979
:10133000F81211CEEB2430FFD28712137FC2850240
:101340001385C2A5E4FFEFC3942A748094805004EF
:10135000000F80F2D2A5227F381213A67F0C121341
:10136000A67F061213A67F010213A6D2AF758920AD
:10137000758DFD758BFDD28E75984053877F22C287
:10138000868FA0D2857F027EEFDEFEDFFC2275898C
:1013900001758A66758CFCD2A9D2AF22EF1F70014D
:1013A0001E144E70F722C28712137FC28502138566
:1013B0008F993099FDC2992201080000556C747212
:1013C00061736F6E69630052616E67652046696E76
:1013D000646572004865597557656E00537475648D
:1013E000656E7449443A005F5F5F5F5F5F5F5F5F98
:1013F0005F00202020004F4B2000202020202020B4
:101400002020202020202020200045525200507211
:101410006573732023206B657920746F00537461AA
:101420007274204D6561737572696E670052616EEA
:1014300067696E672C2020202020202000506C65DA
:1014400061736520776169742E2E2E2000446973C4
:1014500074616E63653A00252E326620636D00C4A8
:10146000FAB5C4CAE4C8EBD5FDC8B7A3ACBFC9D2AE
:10147000D4CAB9D3C3B1BEB2FAC6B7A3A10D0A008C
:10148000C4FAB5C4CAE4C8EBD3D0CEF3A3ACC7EB5F
:0D149000D6D8D0C2CAE4C8EBA3A10D0A0053
:00000001FF
