:080000000209CFC292C2902256
:10000B00020BCCE54F2443F8E6054F22784030072E
:10001B00027843E475F0011205FB0205062000EBA4
:10002B007F2ED2008018EF540F2490D43440D4FF8D
:10003B0030040BEF24BFB41A0050032461FFE550CA
:10004B00600215500553E5537002055230070D78C9
:10005B0040E475F0011205FBEF02054C020C5474E1
:10006B0003D2078003E4C207F54F8B408A418942D4
:10007B00E4F550F552F553E55060077F2012004927
:10008B0080F57551FFC201C200C202C203C205C294
:10009B0006C208120017FF700D3007057F00120013
:1000AB005AAF53AE5222B4255FC2D5C20412001709
:1000BB00FF24D0B40A00501A75F00A785030D505D9
:1000CB0008B6FF0106C6A426F620D5047002D2039B
:1000DB0080D924CFB41A00EF5004C2E5D204020237
:1000EB005AD20180C6D20080C0D20280BCD2D58049
:1000FB00BAD20580B47F201200492002077401B5E3
:10010B00500040F112000EFF120049020082D2088B
:10011B00D206809512000EFB12000EFA12000EF999
:10012B004A4B7006792B7A037BFF20022EE5506039
:10013B002A7E008E8275830012051F60060EEE6507
:10014B005170F0C2D5EBC0E0EAC0E0E9C0E0EE12BE
:10015B0002A1D0E0F9D0E0FAD0E0FB120506FF6077
:10016B00AAEBC0E0EAC0E0E9C0E0120049D0E0240D
:10017B0001F9D0E03400FAD0E0FBE5510460DCD5A6
:10018B0051D980877BFF7A02799DD202809C7910AE
:10019B0080027908C206C2088008D2D5790A800489
:1001AB00790AC2D5E551047002F551E4FAFDFEFF60
:1001BB0012000EFC7B0820011312000EFD7B103089
:1001CB00000A12000EFE12000EFF7B20EC3382D5CC
:1001DB0092D55013C3E43000069FFFE49EFEE4204B
:1001EB0001039DFDE49CFCE4CBF8C201EC700CCF49
:1001FB00CECDCCE824F8F870F38017C3EF33FFEEC5
:10020B0033FEED33FDEC33FCEB33FB994002FB0F7C
:10021B00D8E9EB300105F8D0E0C448B201C0E00AE0
:10022B00EC4D4E4F78207B0070C2EAB5510040BCBC
:10023B00C0E01202A3D0F0D0E0200104C4C0E0C49F
:10024B00B201C0F0120032D0F0D5F0EB02008212F6
:10025B00060B011F5301995800F04C00EC42019D15
:10026B004F01A54401A54901054301AB55018F463B
:10027B00018F45018F47034B5000F42D00F82E01E1
:10028B001B2B00FC2301192003342A00B448000067
:10029B0001133F3F3F00790AA2D520031430050913
:1002AB00B910020404B9080104A2D52006025001BA
:1002BB00042002689202B550005034C0E07F203019
:1002CB0003197F30A20272067205500F1202FAC296
:1002DB0002C206C205C2087F30800F300503E9C099
:1002EB00E0120049300503D0E0F9D0E0B550CC3036
:1002FB0005177F30B9100C1200497F583004077F67
:10030B00788003B908031200493002057F2D0200E3
:10031B00497F202008F87F2B2006F322920280CF02
:10032B00286E756C6C2900D20112000E3001F8C2D8
:10033B0001785030D50108F60200B42D50434958CE
:10034B0012000E2403B405004001E49003469312FF
:10035B00003A743A12003AD203755004020199E440
:10036B00FDFC7F8E120A60E50875F00A1204E4FFAB
:10037B003395E0FEEFC4F8540FC868FFEEC454F099
:10038B0048FEE50875F00A1204E4ADF0ED3395E094
:10039B00FCEF7F8C120A5BE50975F00A1204E4FF8F
:1003AB003395E0FEEFC4F8540FC868FFEEC454F069
:1003BB0048FEE50975F00A1204E4ADF0ED3395E063
:1003CB00FCEF7F88120A5BE50A75F00A1204E4FF62
:1003DB003395E0FEEFC4F8540FC868FFEEC454F039
:1003EB0048FEE50A75F00A1204E4ADF0ED3395E032
:1003FB00FCEF2DFDEE3CFC7F86120A60E50B75F0E1
:10040B000A1204E4FF3395E0FEEFC4F8540FC868FA
:10041B00FFEEC454F048FEE50B75F00A1204E4AD90
:10042B00F0ED3395E0FCEF2DFDEE3CFC7F84120AE2
:10043B0060E50C75F00A1204E4FF3395E0FEEFC49F
:10044B00F8540FC868FFEEC454F048FEE50C75F085
:10045B000A1204E4ADF0ED3395E0FCEF2DFDEE3C1C
:10046B00FC7F82120A60E50D75F00A1204E4FF337B
:10047B0095E0FEEFC4F8540FC868FFEEC454F04883
:10048B00FEE50D75F00A1204E4ADF0ED3395E0FCDA
:10049B00EF2DFDEE3CFC7F80120A60E50E75F00A35
:1004AB001204E4FF3395E0FEEFC4F8540FC868FF65
:1004BB00EEC454F048FEE50E75F00A1204E4ADF0FC
:1004CB00ED3395E0FCEF2DFDEE3CFC7F8A120A60CC
:1004DB007D807C007F8E020A60C2D530F707B2D5D3
:1004EB0063F0FF05F030E70CB2D5F4048463F0FF42
:1004FB0005F080018430D502F40422BB0106898209
:10050B008A83E0225002E722BBFE02E32289828A21
:10051B0083E49322BB010CE58229F582E5833AF54E
:10052B0083E0225006E92582F8E622BBFE06E92588
:10053B0082F8E222E58229F582E5833AF583E4939A
:10054B0022BB010689828A83F0225002F722BBFE6E
:10055B0001F322EF8DF0A4A8F0CF8CF0A428CE8D60
:10056B00F0A42EFE22BC000BBE0029EF8DF084FF01
:10057B00ADF022E4CCF875F008EF2FFFEE33FEEC74
:10058B0033FCEE9DEC984005FCEE9DFE0FD5F0E99B
:10059B00E4CEFD22EDF8F5F0EE8420D21CFEADF09A
:1005AB0075F008EF2FFFED33FD4007985006D5F09F
:1005BB00F222C398FD0FD5F0EA22C2D5EC30E70941
:1005CB00B2D5E4C39DFDE49CFCEE30E715B2D5E457
:1005DB00C39FFFE49EFE120570C3E49DFDE49CFCEB
:1005EB00800312057030D507C3E49FFFE49EFE2203
:1005FB00FAE6FB0808E6F925F0F618E6CA3AF62201
:10060B00D083D082F8E4937012740193700DA3A37E
:10061B0093F8740193F5828883E473740293686092
:10062B00EFA3A3A380DFAF177E00EF6402700B056F
:10063B0014E51475F0098485F014EF64034E70090A
:10064B0074082514F8061208A9E5176404700974D8
:10065B00082514F8161208A9E4F522E522FB7A0006
:10066B00C3940974809480400302073AE514652211
:10067B007038E5166034E52225E024D7F582E434A2
:10068B000DF583E493FFE52225E024D8F582E434CD
:10069B000DF583E493FDEB64067BFF60077A0D7920
:1006AB00A20207327A0D79A5807DE52264066033BC
:1006BB00E52225E024D7F582E4340DF583E493FF9E
:1006CB00E52225E024D8F582E4340DF583E493FD8F
:1006DB0074082522F8E6FB3395E0FA754402120BF9
:1006EB008A8047E52225E024D7F582E4340DF58393
:1006FB00E493FCE52225E024D8F582E4340DF58360
:10070B00E493FDE50E75F0071204E4AFF0EF3395BB
:10071B00E0FEEF7802C333CE33CED8F924E9F97477
:10072B000D3EFA7BFFAF04120CC4052202066622B3
:10073B001209427543FF75440D754575AF08EF33CC
:10074B0095E0F5468F47AF09EF3395E0F5488F49B4
:10075B00AF0AEF3395E0F54A8F4BE50E75F00712B4
:10076B0004E4AFF0EF3395E0FEEF7802C333CE3302
:10077B00CED8F924E9F9740D3E754CFFF54D894E31
:10078B007B007A00792212006A7543FF75440D7560
:10079B004589AF0BEF3395E0F5468F47AF0CEF3341
:1007AB0095E0F5488F49AF0DEF3395E0F54A8F4B48
:1007BB00AF0FEF3395E0F54C8F4DAF10EF3395E066
:1007CB00F54E8F4F7B007A00793112006A7B007AED
:1007DB000079227D017F01120CC47B007A007931F4
:1007EB007D017F02120CC4900DE7E493FFA3E49309
:1007FB00FDE510FB3395E0FA754402020B8A120CEF
:10080B007B120D31120003120D057BFF7A0D79A9B6
:10081B007D017F01120CC47FE87E03120D1C7BFF50
:10082B007A0D79AF7D017F01120CC47BFF7A0D79B4
:10083B00BA7D017F02120CC47FE87E03120D1C7B74
:10084B00FF7A0D79C37D017F01120CC47BFF7A0DFA
:10085B0079CE7D017F02120CC47FE87E03120D1C42
:10086B0012036A120AC98F17EF64017016E515603F
:10087B000512036A8003751400E5157F0070027F73
:10088B00018F15E5156005120631800312073BE554
:10089B000BB50FCFE50CB510CA120C7B80C57B00D6
:1008AB007A0079087D64120CA07A00097D0C120C79
:1008BB0003AF09EF3395E0FEEF64024E70167A003A
:1008CB0009E50875F0041204E4AFF0EF7D1D60023A
:1008DB007D1C802D7B007A00790AE50914FF7E00D0
:1008EB007401A807088005C333CE33CED8F9FF9027
:1008FB000E05E4935EFE7401935F4E7D1E60027DD8
:10090B001F120C037B007A00790B7D18120CA07A56
:10091B0000097D3C120CA07A00097D3C120CA07AD8
:10092B0000097D07120C037A00097D18120CA07ABE
:10093B0000097D3C020CA07F8C120B2AEFC4540FD4
:10094B0075F00AA4FEEF540F2EF5087F88120B2AC0
:10095B00EFC4540F75F00AA4FEEF540F2EF5097F68
:10096B0086120B2AEFC4540F75F00AA4FEEF540F36
:10097B002EF50A7F84120B2AEFC4540F75F00AA4CC
:10098B00FEEF540F2EF50B7F82120B2AEFC4540F80
:10099B0075F00AA4FEEF540F2EF50C7F80120B2A74
:1009AB00EFC4540F75F00AA4FEEF540F2EF50D7F14
:1009BB008A120B2AEFC4540F75F00AA4FEEF540FE2
:1009CB002EF50E22787FE4F6D8FD758153020A16B8
:1009DB00020809E493A3F8E493A34003F68001F221
:1009EB0008DFF48029E493A3F85407240CC8C3331D
:1009FB00C4540F4420C8834004F456800146F6DFEC
:100A0B00E4800B0102040810204080900D54E47E1A
:100A1B00019360BCA3FF543F30E509541FFEE493E0
:100A2B00A360010ECF54C025E060A840B8E493A3A7
:100A3B00FAE493A3F8E493A3C8C582C8CAC583CAD2
:100A4B00F0A3C8C582C8CAC583CADFE9DEE780BE8A
:100A5B002DFDEE3CFC8C228D23AB07D292E4FDEDF9
:100A6B00C394087480948050227E007401A80508FA
:100A7B008005C333CE33CED8F9FFEBF582EF558229
:100A8B0024FF9291D290C2900D80D4E4FDEDC394DB
:100A9B00087480948050247E007401A8050880059A
:100AAB00C333CE33CED8F9FFE5225EFEE5235F4E8E
:100ABB0024FF9291D290C2900D80D2C29222E4F583
:100ACB002220B5137F14FE120D1C30B5FD7F147E52
:100ADB0000120D1C75220120B4147F147E00120D20
:100AEB001C30B4FD7F147E00120D1C75220220B346
:100AFB00147F147E00120D1C30B3FD7F147E001288
:100B0B000D1C75220320B2147F147E00120D1C30B5
:100B1B00B2FD7F147E00120D1C752204AF2222AD94
:100B2B0007E4F9430501D292FBEBC394087480945C
:100B3B008050227E007401A803088005C333CE3396
:100B4B00CED8F9FFEDF582EF558224FF9291C2903A
:100B5B00D2900B80D4E4FBEBC39408748094805048
:100B6B0017D290C29030910DA8037401088002C374
:100B7B0033D8FC42010B80DFC292C291AF01228AB3
:100B8B00428B43120CE7AA44EAFF7E00D394007415
:100B9B00809480402BEF24FFFDEE34FFFC7F0A1284
:100BAB000C2DAC42AD43CFCDCFCECCCE1205707C4D
:100BBB00007D0A120570ED2430FF120D6B1A80C8F0
:100BCB0022C0E0C0D075D000C007758A18758CFCA8
:100BDB000513E51370020512C394F4E5129401405A
:100BEB0010751200751300E5167F0070027F018FE0
:100BFB0016D007D0D0D0E0328D268B238A248925BE
:100C0B00120506FF3395E0FEED3395E0FCEF2DFF6B
:100C1B00EE3CCF24FFCF34FFFE1205C5ED04FF02DF
:100C2B00054C8E458F468C478D487F017E00E4FB3B
:100C3B00EBC39548E5476480F8748098500AAC453F
:100C4B00AD4612055E0B80E822EFB40A07740D1255
:100C5B000C5F740A309811A899B8130CC29830988D
:100C6B00FDA899C298B811F63099FDC299F5992251
:100C7B00E4FFEFC394C874809480501875220075FC
:100C8B0023F7B2B6E5231523700215221445227003
:100C9B00F30F80DE228D268B238A248925120506ED
:100CAB00FF3395E0FEED3395E0FCEF2DFFEE3CFEC0
:100CBB001205C5AF05EF02054C8B408A41894212E4
:100CCB000CE7E4FDAB40AA41A9428D82758300126B
:100CDB00051FFF6006120D6B0D80E922AE07EEFBC0
:100CEB007A0064017004ED148009EB64024A700908
:100CFB00ED243F4480FF120D61225389F04389019B
:100D0B00758A18758CFCC28DD28CD2A9D2AFC2B9A0
:100D1B0022EF1FAC0670011E4C600A7D027CEFDCDB
:100D2B00FEDDFC80EC227F38120D617F0C120D6111
:100D3B007F06120D617F01020D61C2868FA0D285E5
:100D4B007F027EEFDEFEDFFC220A08150607013963
:100D5B003701173A0000C287120D45C285020D4BB1
:100D6B00D287120D45C285020D4B323025303264CD
:100D7B002F253032642F2530326420257300253027
:100D8B0032643A253032643A2530326420253032D1
:100D9B00643A253032640020200020202000436C70
:100DAB006F636B0031393030313030333133005AAF
:100DBB0068616E674C696E003139303031303033D9
:100DCB0031300054754D696E20202000010301065F
:100DDB000109020102040207010C020A020D53551C
:100DEB004E004D4F4E005455450057454400544856
:0C0DFB00550046524900534154000AD5EF
:00000001FF
