:10000000020D58AE07EEFB7A0064017004ED148017
:1000100009EB64024A7009ED243F4480FF12128B01
:0100200022BD
:1000230002108202036EE86480F8E933E83360115A
:100033000460F0ED33EC337009E8FCE9FDEAFEEB14
:10004300FF220460DED3EB9FEA9EE99DE8C2E78CC2
:10005300F0C2F795F0400CE8CCF8E9CDF9EACEFA16
:10006300EBCFFB12033985D0F05804700320D5B3CE
:10007300E80470075002B2D502037892D5EC04600D
:10008300F7E4CCC0E0C398F8603B94186008400DD7
:10009300D0E0FB020350E4FBFAC9FC8028E830E41B
:1000A30006E4C9FBE4CAFCE830E305E4C9CACBFCB7
:1000B300E854076010F8C3E913F9EA13FAEB13FBEA
:1000C300EC13FCD8F130F52FC3E49CFCEF9BFFEE5F
:1000D3009AFEED99FDD0E0FBEF4E4D4C701222DB02
:1000E30003020375EC2CFCEF33FFEE33FEED33FD1F
:1000F300ED30E7EB020350EF2BFFEE3AFEED39FD57
:10010300D0E0FB50130BBB0003020378ED13FDEEAD
:1001130013FEEF13FFEC13FC020350EC4D6011E8E8
:10012300497017ED33EC3304600DE4FCFFFEFD2250
:10013300E933E8330470F802036E1203395804609C
:1001430009E4CC248150062850090203782840038F
:10015300020375C0E0EB4A7044B98006D0E0FB02AD
:100163000364EF4E701CBD8008EBFFEAFEE9FD80DF
:10017300EBE98DF0A4FEE5F0020207E9CDF9EAFE12
:10018300EBFFEF89F0A4FCE5F0CE89F0A42EFFE4A9
:1001930035F0CD89F0A42DFEE435F08067EF4E7085
:1001A30005BD80D780C3EF8BF0A4ACF0EE8BF0A439
:1001B3002CFCE435F0F8EF8AF0A42CE5F038FCE4ED
:1001C30033CB8DF0A42CFCE5F03BF8EE8AF0A42CA5
:1001D300FCE5F038F8E433CF89F0A42CFCE5F038E3
:1001E300CF3400CE89F0A42FFFE5F03EFEE433C9FF
:1001F3008DF0A42EFEE5F039CD8AF0A42FFFE5F0B3
:100203003EFEE43DFD33D0E0FB50070BBB000F0285
:100213000378EC2CFCEF33FFEE33FEED33FD0203EA
:1002230050020378EC5D046005E85904700302038F
:100233006E120339580460F6EC4860F2EC7004FD6A
:10024300FEFF22C860DB2481C85009C398600250B6
:10025300060203759850CAF582E9294B4A7005AB2B
:100263008202036475F0007C1A7880C3EF9BEE9AD8
:10027300ED99400DC3EF9BFFEE9AFEED99FDE84229
:10028300F0DC23ACF0D0E0FFD0E0FED0E0FDAB82A9
:1002930020E7101BEB60BAEC2CFCEF33FFEE33FED0
:1002A300ED33FD020350E803F830E705C0F075F0C5
:1002B30000EF2FFFEE33FEED33FD40B830E7C28091
:1002C300AA75F020800E75F010800575F0087D008A
:1002D3007E007F003392D530D503120701EC334003
:1002E30010EF33FFEE33FEED33FDEC33FCD5F0EDD1
:1002F30022E5F0247EA2D513CC92E7CDCEFF22EDEA
:10030300D2E7CD33EC3392D524814006E4FFFEFDE2
:10031300FC22FCE4CFCECDCC24E0501174FF80ED61
:10032300C3CC13CCCD13CDCE13CECF13CF0470F0EB
:1003330030D5DE020701E9D2E7C933E833F892D5B5
:10034300EDD2E7CD33EC33FC5002B2D522EC30E7EB
:10035300100FBF000C0EBE00080DBD00040BEB60B8
:1003630014A2D5EB13FCED92E7FD2274FFFCFDFE16
:10037300FF22E480F8A2D574FF13FC7D80E480EFB4
:10038300F920E72824F950037907E4F42402FB1841
:10039300DBFDE624FB5014E9600DE4F618E604F6F1
:1003A300B40A08E4F6D9F57401F60A22C2D522ED9F
:1003B30033EC3392D5FA602AB4FF33EDC2E77BFF07
:1003C30060067A0379D7E4227A0379E020D5047AA8
:1003D3000379DB224E614E002B494E46002D494ED8
:1003E3004600E47A08F608DAFC7B00740722E8C0CA
:1003F300E0ECC0E0EDC0E0EEC0E0EFC0E0EA75F095
:1004030010A4CAABF075F04DA42BFBE435F0FCEA65
:100413002410FAEB34C5FBEC34D9FCEDC2E7FF75CD
:10042300F056A4F42411C5F0F434C58FF0A42AE5E2
:10043300F03BE43CF620E7141204E5D0E0FFD0E003
:10044300FED0E0FDD0E0FC1202278014F404120475
:10045300E5D0E0FFD0E0FED0E0FDD0E0FC12011ECD
:10046300D0E0F8E6FAEDD2E7CD33EC332482FBE4B7
:10047300C3CF33CFCE33CECD33CD33DBF37B077551
:10048300F00A846004F6081B0AE5F0F6088FF0749E
:100493000AA4FFACF08EF0740AA42CFEACF0500159
:1004A3000C8DF0740AA42CFDE435F0F608DBDE7441
:1004B30007223F8000004120000042C80000447A28
:1004C3000000461C400047C35000497424004B18E9
:1004D30096804CBEBC205A0E1BCA6753C21C749D27
:1004E300C5AEFB60065407601C2323120513EB54AF
:1004F3003860091204FF12050E12011EECF8EDF923
:10050300EEFAEFCB22EB12050E80F1543803241CD4
:100513009004B5FE93FC0EEE93FD0EEE930ECE9378
:10052300FF22BB010689828A83E0225002E722BBB5
:10053300FE02E32289828A83E49322BB010CE582D3
:1005430029F582E5833AF583E0225006E92582F80E
:10055300E622BBFE06E92582F8E222E58229F5823E
:10056300E5833AF583E49322BB010689828A83F00B
:10057300225002F722BBFE01F322EF8DF0A4A8F074
:10058300CF8CF0A428CE8DF0A42EFE22BC000BBE8F
:100593000029EF8DF084FFADF022E4CCF875F0086C
:1005A300EF2FFFEE33FEEC33FCEE9DEC984005FCA1
:1005B300EE9DFE0FD5F0E9E4CEFD22EDF8F5F0EE69
:1005C3008420D21CFEADF075F008EF2FFFED33FD54
:1005D3004007985006D5F0F222C398FD0FD5F0EAF4
:1005E30022E88FF0A4CC8BF0A42CFCE98EF0A42C91
:1005F300FC8AF0EDA42CFCEA8EF0A4CDA8F08BF0DD
:10060300A42DCC3825F0FDE98FF0A42CCD35F0FCDA
:10061300EB8EF0A4FEA9F0EB8FF0A4CFC5F02ECDA6
:1006230039FEE43CFCEAA42DCE35F0FDE43CFC228B
:1006330075F008758200EF2FFFEE33FECD33CDCC7E
:1006430033CCC58233C5829BED9AEC99E582984001
:100653000CF582EE9BFEED9AFDEC99FC0FD5F0D6DE
:10066300E4CEFBE4CDFAE4CCF9A88222B800C1B908
:100673000059BA002DEC8BF084CFCECDFCE5F0CB46
:10068300F97818EF2FFFEE33FEED33FDEC33FCEB7F
:1006930033FB10D703994004EB99FB0FD8E5E4F93A
:1006A300FA227818EF2FFFEE33FEED33FDEC33FC27
:1006B300C933C910D7059BE99A4007EC9BFCE99A1B
:1006C300F90FD8E0E4C9FAE4CCFB2275F010EF2F60
:1006D300FFEE33FEED33FDCC33CCC833C810D70760
:1006E3009BEC9AE899400AED9BFDEC9AFCE899F89B
:1006F3000FD5F0DAE4CDFBE4CCFAE4C8F922C3E485
:100703009FFFE49EFEE49DFDE49CFC22EB9FF5F03D
:10071300EA9E42F0E99D42F0EC6480C8648098450B
:10072300F022FAE6FB0808E6F925F0F618E6CA3ADD
:10073300F622D083D082F8E4937012740193700D83
:10074300A3A393F8740193F5828883E473740293EB
:100753006860EFA3A3A380DFE560244CF8E605609F
:10076300227849301002784CE475F0011207250213
:1007730005252009EB7F2ED2098018EF540F249012
:10078300D43440D4FF300D0BEF24BFB41A00500310
:100793002461FFE561600215610564E5647002058B
:1007A3006330100D7849E475F001120725EF020557
:1007B3006B0211307403D2108003E4C210F5608B16
:1007C300498A4A894BE4F561F563F564E56160079D
:1007D3007F2012079680F57562FFC20AC209C20B19
:1007E300C20CC20EC20FC211120764FF700D30108B
:1007F300057F001207A7AF64AE6322B4255FC2D59D
:10080300C20D120764FF24D0B40A00501A75F00A0F
:10081300786130D50508B6FF0106C6A426F620D5B3
:10082300047002D20C80D924CFB41A00EF5004C252
:10083300E5D20D020A94D20A80C6D20980C0D20B37
:1008430080BCD2D580BAD20E80B47F201207962006
:100853000B077401B5610040F112075BFF120796A5
:100863000207CFD211D20F809512075BFB12075BF1
:10087300FA12075BF94A4B7006798B7A0B7BFF20E0
:100883000B2EE561602A7E008E8275830012053E81
:1008930060060EEE656270F0C2D5EBC0E0EAC0E020
:1008A300E9C0E0EE120AF4D0E0F9D0E0FAD0E0FBC0
:1008B300120525FF60AAEBC0E0EAC0E0E9C0E01240
:1008C3000796D0E02401F9D0E03400FAD0E0FBE54C
:1008D300620460DCD562D98087D20B80A2120AD76A
:1008E30060F7E562700104120383A962600DE5629B
:1008F300600914F562120B7EEF60F3EA30E702F44D
:1009030004C3995077EAF425620430E701E404F55F
:1009130062800D120AD760C1EA0562256212038361
:10092300EA785FF630E701E4256204D56204200E1D
:100933000114120AF4E4C0E0120B7E785FE6601340
:1009430020E70714F612077E802204F6D0E014C0D5
:10095300E07F0012077EE56260071207751562806B
:100963000B300E03120775D0E00207CFD0E00480EE
:10097300C5120AD760A0E56204120383785FEAF622
:10098300E562200E026001042404120AF474FF04D9
:10099300C0E0120B7E12077EE562200E0260031296
:1009A3000775D0E0B562E87F45120788785FE67F78
:1009B3002B30E7047F2DF404C0E0120796D0E075D6
:1009C300F00A84C0F012077FD0E012077F0207CF3E
:1009D300791080027908C20FC2118008D2D5790A32
:1009E3008004790AC2D5E562047002F562E4FAFD77
:1009F300FEFF12075BFC7B08200A1312075BFD7BDB
:100A03001030090A12075BFE12075BFF7B20EC33F1
:100A130082D592D55013C3E43009069FFFE49EFEAE
:100A2300E4200A039DFDE49CFCE4CBF8C20AEC70CD
:100A33000CCFCECDCCE824F8F870F38017C3EF3396
:100A4300FFEE33FEED33FDEC33FCEB33FB99400259
:100A5300FB0FD8E9EB300A05F8D0E0C448B20AC06E
:100A6300E00AEC4D4E4F78207B0070C2EAB562007D
:100A730040BCC0E0120AF6D0F0D0E0200A04C4C0A3
:100A8300E0C4B20AC0F012077FD0F0D5F0EB020742
:100A9300CF120735086C5309D358083D4C08394227
:100AA30009D74F09DF4409DF4908524309E55509CE
:100AB300164609744508E0470BAB5008412D08451D
:100AC3002E08682B0849230866200B942A0801483E
:100AD30000000860E562B4FF0375620612075BFC61
:100AE30012075BFD12075BFE12075BFF78580203D8
:100AF300B2790AA2D5200C14300E09B910020404ED
:100B0300B9080104A2D5200F02500104200B6892FA
:100B13000BB561005034C0E07F20300C197F30A248
:100B23000B720F720E500F120B4DC20BC20FC20E7F
:100B3300C2117F30800F300E03E9C0E012079630F8
:100B43000E03D0E0F9D0E0B561CC300E177F30B999
:100B5300100C1207967F58300D077F788003B90871
:100B630003120796300B057F2D0207967F20201175
:100B7300F87F2B200FF322920B80CF7F00B4070066
:100B830050052458F8E6FF22286E756C6C2900D2B4
:100B93000A12075B300AF8C20A786130D50108F6F9
:100BA3000208012D5043495812075B2403B4050082
:100BB3004001E4900BA693120787743A120787D279
:100BC3000C7561040209D3201203020C987BFF7A8F
:100BD3001279D87D017F011211A07BFF7A1279E788
:100BE3007D017F021211A07BFF7A1379491212242F
:100BF300120C998F488E478D468C457FF47E0112E7
:100C03001253754CFF754D12754EF6854852854744
:100C13005185465085454F7553DF7B017A0079171F
:100C23001207B7754CFF754D12754EFF85485285F7
:100C3300475185465085454F7553A17554E37B0154
:100C43007A0079211207B77F0112128B7BFF7A1387
:100C5300790C7D017F011211A07B017A0079177D48
:100C6300017F021211A07BFF7A13796F1212247B8A
:100C7300017A0079211212247DDC7C007F707E03CF
:100C8300120F1B7F207E031212537DDC7C007F70CA
:100C93007E03120F1B22E4F54AFBFFF54B1211E60C
:100CA3007FCC12117D7F4412117D7F6412129F123B
:100CB30011E67FCC12117D7FBE12117D7F6412126B
:100CC3009F121157AB07121157EFD3947F7480947F
:100CD30080400BEFF404FFEBF404FB754A01EFC40F
:100CE30054F0F549EB54F0C4540F2549F549EB543E
:100CF3000FFFFCE41202CEE4FBFA79C8784012013C
:100D03001E120302AC07E41202CE7B0A7AD77923C0
:100D1300783C12011EC004C005C006C007AC49E4FC
:100D23001202CED003D002D001D00012002D8F4F7B
:100D33008E4E8D4D8C4CE54A6012E4FBFA79807837
:100D4300BF12011E8F4F8E4E8D4D8C4CAF4FAE4E4A
:100D5300AD4DAC4C22787FE4F6D8FD758164020D6D
:100D63009F020DE4E493A3F8E493A34003F6800108
:100D7300F208DFF48029E493A3F85407240CC8C3D2
:100D830033C4540F4420C8834004F456800146F60C
:100D9300DFE4800B01020408102040809012A6E4D7
:100DA3007E019360BCA3FF543F30E509541FFEE46A
:100DB30093A360010ECF54C025E060A840B8E4932C
:100DC300A3FAE493A3F8E493A3C8C582C8CAC5836E
:100DD300CAF0A3C8C582C8CAC583CADFE9DEE780F3
:100DE300BE7DF47C017F707E03120F1B121268120A
:100DF30012077BFF7A1379197D017F011211A07FFE
:100E0300E87E031212537F011211C37BFF7A137919
:100E1300257D017F011211A07BFF7A1379307D01BB
:100E23007F021211A07FE87E031212537BFF7A1315
:100E330079377D017F011211A07BFF7A1379427DFF
:100E4300017F021211A07FE87E03121253D209120E
:100E53000EC5120E648F44E5441470F6120BCA805B
:100E6300F1E4F54520B5137F14FE12125330B5FD9E
:100E73007F147E0012125375450120B4147F147E33
:100E83000012125330B4FD7F147E001212537545C5
:100E93000220B3147F147E0012125330B3FD7F146B
:100EA3007E0012125375450320B2147F147E001284
:100EB300125330B2FD7F147E00121253754504AFF6
:100EC30045227F0112128B7BFF3009067A1279A922
:100ED30080047A1279B97D017F011211A07BFF3062
:100EE30009067A1279C580047A1279D27D017F02CC
:100EF3001211A07BFF3009067A13797A80047A13E2
:100F0300796212122420090B7DF47C017FB87E01E3
:100F1300120F1BA2099212228C498D4AAD07AC060F
:100F2300E41202C9A804A905AA06AB077F007E50F4
:100F33007DC37C47120227120302AB07AA06AE4900
:100F4300AF4AAD03AC0212058F7C007D6412057DB0
:100F5300AD07AC06900000C3E5829DE5839C500C71
:100F6300B2B6AF03AE02121295A380EB228B238A93
:100F73002489257F01AB23AA24A9258F82758300A9
:100F830012053E60030F80EDE4FEEEC39F5022ABDB
:100F930023AA24A9258E8275830012053EFD742E93
:100FA3002EF582E43400F583E06D6002C3220E80E7
:100FB300D9D3227B017A00792EE4FFC200E599128E
:100FC300056BE4FEC2980F0429F9E43AFA20980D60
:100FD3000EEED394827480948040F2D200EFFD33FE
:100FE30095E0FCC3ED9413EC6480948050033000CF
:100FF300CAE412056BD322E4FFEFC3941474809404
:10100300805037742E2FF582E43400F583E0FD33EE
:1010130095E0FCC3ED9441EC648094804019D3EDDA
:10102300945AEC64809480500E742E2FF582E4342D
:1010330000F583E02420F00F80BF22C2D5E830E71B
:101043000FB2D5E4C39BFBE49AFAE499F9E498F868
:10105300EC30E717B2D512107412066FE4C39BFB92
:10106300E49AFAE499F9E498F8800312066F30D50C
:101073000DE4C39FFFE49EFEE49DFDE49CFC22C0BF
:10108300E0C0F0C083C082C0D075D000C000C001F2
:10109300C002C003C004C005C006C007120FB6508B
:1010A300031210C4C298D007D006D005D004D003D1
:1010B300D002D001D000D0D0D082D083D0F0D0E005
:1010C30032120FFA7BFF7A1379C3120F7040012299
:1010D300900036E0FF3395E0FEC3EF9430EE64807A
:1010E30094804012D3EF9439EE648094805007E0EB
:1010F30024D0FF0210FBC3228F237E00C3EF940191
:1011030074809480400AD3EF9402748094804002E8
:10111300C322EF64014E7005120BCA800EE52364EF
:10112300027008A212B39209120EC5D322EFB40AB9
:1011330007740D12113B740A309811A899B8130C57
:10114300C2983098FDA899C298B811F63099FDC29B
:1011530099F59922E4FC7D08EDD394007480948082
:101163004015C290EC13FCD2903090034304807F6F
:101173000412129F1D80E1AF0422AD077B08EBD35D
:101183009400748094804014C290ED1392907F0574
:1011930012129FD290EDC313FD1B80E2228B498A6A
:1011A3004A894B120003E4FDAB49AA4AA94B8D823D
:1011B30075830012053EFF60061212490D80E92275
:1011C300EFFD7C00C39401748094804015D3ED94AB
:1011D3000274809480500B7BFF7A1379B27D0112E5
:1011E30011A022E4FDD2907F0812129FC2907F507B
:1011F30012129FD2907F0E12129FA290E433FD7FB2
:101203001402129FD2AF7598504389205389EF750A
:101213008DFA758BFA438780D28EC299C298D2AC6D
:1012230022C2AC1205256010F5993099FDC299745C
:101233000129F9E43AFA80EBD2AC22E4FAF9F81284
:10124300103EEB2430FFD28712127CC28502128239
:10125300EF1FAC0670011E4C600A7D027CC7DCFEEA
:10126300DDFC80EC227F3812128B7F0C12128B7FF5
:101273000612128B7F0102128BC2868FA0D2857F4A
:10128300027EEFDEFEDFFC22C28712127CC28502E1
:101293001282EF1F70011E144E70F722AE071FEE6D
:1012A30070FA22C192005072657373205331204B40
:1012B300657920746F004D6561737572656D656E38
:1012C30074004D6561737572652054656D70004FD0
:1012D30076657221004D6561737572696E6720547E
:1012E300656D7000506C6561736520576169742E7C
:1012F3002E2E00252E32662025634300252E3266CE
:101303002025632563430D0A0054656D7065726182
:10131300747572653A00546865726D6F6D657465B6
:101323007200313930303130303332390048754A48
:10133300696E67003139303031303033333500482E
:101343006557656E2000D5FDD4DAB2E2C1BFCEC2C7
:10135300B6C8A3ACC7EBB5C8B4FDA3A10D0A00B2D0
:10136300E2C1BFBDE1CAF8A3A10D0A00B5B1C7B080
:10137300CEC2B6C8A3BA00B0B4CFC220533120B096
:10138300B4BCFCBBF2CAB9D3C3B4AEBFDAB7A2CB09
:10139300CDA1B0436F6D6D616E642031A1B1BFAA61
:1013A300CABCB2E2C1BFCEC2B6C8A1A30D0A002017
:1013B300202020202020202020202020202020004A
:0913C300636F6D6D616E64200022
:00000001FF
