:10000000020E7CAE07EEFB7A0064017004ED1480F2
:1000100009EB64024A7009ED243F4480FF1212C8C4
:0100200022BD
:10002300021126EC4D6011E8497017ED33EC3304EF
:10003300600DE4FCFFFEFD22E933E8330470F802AF
:10004300027612024158046009E4CC248150062848
:10005300500902028028400302027DC0E0EB4A708F
:1000630044B98006D0E0FB02026CEF4E701CBD80E9
:1000730008EBFFEAFEE9FD80EBE98DF0A4FEE5F075
:1000830002010FE9CDF9EAFEEBFFEF89F0A4FCE5ED
:10009300F0CE89F0A42EFFE435F0CD89F0A42DFE37
:1000A300E435F08067EF4E7005BD80D780C3EF8BDA
:1000B300F0A4ACF0EE8BF0A42CFCE435F0F8EF8A5E
:1000C300F0A42CE5F038FCE433CB8DF0A42CFCE554
:1000D300F03BF8EE8AF0A42CFCE5F038F8E433CFDB
:1000E30089F0A42CFCE5F038CF3400CE89F0A42F9E
:1000F300FFE5F03EFEE433C98DF0A42EFEE5F039B2
:10010300CD8AF0A42FFFE5F03EFEE43DFD33D0E0C1
:10011300FB50070BBB000F020280EC2CFCEF33FFFC
:10012300EE33FEED33FD020258020280EC5D046003
:1001330005E859047003020276120241580460F67E
:10014300EC4860F2EC7004FDFEFF22C860DB248102
:10015300C85009C3986002500602027D9850CAF540
:1001630082E9294B4A7005AB8202026C75F0007C70
:100173001A7880C3EF9BEE9AED99400DC3EF9BFF76
:10018300EE9AFEED99FDE842F0DC23ACF0D0E0FFFF
:10019300D0E0FED0E0FDAB8220E7101BEB60BAECB1
:1001A3002CFCEF33FFEE33FEED33FD020258E80380
:1001B300F830E705C0F075F000EF2FFFEE33FEEDEA
:1001C30033FD40B830E7C280AA75F020800E75F089
:1001D30010800575F0087D007E007F003392D530D6
:1001E300D503120701EC334010EF33FFEE33FEED7E
:1001F30033FDEC33FCD5F0ED22E5F0247EA2D513DC
:10020300CC92E7CDCEFF22EDD2E7CD33EC3392D5BE
:1002130024814006E4FFFEFDFC22FCE4CFCECDCCDE
:1002230024E0501174FF80EDC3CC13CCCD13CDCE9D
:1002330013CECF13CF0470F030D5DE020701E9D21D
:10024300E7C933E833F892D5EDD2E7CD33EC33FC8D
:100253005002B2D522EC30E7100FBF000C0EBE00E7
:10026300080DBD00040BEB6014A2D5EB13FCED925B
:10027300E7FD2274FFFCFDFEFF22E480F8A2D574A3
:10028300FF13FC7D80E480EFF920E72824F9500375
:100293007907E4F42402FB18DBFDE624FB5014E9A0
:1002A300600DE4F618E604F6B40A08E4F6D9F5742A
:1002B30001F60A22C2D522ED33EC3392D5FA602A35
:1002C300B4FF33EDC2E77BFF60067A0279DFE422F5
:1002D3007A0279E820D5047A0279E3224E614E004E
:1002E3002B494E46002D494E4600E47A08F608DABB
:1002F300FC7B00740722E8C0E0ECC0E0EDC0E0EE58
:10030300C0E0EFC0E0EA75F010A4CAABF075F04DA1
:10031300A42BFBE435F0FCEA2410FAEB34C5FBEC28
:1003230034D9FCEDC2E7FF75F056A4F42411C5F0EF
:10033300F434C58FF0A42AE5F03BE43CF620E7143F
:100343001204E5D0E0FFD0E0FED0E0FDD0E0FC12E7
:10035300012F8014F4041204E5D0E0FFD0E0FED0B6
:10036300E0FDD0E0FC120026D0E0F8E6FAEDD2E79B
:10037300CD33EC332482FBE4C3CF33CFCE33CECDA6
:1003830033CD33DBF37B0775F00A846004F6081B77
:100393000AE5F0F6088FF0740AA4FFACF08EF0744F
:1003A3000AA42CFEACF050010C8DF0740AA42CFDB1
:1003B300E435F0F608DBDE740722020276E8648097
:1003C300F8E933E83360110460F0ED33EC3370097E
:1003D300E8FCE9FDEAFEEBFF220460DED3EB9FEAD3
:1003E3009EE99DE8C2E78CF0C2F795F0400CE8CC9B
:1003F300F8E9CDF9EACEFAEBCFFB12024185D0F052
:100403005804700320D5B3E80470075002B2D50234
:10041300028092D5EC0460F7E4CCC0E0C398F860A6
:100423003B94186008400DD0E0FB020258E4FBFA4D
:10043300C9FC8028E830E406E4C9FBE4CAFCE830E0
:10044300E305E4C9CACBFCE854076010F8C3E91319
:10045300F9EA13FAEB13FBEC13FCD8F130F52FC3D5
:10046300E49CFCEF9BFFEE9AFEED99FDD0E0FBEFE1
:100473004E4D4C701222DB0302027DEC2CFCEF3359
:10048300FFEE33FEED33FDED30E7EB020258EF2BC9
:10049300FFEE3AFEED39FDD0E0FB50130BBB00033A
:1004A300020280ED13FDEE13FEEF13FFEC13FC02CB
:1004B30002583F8000004120000042C80000447AF7
:1004C3000000461C400047C35000497424004B18E9
:1004D30096804CBEBC205A0E1BCA6753C21C749D27
:1004E300C5AEFB60065407601C2323120513EB54AF
:1004F3003860091204FF12050E120026ECF8EDF91C
:10050300EEFAEFCB22EB12050E80F1543803241CD4
:100513009004B5FE93FC0EEE93FD0EEE930ECE9378
:10052300FF22BB010689828A83E0225002E722BBB5
:10053300FE02E32289828A83E49322BB010CE582D3
:1005430029F582E5833AF583E0225006E92582F80E
:10055300E622BBFE06E92582F8E222E58229F5823E
:10056300E5833AF583E49322BB010689828A83F00B
:10057300225002F722BBFE01F322EF8DF0A4A8F074
:10058300CF8CF0A428CE8DF0A42EFE22BC000BBE8F
:100593000029EF8DF084FFADF022E4CCF875F0086C
:1005A300EF2FFFEE33FEEC33FCEE9DEC984005FCA1
:1005B300EE9DFE0FD5F0E9E4CEFD22EDF8F5F0EE69
:1005C3008420D21CFEADF075F008EF2FFFED33FD54
:1005D3004007985006D5F0F222C398FD0FD5F0EAF4
:1005E30022E88FF0A4CC8BF0A42CFCE98EF0A42C91
:1005F300FC8AF0EDA42CFCEA8EF0A4CDA8F08BF0DD
:10060300A42DCC3825F0FDE98FF0A42CCD35F0FCDA
:10061300EB8EF0A4FEA9F0EB8FF0A4CFC5F02ECDA6
:1006230039FEE43CFCEAA42DCE35F0FDE43CFC228B
:1006330075F008758200EF2FFFEE33FECD33CDCC7E
:1006430033CCC58233C5829BED9AEC99E582984001
:100653000CF582EE9BFEED9AFDEC99FC0FD5F0D6DE
:10066300E4CEFBE4CDFAE4CCF9A88222B800C1B908
:100673000059BA002DEC8BF084CFCECDFCE5F0CB46
:10068300F97818EF2FFFEE33FEED33FDEC33FCEB7F
:1006930033FB10D703994004EB99FB0FD8E5E4F93A
:1006A300FA227818EF2FFFEE33FEED33FDEC33FC27
:1006B300C933C910D7059BE99A4007EC9BFCE99A1B
:1006C300F90FD8E0E4C9FAE4CCFB2275F010EF2F60
:1006D300FFEE33FEED33FDCC33CCC833C810D70760
:1006E3009BEC9AE899400AED9BFDEC9AFCE899F89B
:1006F3000FD5F0DAE4CDFBE4CCFAE4C8F922C3E485
:100703009FFFE49EFEE49DFDE49CFC22EB9FF5F03D
:10071300EA9E42F0E99D42F0EC6480C8648098450B
:10072300F022E8600FEFC333FFEE33FEED33FDEC51
:1007330033FCD8F122FAE6FB0808E6F925F0F618AF
:10074300E6CA3AF622D083D082F8E4937012740199
:1007530093700DA3A393F8740193F5828883E473D4
:100763007402936860EFA3A3A380DFE56C2458F8B9
:10077300E6056C2278553010027858E475F00112C2
:1007830007380205252009EB7F2ED2098018EF5484
:100793000F2490D43440D4FF300D0BEF24BFB41A90
:1007A3000050032461FFE56D6002156D0570E5706F
:1007B3007002056F30100D7855E475F0011207389B
:1007C300EF02056B0211C77403D2108003E4C21059
:1007D300F56C8B558A568957E4F56DF56FF570E521
:1007E3006D60077F201207A980F5756EFFC20AC2EC
:1007F30009C20BC20CC20EC20FC211120777FF70DF
:100803000D3010057F001207BAAF70AE6F22B4250A
:100813005FC2D5C20D120777FF24D0B40A00501A65
:1008230075F00A786D30D50508B6FF0106C6A42613
:10083300F620D5047002D20C80D924CFB41A00EF6D
:100843005004C2E5D20D020AA7D20A80C6D209809B
:10085300C0D20B80BCD2D580BAD20E80B47F201216
:1008630007A9200B077401B56D0040F112076EFF55
:100873001207A90207E2D211D20F809512076EFB6D
:1008830012076EFA12076EF94A4B7006799E7A0BBD
:100893007BFF200B2EE56D602A7E008E8275830020
:1008A30012053E60060EEE656E70F0C2D5EBC0E039
:1008B300EAC0E0E9C0E0EE120B07D0E0F9D0E0FABD
:1008C300D0E0FB120525FF60AAEBC0E0EAC0E0E937
:1008D300C0E01207A9D0E02401F9D0E03400FAD037
:1008E300E0FBE56E0460DCD56ED98087D20B80A275
:1008F300120AEA60F7E56E70010412028BA96E60BA
:100903000DE56E600914F56E120B91EF60F3EA309A
:10091300E702F404C3995077EAF4256E0430E70143
:10092300E404F56E800D120AEA60C1EA056E256ED5
:1009330012028BEA786BF630E701E4256E04D56E7C
:1009430004200E0114120B07E4C0E0120B91786B24
:10095300E6601320E70714F6120791802204F6D00D
:10096300E014C0E07F00120791E56E60071207886C
:10097300156E800B300E03120788D0E00207E2D019
:10098300E00480C5120AEA60A0E56E0412028B78C7
:100993006BEAF6E56E200E026001042404120B07D5
:1009A30074FF04C0E0120B91120791E56E200E0252
:1009B3006003120788D0E0B56EE87F4512079B7885
:1009C3006BE67F2B30E7047F2DF404C0E01207A908
:1009D300D0E075F00A84C0F0120792D0E0120792BB
:1009E3000207E2791080027908C20FC2118008D28F
:1009F300D5790A8004790AC2D5E56E047002F56ED2
:100A0300E4FAFDFEFF12076EFC7B08200A131207AF
:100A13006EFD7B1030090A12076EFE12076EFF7B14
:100A230020EC3382D592D55013C3E43009069FFFDF
:100A3300E49EFEE4200A039DFDE49CFCE4CBF8C2A3
:100A43000AEC700CCFCECDCCE824F8F870F3801705
:100A5300C3EF33FFEE33FEED33FDEC33FCEB33FB3F
:100A6300994002FB0FD8E9EB300A05F8D0E0C448FF
:100A7300B20AC0E00AEC4D4E4F78207B0070C2EA08
:100A8300B56E0040BCC0E0120B09D0F0D0E0200AE4
:100A930004C4C0E0C4B20AC0F0120792D0F0D5F08B
:100AA300EB0207E2120748087F5309E65808504C47
:100AB300084C4209EA4F09F24409F249086543091F
:100AC300F85509294609874508F3470BBE500854D2
:100AD3002D08582E087B2B085C230879200BA72AA6
:100AE30008144800000873E56EB4FF03756E061220
:100AF300076EFC12076EFD12076EFE12076EFF787B
:100B0300640202BA790AA2D5200C14300E09B91076
:100B1300020404B9080104A2D5200F0250010420E5
:100B23000B68920BB56D005034C0E07F20300C1978
:100B33007F30A20B720F720E500F120B60C20BC2EA
:100B43000FC20EC2117F30800F300E03E9C0E012D6
:100B530007A9300E03D0E0F9D0E0B56DCC300E1705
:100B63007F30B9100C1207A97F58300D077F7880AA
:100B730003B908031207A9300B057F2D0207A97FCC
:100B8300202011F87F2B200FF322920B80CF7F00C0
:100B9300B4070050052464F8E6FF22286E756C6CD8
:100BA3002900D20A12076E300AF8C20A786D30D5CE
:100BB3000108F60208142D5043495812076E240306
:100BC300B405004001E4900BB99312079A743A12EA
:100BD300079AD20C756D040209E6AC07E4F555F5E6
:100BE300567F8BFEECB40800505E900BF4F8282877
:100BF30073020C0C020C0E020C17020C20020C29BF
:100C0300020C32020C3B020C44803DE42FFF7410B3
:100C13003EFE8034E42FFF74203EFE802BE42FFF42
:100C230074303EFE8022E42FFF74403EFE8019E4C0
:100C33002FFF74503EFE8010E42FFF74603EFE8051
:100C430007E42FFF74703EFEEDB40800504C900C87
:100C530058F8282873020C70020C72020C7B020CE9
:100C630084020C8D020C96020C96020C96802BE4E7
:100C73002FFF74023EFE8022E42FFF74043EFE80A9
:100C830019E42FFF74063EFE8010E42FFF74083E24
:100C9300FE8007E42FFF740A3EFEC2907D01120D11
:100CA300F08E558F5600D29022201203020D507BF6
:100CB300FF7A1379117D017F011212127BFF7A13E0
:100CC30079217D017F021212127BFF7A13799B1225
:100CD300125212119D7558FF755913755A318F5E53
:100CE3008E5D8D5C8C5B7B007A00794B1207CA7F2B
:100CF300F47E011212817F011212C87BFF7A1379ED
:100D0300387D017F011212127B007A00794B7D013D
:100D13007F021212127BFF7A1379C11212527B00E7
:100D23007A00794B1212527BFF7A137941121252D5
:100D33007D907C017F707E03120FBF7FE87E0312DC
:100D430012817D907C017F707E03120FBF227DF4A0
:100D53007C017F707E03120FBF1212961212AA1229
:100D630012357BFF7A1379447D017F011212127FC2
:100D7300E87E031212817BFF7A13794E7D017F0196
:100D83001212127BFF7A1379597D017F021212121C
:100D93007FE87E031212817BFF7A1379637D017FE3
:100DA300011212127BFF7A13796E7D017F021212F8
:100DB300127FE87E031212817BFF7A1379787D011B
:100DC3007F011212127BFF7A1379837D017F021256
:100DD30012127FE87E03121281D209120F69120FD9
:100DE300088F4AE54A1470F6120CAC80F1ED6401E9
:100DF30070034306808E598F5A8E578F58C291C203
:100E0300907F017E00121281E4FBEBC39420748077
:100E130094805058E55754806004D2928002C29265
:100E2300AF5AAE59AD58AC5778011207258F5A8E79
:100E3300598D588C5700D29100C29100AF5EAE5DC0
:100E4300AD5CAC5B78011207258F5E8E5D8D5C8C8B
:100E53005BE59030E312E55E4401F55EE55DF55D2B
:100E6300E55CF55CE55BF55B000B809ED290C2917F
:100E7300C292C293AE5BAF5C22787FE4F6D8FD7575
:100E83008170020EC3020D51E493A3F8E493A340CF
:100E930003F68001F208DFF48029E493A3F85407F2
:100EA300240CC8C333C4540F4420C8834004F456ED
:100EB300800146F6DFE4800B010204081020408025
:100EC3009012DCE47E019360BCA3FF543F30E5093C
:100ED300541FFEE493A360010ECF54C025E060A825
:100EE30040B8E493A3FAE493A3F8E493A3C8C582B8
:100EF300C8CAC583CAF0A3C8C582C8CAC583CADF26
:100F0300E9DEE780BEE4F54B20B5137F14FE121231
:100F13008130B5FD7F147E00121281754B0120B420
:100F2300147F147E0012128130B4FD7F147E0012F0
:100F33001281754B0220B3147F147E00121281308C
:100F4300B3FD7F147E00121281754B0320B2147F10
:100F5300147E0012128130B2FD7F147E00121281C2
:100F6300754B04AF4B227F011212C87BFF30090679
:100F73007A1279DF80047A1279EF7D017F011212F0
:100F8300127BFF3009067A1279FB80047A13790BFE
:100F93007D017F021212127BFF3009067A1379CC8E
:100FA30080047A1379B412125220090B7DF47C0168
:100FB3007FB87E01120FBFA2099212228C558D5663
:100FC300AD07AC06E41201D1A804A905AA06AB0734
:100FD3007F007E507DC37C4712012F12020AAB07AC
:100FE300AA06AE55AF56AD03AC0212058F7C007D49
:100FF3006412057DAD07AC06900000C3E5829DE554
:10100300839C500CB2B6AF03AE021212D2A380EB94
:10101300228B238A2489257F01AB23AA24A9258F28
:101023008275830012053E60030F80EDE4FEEEC37C
:101033009F5022AB23AA24A9258E82758300120513
:101043003EFD74002EF582E43400F583E06D60020A
:10105300C3220E80D9D3227B017A007900E4FFC238
:1010630000E59912056BE4FEC2980F0429F9E43AEE
:10107300FA20980D0EEED394827480948040F2D2BD
:1010830000EFFD3395E0FCC3ED9413EC6480948092
:1010930050033000CAE412056BD322E4FFEFC3947C
:1010A3001474809480503774002FF582E43400F573
:1010B30083E0FD3395E0FCC3ED9441EC64809480C0
:1010C3004019D3ED945AEC64809480500E74002F31
:1010D300F582E43400F583E02420F00F80BF22C2C0
:1010E300D5E830E70FB2D5E4C39BFBE49AFAE49961
:1010F300F9E498F8EC30E717B2D512111812066F1D
:10110300E4C39BFBE49AFAE499F9E498F8800312A8
:10111300066F30D50DE4C39FFFE49EFEE49DFDE41E
:101123009CFC22C0E0C0F0C083C082C0D075D00058
:10113300C000C001C002C003C004C005C006C00790
:1011430012105A50031211EEC298D007D006D005E0
:10115300D004D003D002D001D000D0D0D082D0832D
:10116300D0F0D0E0328F237E00C3EF9401748094DB
:1011730080400AD3EF9402748094804002C322EF2C
:1011830064014E7005120CAC800EE52364027008F6
:10119300A212B39209120F69D3227FE87E031212BF
:1011A30081E4FD7F05120BDDAD07AC06E41201D12E
:1011B3007BA67A9B79C47840120026E4FBFAF9787F
:1011C3004702012FEFB40A07740D1211D2740A30CB
:1011D3009811A899B8130CC2983098FDA899C29891
:1011E300B811F63099FDC299F5992212109E7BFF32
:1011F3007A13798D12101450047F01800D7BFF7ACE
:1012030013799612101450057F02021168C3228BC2
:10121300558A568957120003E4FDAB55AA56A957C0
:101223008D8275830012053EFF60061212770D80D2
:10123300E922D2AF7598504389205389EF758DFA0F
:10124300758BFA438780D28EC299C298D2AC22C2E0
:10125300AC1205256010F5993099FDC299740129E6
:10126300F9E43AFA80EBD2AC22E4FAF9F81210E28C
:10127300EB2430FFD2871212B9C2850212BFEF1FCF
:10128300AC0670011E4C600A7D027CC7DCFEDDFCEF
:1012930080EC227F381212C87F0C1212C87F06120C
:1012A30012C87F010212C8D290D291C292E4FD7F8C
:1012B3008B7E03020DF0C2868FA0D2857F027EEF64
:1012C300DEFEDFFC22C2871212B9C2850212BFEF13
:1012D3001F70011E144E70F722C192005072657385
:1012E30073205331204B657920746F004D65617312
:1012F3007572656D656E74004D65617375726520F9
:10130300566F6C74616765004F76657221004D6599
:1013130061737572696E6720566F6C742000506C30
:101323006561736520576169742E2E2E2000252E6A
:101333003266205600566F6C746167653A000D0A79
:1013430000566F6C746D65746572003139303031DD
:1013530030303330350054616F416E48616E670041
:1013630031393030313030333336004865416E51D6
:1013730069202020003139303031303033313600AC
:1013830057616E674A696E672000BFAACABCB2E2A2
:10139300C1BF00CDA3D6B900D5FDD4DAB2E2C1BF37
:1013A300B5E7D1B9A3ACC7EBB5C8B4FDA3A10D0A8A
:1013B30000B2E2C1BFBDE1CAF8A3A10D0A00B5B1F5
:1013C300C7B0B5E7D1B9A3BA00B0B4CFC220533187
:1013D30020B0B4BCFCBBF2CAB9D3C3B4AEBFDAB756
:1013E300A2CBCDA1B0BFAACABCB2E2C1BFA1B1BF5B
:1013F300AACABCB2E2C1BFB5E7D1B9A1A30D0A0025
:00000001FF
